{
  "contracts/VoteFactory.sol": {
    "VotingFactory": {
      "abi": [
        {
          "inputs": [
            {
              "internalType": "address",
              "name": "_voteContractAddress",
              "type": "address"
            }
          ],
          "stateMutability": "nonpayable",
          "type": "constructor"
        },
        {
          "anonymous": false,
          "inputs": [
            {
              "indexed": true,
              "internalType": "address",
              "name": "owner",
              "type": "address"
            },
            {
              "indexed": false,
              "internalType": "address",
              "name": "voteContractAddress",
              "type": "address"
            }
          ],
          "name": "VoteContractCreated",
          "type": "event"
        },
        {
          "inputs": [],
          "name": "CreateNewVote",
          "outputs": [],
          "stateMutability": "nonpayable",
          "type": "function"
        },
        {
          "inputs": [
            {
              "internalType": "address",
              "name": "owner",
              "type": "address"
            }
          ],
          "name": "getVotingContractsByOwner",
          "outputs": [
            {
              "internalType": "address[]",
              "name": "",
              "type": "address[]"
            }
          ],
          "stateMutability": "view",
          "type": "function"
        },
        {
          "inputs": [
            {
              "internalType": "address",
              "name": "",
              "type": "address"
            },
            {
              "internalType": "uint256",
              "name": "",
              "type": "uint256"
            }
          ],
          "name": "votingContracts",
          "outputs": [
            {
              "internalType": "address",
              "name": "",
              "type": "address"
            }
          ],
          "stateMutability": "view",
          "type": "function"
        }
      ],
      "evm": {
        "bytecode": {
          "linkReferences": {},
          "object": "608060405234801561001057600080fd5b50604051612839380380612839833981810160405281019061003291906100dc565b80600160006101000a81548173ffffffffffffffffffffffffffffffffffffffff021916908373ffffffffffffffffffffffffffffffffffffffff16021790555050610109565b600080fd5b600073ffffffffffffffffffffffffffffffffffffffff82169050919050565b60006100a98261007e565b9050919050565b6100b98161009e565b81146100c457600080fd5b50565b6000815190506100d6816100b0565b92915050565b6000602082840312156100f2576100f1610079565b5b6000610100848285016100c7565b91505092915050565b612721806101186000396000f3fe608060405234801561001057600080fd5b50600436106100415760003560e01c806307de98c4146100465780636b256d6c14610076578063798d39b214610080575b600080fd5b610060600480360381019061005b9190610393565b6100b0565b60405161006d91906103e2565b60405180910390f35b61007e6100fe565b005b61009a600480360381019061009591906103fd565b610221565b6040516100a791906104e8565b60405180910390f35b600060205281600052604060002081815481106100cc57600080fd5b906000526020600020016000915091509054906101000a900473ffffffffffffffffffffffffffffffffffffffff1681565b600060405161010c906102ed565b604051809103906000f080158015610128573d6000803e3d6000fd5b50905060008190506000803373ffffffffffffffffffffffffffffffffffffffff1673ffffffffffffffffffffffffffffffffffffffff168152602001908152602001600020819080600181540180825580915050600190039060005260206000200160009091909190916101000a81548173ffffffffffffffffffffffffffffffffffffffff021916908373ffffffffffffffffffffffffffffffffffffffff1602179055503373ffffffffffffffffffffffffffffffffffffffff167fac623816d8a99041787f6c3a6bbe17e0c6c49487ec9966ab684df350f972ab568260405161021591906103e2565b60405180910390a25050565b60606000808373ffffffffffffffffffffffffffffffffffffffff1673ffffffffffffffffffffffffffffffffffffffff1681526020019081526020016000208054806020026020016040519081016040528092919081815260200182805480156102e157602002820191906000526020600020905b8160009054906101000a900473ffffffffffffffffffffffffffffffffffffffff1673ffffffffffffffffffffffffffffffffffffffff1681526020019060010190808311610297575b50505050509050919050565b6121e18061050b83390190565b600080fd5b600073ffffffffffffffffffffffffffffffffffffffff82169050919050565b600061032a826102ff565b9050919050565b61033a8161031f565b811461034557600080fd5b50565b60008135905061035781610331565b92915050565b6000819050919050565b6103708161035d565b811461037b57600080fd5b50565b60008135905061038d81610367565b92915050565b600080604083850312156103aa576103a96102fa565b5b60006103b885828601610348565b92505060206103c98582860161037e565b9150509250929050565b6103dc8161031f565b82525050565b60006020820190506103f760008301846103d3565b92915050565b600060208284031215610413576104126102fa565b5b600061042184828501610348565b91505092915050565b600081519050919050565b600082825260208201905092915050565b6000819050602082019050919050565b61045f8161031f565b82525050565b60006104718383610456565b60208301905092915050565b6000602082019050919050565b60006104958261042a565b61049f8185610435565b93506104aa83610446565b8060005b838110156104db5781516104c28882610465565b97506104cd8361047d565b9250506001810190506104ae565b5085935050505092915050565b60006020820190508181036000830152610502818461048a565b90509291505056fe608060405234801561001057600080fd5b506121c1806100206000396000f3fe608060405234801561001057600080fd5b50600436106101005760003560e01c80637469b4a711610097578063d45b311c11610066578063d45b311c146102a0578063ee8ebc81146102bc578063ef430aa6146102d8578063f1dceef2146102f657610100565b80637469b4a7146102035780638622a6891461021f578063b13c744b1461023d578063c5539cc21461026d57610100565b80632b7ac3f3116100d35780632b7ac3f31461018d57806330be07af146101ab5780635bcc58ea146101c75780637284e416146101e557610100565b806312fa6feb1461010557806313ee4051146101235780631f2698ab146101535780632142bdd014610171575b600080fd5b61010d610300565b60405161011a919061124b565b60405180910390f35b61013d600480360381019061013891906112b0565b610311565b60405161014a919061124b565b60405180910390f35b61015b61033e565b604051610168919061124b565b60405180910390f35b61018b60048036038101906101869190611313565b610351565b005b610195610408565b6040516101a29190611381565b60405180910390f35b6101c560048036038101906101c091906114e2565b61042e565b005b6101cf61047e565b6040516101dc919061171b565b60405180910390f35b6101ed610773565b6040516101fa9190611787565b60405180910390f35b61021d600480360381019061021891906117a9565b610801565b005b610227610944565b6040516102349190611814565b60405180910390f35b61025760048036038101906102529190611313565b61094a565b6040516102649190611787565b60405180910390f35b6102876004803603810190610282919061182f565b6109f6565b6040516102979493929190611878565b60405180910390f35b6102ba60048036038101906102b59190611932565b610bd4565b005b6102d660048036038101906102d191906112b0565b610e27565b005b6102e0610f34565b6040516102ed9190611787565b60405180910390f35b6102fe610fc2565b005b60018054906101000a900460ff1681565b60006004600083815260200190815260200160002060000160019054906101000a900460ff169050919050565b600160009054906101000a900460ff1681565b600160009054906101000a900460ff1615610398576040517f3b51a3e000000000000000000000000000000000000000000000000000000000815260040160405180910390fd5b603c816103a59190611a15565b426103b09190611a57565b60008190555060018060006101000a81548160ff0219169083151502179055507f18c6a608f6baf3a1b3d83912d37e7441a6219e6770604851fe47c24cc2d0115a6040516103fd90611ad7565b60405180910390a150565b600160029054906101000a900473ffffffffffffffffffffffffffffffffffffffff1681565b816002908161043d9190611d03565b50806003908161044d9190611d03565b507f79b3ff2be1c88ef95d27abdd511f598fdf951e5db4a3240626deff68d46fd10460405160405180910390a15050565b606060018054906101000a900460ff166104cd576040517f1c8975cf0000000000000000000000000000000000000000000000000000000081526004016104c490611e21565b60405180910390fd5b600060068054905067ffffffffffffffff8111156104ee576104ed6113b7565b5b60405190808252806020026020018201604052801561052757816020015b610514611208565b81526020019060019003908161050c5790505b50905060005b60068054905081101561076b576005600682815481106105505761054f611e41565b5b906000526020600020016040516105679190611efe565b908152602001604051809103902060405180608001604052908160008201805461059090611b26565b80601f01602080910402602001604051908101604052809291908181526020018280546105bc90611b26565b80156106095780601f106105de57610100808354040283529160200191610609565b820191906000526020600020905b8154815290600101906020018083116105ec57829003601f168201915b5050505050815260200160018201805461062290611b26565b80601f016020809104026020016040519081016040528092919081815260200182805461064e90611b26565b801561069b5780601f106106705761010080835404028352916020019161069b565b820191906000526020600020905b81548152906001019060200180831161067e57829003601f168201915b505050505081526020016002820180546106b490611b26565b80601f01602080910402602001604051908101604052809291908181526020018280546106e090611b26565b801561072d5780601f106107025761010080835404028352916020019161072d565b820191906000526020600020905b81548152906001019060200180831161071057829003601f168201915b5050505050815260200160038201548152505082828151811061075357610752611e41565b5b6020026020010181905250808060010191505061052d565b508091505090565b6003805461078090611b26565b80601f01602080910402602001604051908101604052809291908181526020018280546107ac90611b26565b80156107f95780601f106107ce576101008083540402835291602001916107f9565b820191906000526020600020905b8154815290600101906020018083116107dc57829003601f168201915b505050505081565b600160009054906101000a900460ff16610847576040517f6314ffc900000000000000000000000000000000000000000000000000000000815260040160405180910390fd5b6004600083815260200190815260200160002060000160009054906101000a900460ff16156108a2576040517f6173109400000000000000000000000000000000000000000000000000000000815260040160405180910390fd5b60006005826040516108b49190611f46565b908152602001604051809103902060000180546108d090611b26565b905003610909576040517f6eaadb4200000000000000000000000000000000000000000000000000000000815260040160405180910390fd5b61091382826110da565b817f3640eeeffdb1307d3c0017a75ed51f76d569b685ccb7074f10a0bd92f96ddf2260405160405180910390a25050565b60005481565b6006818154811061095a57600080fd5b90600052602060002001600091509050805461097590611b26565b80601f01602080910402602001604051908101604052809291908181526020018280546109a190611b26565b80156109ee5780601f106109c3576101008083540402835291602001916109ee565b820191906000526020600020905b8154815290600101906020018083116109d157829003601f168201915b505050505081565b600581805160208101820180518482526020830160208501208183528095505050505050600091509050806000018054610a2f90611b26565b80601f0160208091040260200160405190810160405280929190818152602001828054610a5b90611b26565b8015610aa85780601f10610a7d57610100808354040283529160200191610aa8565b820191906000526020600020905b815481529060010190602001808311610a8b57829003601f168201915b505050505090806001018054610abd90611b26565b80601f0160208091040260200160405190810160405280929190818152602001828054610ae990611b26565b8015610b365780601f10610b0b57610100808354040283529160200191610b36565b820191906000526020600020905b815481529060010190602001808311610b1957829003601f168201915b505050505090806002018054610b4b90611b26565b80601f0160208091040260200160405190810160405280929190818152602001828054610b7790611b26565b8015610bc45780601f10610b9957610100808354040283529160200191610bc4565b820191906000526020600020905b815481529060010190602001808311610ba757829003601f168201915b5050505050908060030154905084565b600060058585604051610be8929190611f82565b90815260200160405180910390206000018054610c0490611b26565b905014610c3d576040517f507f223100000000000000000000000000000000000000000000000000000000815260040160405180910390fd5b6000604051806080016040528088888080601f016020809104026020016040519081016040528093929190818152602001838380828437600081840152601f19601f82011690508083019250505050505050815260200186868080601f016020809104026020016040519081016040528093929190818152602001838380828437600081840152601f19601f82011690508083019250505050505050815260200184848080601f016020809104026020016040519081016040528093929190818152602001838380828437600081840152601f19601f820116905080830192505050505050508152602001600081525090508060058686604051610d42929190611f82565b90815260200160405180910390206000820151816000019081610d659190611d03565b506020820151816001019081610d7b9190611d03565b506040820151816002019081610d919190611d03565b50606082015181600301559050506006858590918060018154018082558091505060019003906000526020600020016000909192909192909192909192509182610ddc929190611fa6565b507fa620e116e8168f7281127a47ac04518b6fbd8b07cd150397e6e3e56127ce48cf878787878787604051610e16969594939291906120a3565b60405180910390a150505050505050565b6004600082815260200190815260200160002060000160019054906101000a900460ff1615610e8d57806040517f978f59cf000000000000000000000000000000000000000000000000000000008152600401610e849190612104565b60405180910390fd5b60006040518060400160405280600015158152602001600115158152509050806004600084815260200190815260200160002060008201518160000160006101000a81548160ff02191690831515021790555060208201518160000160016101000a81548160ff021916908315150217905550905050817f18edffd1022a6c8a5c2fb84945056621aad34f1172f8048b9f0b788bf253562860405160405180910390a25050565b60028054610f4190611b26565b80601f0160208091040260200160405190810160405280929190818152602001828054610f6d90611b26565b8015610fba5780601f10610f8f57610100808354040283529160200191610fba565b820191906000526020600020905b815481529060010190602001808311610f9d57829003601f168201915b505050505081565b600160009054906101000a900460ff16611008576040517f6314ffc900000000000000000000000000000000000000000000000000000000815260040160405180910390fd5b600054421015611044576040517fd468151f00000000000000000000000000000000000000000000000000000000815260040160405180910390fd5b60018054906101000a900460ff1615611089576040517f181ff59a00000000000000000000000000000000000000000000000000000000815260040160405180910390fd5b60018060016101000a81548160ff0219169083151502179055507f74e0b2978c99ca20b757f0f8b458fc435f508ea64c542132a673e898b96f535d6040516110d09061216b565b60405180910390a1565b60006005826040516110ec9190611f46565b9081526020016040518091039020600001805461110890611b26565b905003611141576040517f6eaadb4200000000000000000000000000000000000000000000000000000000815260040160405180910390fd5b6004600083815260200190815260200160002060000160009054906101000a900460ff161561119c576040517f6173109400000000000000000000000000000000000000000000000000000000815260040160405180910390fd5b60016004600084815260200190815260200160002060000160006101000a81548160ff02191690831515021790555060016005826040516111dd9190611f46565b908152602001604051809103902060030160008282546111fd9190611a57565b925050819055505050565b6040518060800160405280606081526020016060815260200160608152602001600081525090565b60008115159050919050565b61124581611230565b82525050565b6000602082019050611260600083018461123c565b92915050565b6000604051905090565b600080fd5b600080fd5b6000819050919050565b61128d8161127a565b811461129857600080fd5b50565b6000813590506112aa81611284565b92915050565b6000602082840312156112c6576112c5611270565b5b60006112d48482850161129b565b91505092915050565b6000819050919050565b6112f0816112dd565b81146112fb57600080fd5b50565b60008135905061130d816112e7565b92915050565b60006020828403121561132957611328611270565b5b6000611337848285016112fe565b91505092915050565b600073ffffffffffffffffffffffffffffffffffffffff82169050919050565b600061136b82611340565b9050919050565b61137b81611360565b82525050565b60006020820190506113966000830184611372565b92915050565b600080fd5b600080fd5b6000601f19601f8301169050919050565b7f4e487b7100000000000000000000000000000000000000000000000000000000600052604160045260246000fd5b6113ef826113a6565b810181811067ffffffffffffffff8211171561140e5761140d6113b7565b5b80604052505050565b6000611421611266565b905061142d82826113e6565b919050565b600067ffffffffffffffff82111561144d5761144c6113b7565b5b611456826113a6565b9050602081019050919050565b82818337600083830152505050565b600061148561148084611432565b611417565b9050828152602081018484840111156114a1576114a06113a1565b5b6114ac848285611463565b509392505050565b600082601f8301126114c9576114c861139c565b5b81356114d9848260208601611472565b91505092915050565b600080604083850312156114f9576114f8611270565b5b600083013567ffffffffffffffff81111561151757611516611275565b5b611523858286016114b4565b925050602083013567ffffffffffffffff81111561154457611543611275565b5b611550858286016114b4565b9150509250929050565b600081519050919050565b600082825260208201905092915050565b6000819050602082019050919050565b600081519050919050565b600082825260208201905092915050565b60005b838110156115c05780820151818401526020810190506115a5565b60008484015250505050565b60006115d782611586565b6115e18185611591565b93506115f18185602086016115a2565b6115fa816113a6565b840191505092915050565b61160e816112dd565b82525050565b6000608083016000830151848203600086015261163182826115cc565b9150506020830151848203602086015261164b82826115cc565b9150506040830151848203604086015261166582826115cc565b915050606083015161167a6060860182611605565b508091505092915050565b60006116918383611614565b905092915050565b6000602082019050919050565b60006116b18261155a565b6116bb8185611565565b9350836020820285016116cd85611576565b8060005b8581101561170957848403895281516116ea8582611685565b94506116f583611699565b925060208a019950506001810190506116d1565b50829750879550505050505092915050565b6000602082019050818103600083015261173581846116a6565b905092915050565b600082825260208201905092915050565b600061175982611586565b611763818561173d565b93506117738185602086016115a2565b61177c816113a6565b840191505092915050565b600060208201905081810360008301526117a1818461174e565b905092915050565b600080604083850312156117c0576117bf611270565b5b60006117ce8582860161129b565b925050602083013567ffffffffffffffff8111156117ef576117ee611275565b5b6117fb858286016114b4565b9150509250929050565b61180e816112dd565b82525050565b60006020820190506118296000830184611805565b92915050565b60006020828403121561184557611844611270565b5b600082013567ffffffffffffffff81111561186357611862611275565b5b61186f848285016114b4565b91505092915050565b60006080820190508181036000830152611892818761174e565b905081810360208301526118a6818661174e565b905081810360408301526118ba818561174e565b90506118c96060830184611805565b95945050505050565b600080fd5b600080fd5b60008083601f8401126118f2576118f161139c565b5b8235905067ffffffffffffffff81111561190f5761190e6118d2565b5b60208301915083600182028301111561192b5761192a6118d7565b5b9250929050565b6000806000806000806060878903121561194f5761194e611270565b5b600087013567ffffffffffffffff81111561196d5761196c611275565b5b61197989828a016118dc565b9650965050602087013567ffffffffffffffff81111561199c5761199b611275565b5b6119a889828a016118dc565b9450945050604087013567ffffffffffffffff8111156119cb576119ca611275565b5b6119d789828a016118dc565b92509250509295509295509295565b7f4e487b7100000000000000000000000000000000000000000000000000000000600052601160045260246000fd5b6000611a20826112dd565b9150611a2b836112dd565b9250828202611a39816112dd565b91508282048414831517611a5057611a4f6119e6565b5b5092915050565b6000611a62826112dd565b9150611a6d836112dd565b9250828201905080821115611a8557611a846119e6565b5b92915050565b7f566f74696e672068617320737461727465640000000000000000000000000000600082015250565b6000611ac160128361173d565b9150611acc82611a8b565b602082019050919050565b60006020820190508181036000830152611af081611ab4565b9050919050565b7f4e487b7100000000000000000000000000000000000000000000000000000000600052602260045260246000fd5b60006002820490506001821680611b3e57607f821691505b602082108103611b5157611b50611af7565b5b50919050565b60008190508160005260206000209050919050565b60006020601f8301049050919050565b600082821b905092915050565b600060088302611bb97fffffffffffffffffffffffffffffffffffffffffffffffffffffffffffffffff82611b7c565b611bc38683611b7c565b95508019841693508086168417925050509392505050565b6000819050919050565b6000611c00611bfb611bf6846112dd565b611bdb565b6112dd565b9050919050565b6000819050919050565b611c1a83611be5565b611c2e611c2682611c07565b848454611b89565b825550505050565b600090565b611c43611c36565b611c4e818484611c11565b505050565b5b81811015611c7257611c67600082611c3b565b600181019050611c54565b5050565b601f821115611cb757611c8881611b57565b611c9184611b6c565b81016020851015611ca0578190505b611cb4611cac85611b6c565b830182611c53565b50505b505050565b600082821c905092915050565b6000611cda60001984600802611cbc565b1980831691505092915050565b6000611cf38383611cc9565b9150826002028217905092915050565b611d0c82611586565b67ffffffffffffffff811115611d2557611d246113b7565b5b611d2f8254611b26565b611d3a828285611c76565b600060209050601f831160018114611d6d5760008415611d5b578287015190505b611d658582611ce7565b865550611dcd565b601f198416611d7b86611b57565b60005b82811015611da357848901518255600182019150602085019450602081019050611d7e565b86831015611dc05784890151611dbc601f891682611cc9565b8355505b6001600288020188555050505b505050505050565b7f566f74696e6720686173206e6f7420656e646564000000000000000000000000600082015250565b6000611e0b60148361173d565b9150611e1682611dd5565b602082019050919050565b60006020820190508181036000830152611e3a81611dfe565b9050919050565b7f4e487b7100000000000000000000000000000000000000000000000000000000600052603260045260246000fd5b600081905092915050565b60008154611e8881611b26565b611e928186611e70565b94506001821660008114611ead5760018114611ec257611ef5565b60ff1983168652811515820286019350611ef5565b611ecb85611b57565b60005b83811015611eed57815481890152600182019150602081019050611ece565b838801955050505b50505092915050565b6000611f0a8284611e7b565b915081905092915050565b6000611f2082611586565b611f2a8185611e70565b9350611f3a8185602086016115a2565b80840191505092915050565b6000611f528284611f15565b915081905092915050565b6000611f698385611e70565b9350611f76838584611463565b82840190509392505050565b6000611f8f828486611f5d565b91508190509392505050565b600082905092915050565b611fb08383611f9b565b67ffffffffffffffff811115611fc957611fc86113b7565b5b611fd38254611b26565b611fde828285611c76565b6000601f83116001811461200d5760008415611ffb578287013590505b6120058582611ce7565b86555061206d565b601f19841661201b86611b57565b60005b828110156120435784890135825560018201915060208501945060208101905061201e565b86831015612060578489013561205c601f891682611cc9565b8355505b6001600288020188555050505b50505050505050565b6000612082838561173d565b935061208f838584611463565b612098836113a6565b840190509392505050565b600060608201905081810360008301526120be81888a612076565b905081810360208301526120d3818688612076565b905081810360408301526120e8818486612076565b9050979650505050505050565b6120fe8161127a565b82525050565b600060208201905061211960008301846120f5565b92915050565b7f566f74696e672068617320656e64656400000000000000000000000000000000600082015250565b600061215560108361173d565b91506121608261211f565b602082019050919050565b6000602082019050818103600083015261218481612148565b905091905056fea2646970667358221220522dde1e648f7e6d992a51c7b842a04709131cc60d711366137c5176a3ec133d64736f6c63430008180033a2646970667358221220da8fc8ef2b0fc0cfb63efda34439b2199efbdf777142ac99f62b841cd6ac232264736f6c63430008180033",
          "opcodes": "PUSH1 0x80 PUSH1 0x40 MSTORE CALLVALUE DUP1 ISZERO PUSH2 0x10 JUMPI PUSH1 0x0 DUP1 REVERT JUMPDEST POP PUSH1 0x40 MLOAD PUSH2 0x2839 CODESIZE SUB DUP1 PUSH2 0x2839 DUP4 CODECOPY DUP2 DUP2 ADD PUSH1 0x40 MSTORE DUP2 ADD SWAP1 PUSH2 0x32 SWAP2 SWAP1 PUSH2 0xDC JUMP JUMPDEST DUP1 PUSH1 0x1 PUSH1 0x0 PUSH2 0x100 EXP DUP2 SLOAD DUP2 PUSH20 0xFFFFFFFFFFFFFFFFFFFFFFFFFFFFFFFFFFFFFFFF MUL NOT AND SWAP1 DUP4 PUSH20 0xFFFFFFFFFFFFFFFFFFFFFFFFFFFFFFFFFFFFFFFF AND MUL OR SWAP1 SSTORE POP POP PUSH2 0x109 JUMP JUMPDEST PUSH1 0x0 DUP1 REVERT JUMPDEST PUSH1 0x0 PUSH20 0xFFFFFFFFFFFFFFFFFFFFFFFFFFFFFFFFFFFFFFFF DUP3 AND SWAP1 POP SWAP2 SWAP1 POP JUMP JUMPDEST PUSH1 0x0 PUSH2 0xA9 DUP3 PUSH2 0x7E JUMP JUMPDEST SWAP1 POP SWAP2 SWAP1 POP JUMP JUMPDEST PUSH2 0xB9 DUP2 PUSH2 0x9E JUMP JUMPDEST DUP2 EQ PUSH2 0xC4 JUMPI PUSH1 0x0 DUP1 REVERT JUMPDEST POP JUMP JUMPDEST PUSH1 0x0 DUP2 MLOAD SWAP1 POP PUSH2 0xD6 DUP2 PUSH2 0xB0 JUMP JUMPDEST SWAP3 SWAP2 POP POP JUMP JUMPDEST PUSH1 0x0 PUSH1 0x20 DUP3 DUP5 SUB SLT ISZERO PUSH2 0xF2 JUMPI PUSH2 0xF1 PUSH2 0x79 JUMP JUMPDEST JUMPDEST PUSH1 0x0 PUSH2 0x100 DUP5 DUP3 DUP6 ADD PUSH2 0xC7 JUMP JUMPDEST SWAP2 POP POP SWAP3 SWAP2 POP POP JUMP JUMPDEST PUSH2 0x2721 DUP1 PUSH2 0x118 PUSH1 0x0 CODECOPY PUSH1 0x0 RETURN INVALID PUSH1 0x80 PUSH1 0x40 MSTORE CALLVALUE DUP1 ISZERO PUSH2 0x10 JUMPI PUSH1 0x0 DUP1 REVERT JUMPDEST POP PUSH1 0x4 CALLDATASIZE LT PUSH2 0x41 JUMPI PUSH1 0x0 CALLDATALOAD PUSH1 0xE0 SHR DUP1 PUSH4 0x7DE98C4 EQ PUSH2 0x46 JUMPI DUP1 PUSH4 0x6B256D6C EQ PUSH2 0x76 JUMPI DUP1 PUSH4 0x798D39B2 EQ PUSH2 0x80 JUMPI JUMPDEST PUSH1 0x0 DUP1 REVERT JUMPDEST PUSH2 0x60 PUSH1 0x4 DUP1 CALLDATASIZE SUB DUP2 ADD SWAP1 PUSH2 0x5B SWAP2 SWAP1 PUSH2 0x393 JUMP JUMPDEST PUSH2 0xB0 JUMP JUMPDEST PUSH1 0x40 MLOAD PUSH2 0x6D SWAP2 SWAP1 PUSH2 0x3E2 JUMP JUMPDEST PUSH1 0x40 MLOAD DUP1 SWAP2 SUB SWAP1 RETURN JUMPDEST PUSH2 0x7E PUSH2 0xFE JUMP JUMPDEST STOP JUMPDEST PUSH2 0x9A PUSH1 0x4 DUP1 CALLDATASIZE SUB DUP2 ADD SWAP1 PUSH2 0x95 SWAP2 SWAP1 PUSH2 0x3FD JUMP JUMPDEST PUSH2 0x221 JUMP JUMPDEST PUSH1 0x40 MLOAD PUSH2 0xA7 SWAP2 SWAP1 PUSH2 0x4E8 JUMP JUMPDEST PUSH1 0x40 MLOAD DUP1 SWAP2 SUB SWAP1 RETURN JUMPDEST PUSH1 0x0 PUSH1 0x20 MSTORE DUP2 PUSH1 0x0 MSTORE PUSH1 0x40 PUSH1 0x0 KECCAK256 DUP2 DUP2 SLOAD DUP2 LT PUSH2 0xCC JUMPI PUSH1 0x0 DUP1 REVERT JUMPDEST SWAP1 PUSH1 0x0 MSTORE PUSH1 0x20 PUSH1 0x0 KECCAK256 ADD PUSH1 0x0 SWAP2 POP SWAP2 POP SWAP1 SLOAD SWAP1 PUSH2 0x100 EXP SWAP1 DIV PUSH20 0xFFFFFFFFFFFFFFFFFFFFFFFFFFFFFFFFFFFFFFFF AND DUP2 JUMP JUMPDEST PUSH1 0x0 PUSH1 0x40 MLOAD PUSH2 0x10C SWAP1 PUSH2 0x2ED JUMP JUMPDEST PUSH1 0x40 MLOAD DUP1 SWAP2 SUB SWAP1 PUSH1 0x0 CREATE DUP1 ISZERO DUP1 ISZERO PUSH2 0x128 JUMPI RETURNDATASIZE PUSH1 0x0 DUP1 RETURNDATACOPY RETURNDATASIZE PUSH1 0x0 REVERT JUMPDEST POP SWAP1 POP PUSH1 0x0 DUP2 SWAP1 POP PUSH1 0x0 DUP1 CALLER PUSH20 0xFFFFFFFFFFFFFFFFFFFFFFFFFFFFFFFFFFFFFFFF AND PUSH20 0xFFFFFFFFFFFFFFFFFFFFFFFFFFFFFFFFFFFFFFFF AND DUP2 MSTORE PUSH1 0x20 ADD SWAP1 DUP2 MSTORE PUSH1 0x20 ADD PUSH1 0x0 KECCAK256 DUP2 SWAP1 DUP1 PUSH1 0x1 DUP2 SLOAD ADD DUP1 DUP3 SSTORE DUP1 SWAP2 POP POP PUSH1 0x1 SWAP1 SUB SWAP1 PUSH1 0x0 MSTORE PUSH1 0x20 PUSH1 0x0 KECCAK256 ADD PUSH1 0x0 SWAP1 SWAP2 SWAP1 SWAP2 SWAP1 SWAP2 PUSH2 0x100 EXP DUP2 SLOAD DUP2 PUSH20 0xFFFFFFFFFFFFFFFFFFFFFFFFFFFFFFFFFFFFFFFF MUL NOT AND SWAP1 DUP4 PUSH20 0xFFFFFFFFFFFFFFFFFFFFFFFFFFFFFFFFFFFFFFFF AND MUL OR SWAP1 SSTORE POP CALLER PUSH20 0xFFFFFFFFFFFFFFFFFFFFFFFFFFFFFFFFFFFFFFFF AND PUSH32 0xAC623816D8A99041787F6C3A6BBE17E0C6C49487EC9966AB684DF350F972AB56 DUP3 PUSH1 0x40 MLOAD PUSH2 0x215 SWAP2 SWAP1 PUSH2 0x3E2 JUMP JUMPDEST PUSH1 0x40 MLOAD DUP1 SWAP2 SUB SWAP1 LOG2 POP POP JUMP JUMPDEST PUSH1 0x60 PUSH1 0x0 DUP1 DUP4 PUSH20 0xFFFFFFFFFFFFFFFFFFFFFFFFFFFFFFFFFFFFFFFF AND PUSH20 0xFFFFFFFFFFFFFFFFFFFFFFFFFFFFFFFFFFFFFFFF AND DUP2 MSTORE PUSH1 0x20 ADD SWAP1 DUP2 MSTORE PUSH1 0x20 ADD PUSH1 0x0 KECCAK256 DUP1 SLOAD DUP1 PUSH1 0x20 MUL PUSH1 0x20 ADD PUSH1 0x40 MLOAD SWAP1 DUP2 ADD PUSH1 0x40 MSTORE DUP1 SWAP3 SWAP2 SWAP1 DUP2 DUP2 MSTORE PUSH1 0x20 ADD DUP3 DUP1 SLOAD DUP1 ISZERO PUSH2 0x2E1 JUMPI PUSH1 0x20 MUL DUP3 ADD SWAP2 SWAP1 PUSH1 0x0 MSTORE PUSH1 0x20 PUSH1 0x0 KECCAK256 SWAP1 JUMPDEST DUP2 PUSH1 0x0 SWAP1 SLOAD SWAP1 PUSH2 0x100 EXP SWAP1 DIV PUSH20 0xFFFFFFFFFFFFFFFFFFFFFFFFFFFFFFFFFFFFFFFF AND PUSH20 0xFFFFFFFFFFFFFFFFFFFFFFFFFFFFFFFFFFFFFFFF AND DUP2 MSTORE PUSH1 0x20 ADD SWAP1 PUSH1 0x1 ADD SWAP1 DUP1 DUP4 GT PUSH2 0x297 JUMPI JUMPDEST POP POP POP POP POP SWAP1 POP SWAP2 SWAP1 POP JUMP JUMPDEST PUSH2 0x21E1 DUP1 PUSH2 0x50B DUP4 CODECOPY ADD SWAP1 JUMP JUMPDEST PUSH1 0x0 DUP1 REVERT JUMPDEST PUSH1 0x0 PUSH20 0xFFFFFFFFFFFFFFFFFFFFFFFFFFFFFFFFFFFFFFFF DUP3 AND SWAP1 POP SWAP2 SWAP1 POP JUMP JUMPDEST PUSH1 0x0 PUSH2 0x32A DUP3 PUSH2 0x2FF JUMP JUMPDEST SWAP1 POP SWAP2 SWAP1 POP JUMP JUMPDEST PUSH2 0x33A DUP2 PUSH2 0x31F JUMP JUMPDEST DUP2 EQ PUSH2 0x345 JUMPI PUSH1 0x0 DUP1 REVERT JUMPDEST POP JUMP JUMPDEST PUSH1 0x0 DUP2 CALLDATALOAD SWAP1 POP PUSH2 0x357 DUP2 PUSH2 0x331 JUMP JUMPDEST SWAP3 SWAP2 POP POP JUMP JUMPDEST PUSH1 0x0 DUP2 SWAP1 POP SWAP2 SWAP1 POP JUMP JUMPDEST PUSH2 0x370 DUP2 PUSH2 0x35D JUMP JUMPDEST DUP2 EQ PUSH2 0x37B JUMPI PUSH1 0x0 DUP1 REVERT JUMPDEST POP JUMP JUMPDEST PUSH1 0x0 DUP2 CALLDATALOAD SWAP1 POP PUSH2 0x38D DUP2 PUSH2 0x367 JUMP JUMPDEST SWAP3 SWAP2 POP POP JUMP JUMPDEST PUSH1 0x0 DUP1 PUSH1 0x40 DUP4 DUP6 SUB SLT ISZERO PUSH2 0x3AA JUMPI PUSH2 0x3A9 PUSH2 0x2FA JUMP JUMPDEST JUMPDEST PUSH1 0x0 PUSH2 0x3B8 DUP6 DUP3 DUP7 ADD PUSH2 0x348 JUMP JUMPDEST SWAP3 POP POP PUSH1 0x20 PUSH2 0x3C9 DUP6 DUP3 DUP7 ADD PUSH2 0x37E JUMP JUMPDEST SWAP2 POP POP SWAP3 POP SWAP3 SWAP1 POP JUMP JUMPDEST PUSH2 0x3DC DUP2 PUSH2 0x31F JUMP JUMPDEST DUP3 MSTORE POP POP JUMP JUMPDEST PUSH1 0x0 PUSH1 0x20 DUP3 ADD SWAP1 POP PUSH2 0x3F7 PUSH1 0x0 DUP4 ADD DUP5 PUSH2 0x3D3 JUMP JUMPDEST SWAP3 SWAP2 POP POP JUMP JUMPDEST PUSH1 0x0 PUSH1 0x20 DUP3 DUP5 SUB SLT ISZERO PUSH2 0x413 JUMPI PUSH2 0x412 PUSH2 0x2FA JUMP JUMPDEST JUMPDEST PUSH1 0x0 PUSH2 0x421 DUP5 DUP3 DUP6 ADD PUSH2 0x348 JUMP JUMPDEST SWAP2 POP POP SWAP3 SWAP2 POP POP JUMP JUMPDEST PUSH1 0x0 DUP2 MLOAD SWAP1 POP SWAP2 SWAP1 POP JUMP JUMPDEST PUSH1 0x0 DUP3 DUP3 MSTORE PUSH1 0x20 DUP3 ADD SWAP1 POP SWAP3 SWAP2 POP POP JUMP JUMPDEST PUSH1 0x0 DUP2 SWAP1 POP PUSH1 0x20 DUP3 ADD SWAP1 POP SWAP2 SWAP1 POP JUMP JUMPDEST PUSH2 0x45F DUP2 PUSH2 0x31F JUMP JUMPDEST DUP3 MSTORE POP POP JUMP JUMPDEST PUSH1 0x0 PUSH2 0x471 DUP4 DUP4 PUSH2 0x456 JUMP JUMPDEST PUSH1 0x20 DUP4 ADD SWAP1 POP SWAP3 SWAP2 POP POP JUMP JUMPDEST PUSH1 0x0 PUSH1 0x20 DUP3 ADD SWAP1 POP SWAP2 SWAP1 POP JUMP JUMPDEST PUSH1 0x0 PUSH2 0x495 DUP3 PUSH2 0x42A JUMP JUMPDEST PUSH2 0x49F DUP2 DUP6 PUSH2 0x435 JUMP JUMPDEST SWAP4 POP PUSH2 0x4AA DUP4 PUSH2 0x446 JUMP JUMPDEST DUP1 PUSH1 0x0 JUMPDEST DUP4 DUP2 LT ISZERO PUSH2 0x4DB JUMPI DUP2 MLOAD PUSH2 0x4C2 DUP9 DUP3 PUSH2 0x465 JUMP JUMPDEST SWAP8 POP PUSH2 0x4CD DUP4 PUSH2 0x47D JUMP JUMPDEST SWAP3 POP POP PUSH1 0x1 DUP2 ADD SWAP1 POP PUSH2 0x4AE JUMP JUMPDEST POP DUP6 SWAP4 POP POP POP POP SWAP3 SWAP2 POP POP JUMP JUMPDEST PUSH1 0x0 PUSH1 0x20 DUP3 ADD SWAP1 POP DUP2 DUP2 SUB PUSH1 0x0 DUP4 ADD MSTORE PUSH2 0x502 DUP2 DUP5 PUSH2 0x48A JUMP JUMPDEST SWAP1 POP SWAP3 SWAP2 POP POP JUMP INVALID PUSH1 0x80 PUSH1 0x40 MSTORE CALLVALUE DUP1 ISZERO PUSH2 0x10 JUMPI PUSH1 0x0 DUP1 REVERT JUMPDEST POP PUSH2 0x21C1 DUP1 PUSH2 0x20 PUSH1 0x0 CODECOPY PUSH1 0x0 RETURN INVALID PUSH1 0x80 PUSH1 0x40 MSTORE CALLVALUE DUP1 ISZERO PUSH2 0x10 JUMPI PUSH1 0x0 DUP1 REVERT JUMPDEST POP PUSH1 0x4 CALLDATASIZE LT PUSH2 0x100 JUMPI PUSH1 0x0 CALLDATALOAD PUSH1 0xE0 SHR DUP1 PUSH4 0x7469B4A7 GT PUSH2 0x97 JUMPI DUP1 PUSH4 0xD45B311C GT PUSH2 0x66 JUMPI DUP1 PUSH4 0xD45B311C EQ PUSH2 0x2A0 JUMPI DUP1 PUSH4 0xEE8EBC81 EQ PUSH2 0x2BC JUMPI DUP1 PUSH4 0xEF430AA6 EQ PUSH2 0x2D8 JUMPI DUP1 PUSH4 0xF1DCEEF2 EQ PUSH2 0x2F6 JUMPI PUSH2 0x100 JUMP JUMPDEST DUP1 PUSH4 0x7469B4A7 EQ PUSH2 0x203 JUMPI DUP1 PUSH4 0x8622A689 EQ PUSH2 0x21F JUMPI DUP1 PUSH4 0xB13C744B EQ PUSH2 0x23D JUMPI DUP1 PUSH4 0xC5539CC2 EQ PUSH2 0x26D JUMPI PUSH2 0x100 JUMP JUMPDEST DUP1 PUSH4 0x2B7AC3F3 GT PUSH2 0xD3 JUMPI DUP1 PUSH4 0x2B7AC3F3 EQ PUSH2 0x18D JUMPI DUP1 PUSH4 0x30BE07AF EQ PUSH2 0x1AB JUMPI DUP1 PUSH4 0x5BCC58EA EQ PUSH2 0x1C7 JUMPI DUP1 PUSH4 0x7284E416 EQ PUSH2 0x1E5 JUMPI PUSH2 0x100 JUMP JUMPDEST DUP1 PUSH4 0x12FA6FEB EQ PUSH2 0x105 JUMPI DUP1 PUSH4 0x13EE4051 EQ PUSH2 0x123 JUMPI DUP1 PUSH4 0x1F2698AB EQ PUSH2 0x153 JUMPI DUP1 PUSH4 0x2142BDD0 EQ PUSH2 0x171 JUMPI JUMPDEST PUSH1 0x0 DUP1 REVERT JUMPDEST PUSH2 0x10D PUSH2 0x300 JUMP JUMPDEST PUSH1 0x40 MLOAD PUSH2 0x11A SWAP2 SWAP1 PUSH2 0x124B JUMP JUMPDEST PUSH1 0x40 MLOAD DUP1 SWAP2 SUB SWAP1 RETURN JUMPDEST PUSH2 0x13D PUSH1 0x4 DUP1 CALLDATASIZE SUB DUP2 ADD SWAP1 PUSH2 0x138 SWAP2 SWAP1 PUSH2 0x12B0 JUMP JUMPDEST PUSH2 0x311 JUMP JUMPDEST PUSH1 0x40 MLOAD PUSH2 0x14A SWAP2 SWAP1 PUSH2 0x124B JUMP JUMPDEST PUSH1 0x40 MLOAD DUP1 SWAP2 SUB SWAP1 RETURN JUMPDEST PUSH2 0x15B PUSH2 0x33E JUMP JUMPDEST PUSH1 0x40 MLOAD PUSH2 0x168 SWAP2 SWAP1 PUSH2 0x124B JUMP JUMPDEST PUSH1 0x40 MLOAD DUP1 SWAP2 SUB SWAP1 RETURN JUMPDEST PUSH2 0x18B PUSH1 0x4 DUP1 CALLDATASIZE SUB DUP2 ADD SWAP1 PUSH2 0x186 SWAP2 SWAP1 PUSH2 0x1313 JUMP JUMPDEST PUSH2 0x351 JUMP JUMPDEST STOP JUMPDEST PUSH2 0x195 PUSH2 0x408 JUMP JUMPDEST PUSH1 0x40 MLOAD PUSH2 0x1A2 SWAP2 SWAP1 PUSH2 0x1381 JUMP JUMPDEST PUSH1 0x40 MLOAD DUP1 SWAP2 SUB SWAP1 RETURN JUMPDEST PUSH2 0x1C5 PUSH1 0x4 DUP1 CALLDATASIZE SUB DUP2 ADD SWAP1 PUSH2 0x1C0 SWAP2 SWAP1 PUSH2 0x14E2 JUMP JUMPDEST PUSH2 0x42E JUMP JUMPDEST STOP JUMPDEST PUSH2 0x1CF PUSH2 0x47E JUMP JUMPDEST PUSH1 0x40 MLOAD PUSH2 0x1DC SWAP2 SWAP1 PUSH2 0x171B JUMP JUMPDEST PUSH1 0x40 MLOAD DUP1 SWAP2 SUB SWAP1 RETURN JUMPDEST PUSH2 0x1ED PUSH2 0x773 JUMP JUMPDEST PUSH1 0x40 MLOAD PUSH2 0x1FA SWAP2 SWAP1 PUSH2 0x1787 JUMP JUMPDEST PUSH1 0x40 MLOAD DUP1 SWAP2 SUB SWAP1 RETURN JUMPDEST PUSH2 0x21D PUSH1 0x4 DUP1 CALLDATASIZE SUB DUP2 ADD SWAP1 PUSH2 0x218 SWAP2 SWAP1 PUSH2 0x17A9 JUMP JUMPDEST PUSH2 0x801 JUMP JUMPDEST STOP JUMPDEST PUSH2 0x227 PUSH2 0x944 JUMP JUMPDEST PUSH1 0x40 MLOAD PUSH2 0x234 SWAP2 SWAP1 PUSH2 0x1814 JUMP JUMPDEST PUSH1 0x40 MLOAD DUP1 SWAP2 SUB SWAP1 RETURN JUMPDEST PUSH2 0x257 PUSH1 0x4 DUP1 CALLDATASIZE SUB DUP2 ADD SWAP1 PUSH2 0x252 SWAP2 SWAP1 PUSH2 0x1313 JUMP JUMPDEST PUSH2 0x94A JUMP JUMPDEST PUSH1 0x40 MLOAD PUSH2 0x264 SWAP2 SWAP1 PUSH2 0x1787 JUMP JUMPDEST PUSH1 0x40 MLOAD DUP1 SWAP2 SUB SWAP1 RETURN JUMPDEST PUSH2 0x287 PUSH1 0x4 DUP1 CALLDATASIZE SUB DUP2 ADD SWAP1 PUSH2 0x282 SWAP2 SWAP1 PUSH2 0x182F JUMP JUMPDEST PUSH2 0x9F6 JUMP JUMPDEST PUSH1 0x40 MLOAD PUSH2 0x297 SWAP5 SWAP4 SWAP3 SWAP2 SWAP1 PUSH2 0x1878 JUMP JUMPDEST PUSH1 0x40 MLOAD DUP1 SWAP2 SUB SWAP1 RETURN JUMPDEST PUSH2 0x2BA PUSH1 0x4 DUP1 CALLDATASIZE SUB DUP2 ADD SWAP1 PUSH2 0x2B5 SWAP2 SWAP1 PUSH2 0x1932 JUMP JUMPDEST PUSH2 0xBD4 JUMP JUMPDEST STOP JUMPDEST PUSH2 0x2D6 PUSH1 0x4 DUP1 CALLDATASIZE SUB DUP2 ADD SWAP1 PUSH2 0x2D1 SWAP2 SWAP1 PUSH2 0x12B0 JUMP JUMPDEST PUSH2 0xE27 JUMP JUMPDEST STOP JUMPDEST PUSH2 0x2E0 PUSH2 0xF34 JUMP JUMPDEST PUSH1 0x40 MLOAD PUSH2 0x2ED SWAP2 SWAP1 PUSH2 0x1787 JUMP JUMPDEST PUSH1 0x40 MLOAD DUP1 SWAP2 SUB SWAP1 RETURN JUMPDEST PUSH2 0x2FE PUSH2 0xFC2 JUMP JUMPDEST STOP JUMPDEST PUSH1 0x1 DUP1 SLOAD SWAP1 PUSH2 0x100 EXP SWAP1 DIV PUSH1 0xFF AND DUP2 JUMP JUMPDEST PUSH1 0x0 PUSH1 0x4 PUSH1 0x0 DUP4 DUP2 MSTORE PUSH1 0x20 ADD SWAP1 DUP2 MSTORE PUSH1 0x20 ADD PUSH1 0x0 KECCAK256 PUSH1 0x0 ADD PUSH1 0x1 SWAP1 SLOAD SWAP1 PUSH2 0x100 EXP SWAP1 DIV PUSH1 0xFF AND SWAP1 POP SWAP2 SWAP1 POP JUMP JUMPDEST PUSH1 0x1 PUSH1 0x0 SWAP1 SLOAD SWAP1 PUSH2 0x100 EXP SWAP1 DIV PUSH1 0xFF AND DUP2 JUMP JUMPDEST PUSH1 0x1 PUSH1 0x0 SWAP1 SLOAD SWAP1 PUSH2 0x100 EXP SWAP1 DIV PUSH1 0xFF AND ISZERO PUSH2 0x398 JUMPI PUSH1 0x40 MLOAD PUSH32 0x3B51A3E000000000000000000000000000000000000000000000000000000000 DUP2 MSTORE PUSH1 0x4 ADD PUSH1 0x40 MLOAD DUP1 SWAP2 SUB SWAP1 REVERT JUMPDEST PUSH1 0x3C DUP2 PUSH2 0x3A5 SWAP2 SWAP1 PUSH2 0x1A15 JUMP JUMPDEST TIMESTAMP PUSH2 0x3B0 SWAP2 SWAP1 PUSH2 0x1A57 JUMP JUMPDEST PUSH1 0x0 DUP2 SWAP1 SSTORE POP PUSH1 0x1 DUP1 PUSH1 0x0 PUSH2 0x100 EXP DUP2 SLOAD DUP2 PUSH1 0xFF MUL NOT AND SWAP1 DUP4 ISZERO ISZERO MUL OR SWAP1 SSTORE POP PUSH32 0x18C6A608F6BAF3A1B3D83912D37E7441A6219E6770604851FE47C24CC2D0115A PUSH1 0x40 MLOAD PUSH2 0x3FD SWAP1 PUSH2 0x1AD7 JUMP JUMPDEST PUSH1 0x40 MLOAD DUP1 SWAP2 SUB SWAP1 LOG1 POP JUMP JUMPDEST PUSH1 0x1 PUSH1 0x2 SWAP1 SLOAD SWAP1 PUSH2 0x100 EXP SWAP1 DIV PUSH20 0xFFFFFFFFFFFFFFFFFFFFFFFFFFFFFFFFFFFFFFFF AND DUP2 JUMP JUMPDEST DUP2 PUSH1 0x2 SWAP1 DUP2 PUSH2 0x43D SWAP2 SWAP1 PUSH2 0x1D03 JUMP JUMPDEST POP DUP1 PUSH1 0x3 SWAP1 DUP2 PUSH2 0x44D SWAP2 SWAP1 PUSH2 0x1D03 JUMP JUMPDEST POP PUSH32 0x79B3FF2BE1C88EF95D27ABDD511F598FDF951E5DB4A3240626DEFF68D46FD104 PUSH1 0x40 MLOAD PUSH1 0x40 MLOAD DUP1 SWAP2 SUB SWAP1 LOG1 POP POP JUMP JUMPDEST PUSH1 0x60 PUSH1 0x1 DUP1 SLOAD SWAP1 PUSH2 0x100 EXP SWAP1 DIV PUSH1 0xFF AND PUSH2 0x4CD JUMPI PUSH1 0x40 MLOAD PUSH32 0x1C8975CF00000000000000000000000000000000000000000000000000000000 DUP2 MSTORE PUSH1 0x4 ADD PUSH2 0x4C4 SWAP1 PUSH2 0x1E21 JUMP JUMPDEST PUSH1 0x40 MLOAD DUP1 SWAP2 SUB SWAP1 REVERT JUMPDEST PUSH1 0x0 PUSH1 0x6 DUP1 SLOAD SWAP1 POP PUSH8 0xFFFFFFFFFFFFFFFF DUP2 GT ISZERO PUSH2 0x4EE JUMPI PUSH2 0x4ED PUSH2 0x13B7 JUMP JUMPDEST JUMPDEST PUSH1 0x40 MLOAD SWAP1 DUP1 DUP3 MSTORE DUP1 PUSH1 0x20 MUL PUSH1 0x20 ADD DUP3 ADD PUSH1 0x40 MSTORE DUP1 ISZERO PUSH2 0x527 JUMPI DUP2 PUSH1 0x20 ADD JUMPDEST PUSH2 0x514 PUSH2 0x1208 JUMP JUMPDEST DUP2 MSTORE PUSH1 0x20 ADD SWAP1 PUSH1 0x1 SWAP1 SUB SWAP1 DUP2 PUSH2 0x50C JUMPI SWAP1 POP JUMPDEST POP SWAP1 POP PUSH1 0x0 JUMPDEST PUSH1 0x6 DUP1 SLOAD SWAP1 POP DUP2 LT ISZERO PUSH2 0x76B JUMPI PUSH1 0x5 PUSH1 0x6 DUP3 DUP2 SLOAD DUP2 LT PUSH2 0x550 JUMPI PUSH2 0x54F PUSH2 0x1E41 JUMP JUMPDEST JUMPDEST SWAP1 PUSH1 0x0 MSTORE PUSH1 0x20 PUSH1 0x0 KECCAK256 ADD PUSH1 0x40 MLOAD PUSH2 0x567 SWAP2 SWAP1 PUSH2 0x1EFE JUMP JUMPDEST SWAP1 DUP2 MSTORE PUSH1 0x20 ADD PUSH1 0x40 MLOAD DUP1 SWAP2 SUB SWAP1 KECCAK256 PUSH1 0x40 MLOAD DUP1 PUSH1 0x80 ADD PUSH1 0x40 MSTORE SWAP1 DUP2 PUSH1 0x0 DUP3 ADD DUP1 SLOAD PUSH2 0x590 SWAP1 PUSH2 0x1B26 JUMP JUMPDEST DUP1 PUSH1 0x1F ADD PUSH1 0x20 DUP1 SWAP2 DIV MUL PUSH1 0x20 ADD PUSH1 0x40 MLOAD SWAP1 DUP2 ADD PUSH1 0x40 MSTORE DUP1 SWAP3 SWAP2 SWAP1 DUP2 DUP2 MSTORE PUSH1 0x20 ADD DUP3 DUP1 SLOAD PUSH2 0x5BC SWAP1 PUSH2 0x1B26 JUMP JUMPDEST DUP1 ISZERO PUSH2 0x609 JUMPI DUP1 PUSH1 0x1F LT PUSH2 0x5DE JUMPI PUSH2 0x100 DUP1 DUP4 SLOAD DIV MUL DUP4 MSTORE SWAP2 PUSH1 0x20 ADD SWAP2 PUSH2 0x609 JUMP JUMPDEST DUP3 ADD SWAP2 SWAP1 PUSH1 0x0 MSTORE PUSH1 0x20 PUSH1 0x0 KECCAK256 SWAP1 JUMPDEST DUP2 SLOAD DUP2 MSTORE SWAP1 PUSH1 0x1 ADD SWAP1 PUSH1 0x20 ADD DUP1 DUP4 GT PUSH2 0x5EC JUMPI DUP3 SWAP1 SUB PUSH1 0x1F AND DUP3 ADD SWAP2 JUMPDEST POP POP POP POP POP DUP2 MSTORE PUSH1 0x20 ADD PUSH1 0x1 DUP3 ADD DUP1 SLOAD PUSH2 0x622 SWAP1 PUSH2 0x1B26 JUMP JUMPDEST DUP1 PUSH1 0x1F ADD PUSH1 0x20 DUP1 SWAP2 DIV MUL PUSH1 0x20 ADD PUSH1 0x40 MLOAD SWAP1 DUP2 ADD PUSH1 0x40 MSTORE DUP1 SWAP3 SWAP2 SWAP1 DUP2 DUP2 MSTORE PUSH1 0x20 ADD DUP3 DUP1 SLOAD PUSH2 0x64E SWAP1 PUSH2 0x1B26 JUMP JUMPDEST DUP1 ISZERO PUSH2 0x69B JUMPI DUP1 PUSH1 0x1F LT PUSH2 0x670 JUMPI PUSH2 0x100 DUP1 DUP4 SLOAD DIV MUL DUP4 MSTORE SWAP2 PUSH1 0x20 ADD SWAP2 PUSH2 0x69B JUMP JUMPDEST DUP3 ADD SWAP2 SWAP1 PUSH1 0x0 MSTORE PUSH1 0x20 PUSH1 0x0 KECCAK256 SWAP1 JUMPDEST DUP2 SLOAD DUP2 MSTORE SWAP1 PUSH1 0x1 ADD SWAP1 PUSH1 0x20 ADD DUP1 DUP4 GT PUSH2 0x67E JUMPI DUP3 SWAP1 SUB PUSH1 0x1F AND DUP3 ADD SWAP2 JUMPDEST POP POP POP POP POP DUP2 MSTORE PUSH1 0x20 ADD PUSH1 0x2 DUP3 ADD DUP1 SLOAD PUSH2 0x6B4 SWAP1 PUSH2 0x1B26 JUMP JUMPDEST DUP1 PUSH1 0x1F ADD PUSH1 0x20 DUP1 SWAP2 DIV MUL PUSH1 0x20 ADD PUSH1 0x40 MLOAD SWAP1 DUP2 ADD PUSH1 0x40 MSTORE DUP1 SWAP3 SWAP2 SWAP1 DUP2 DUP2 MSTORE PUSH1 0x20 ADD DUP3 DUP1 SLOAD PUSH2 0x6E0 SWAP1 PUSH2 0x1B26 JUMP JUMPDEST DUP1 ISZERO PUSH2 0x72D JUMPI DUP1 PUSH1 0x1F LT PUSH2 0x702 JUMPI PUSH2 0x100 DUP1 DUP4 SLOAD DIV MUL DUP4 MSTORE SWAP2 PUSH1 0x20 ADD SWAP2 PUSH2 0x72D JUMP JUMPDEST DUP3 ADD SWAP2 SWAP1 PUSH1 0x0 MSTORE PUSH1 0x20 PUSH1 0x0 KECCAK256 SWAP1 JUMPDEST DUP2 SLOAD DUP2 MSTORE SWAP1 PUSH1 0x1 ADD SWAP1 PUSH1 0x20 ADD DUP1 DUP4 GT PUSH2 0x710 JUMPI DUP3 SWAP1 SUB PUSH1 0x1F AND DUP3 ADD SWAP2 JUMPDEST POP POP POP POP POP DUP2 MSTORE PUSH1 0x20 ADD PUSH1 0x3 DUP3 ADD SLOAD DUP2 MSTORE POP POP DUP3 DUP3 DUP2 MLOAD DUP2 LT PUSH2 0x753 JUMPI PUSH2 0x752 PUSH2 0x1E41 JUMP JUMPDEST JUMPDEST PUSH1 0x20 MUL PUSH1 0x20 ADD ADD DUP2 SWAP1 MSTORE POP DUP1 DUP1 PUSH1 0x1 ADD SWAP2 POP POP PUSH2 0x52D JUMP JUMPDEST POP DUP1 SWAP2 POP POP SWAP1 JUMP JUMPDEST PUSH1 0x3 DUP1 SLOAD PUSH2 0x780 SWAP1 PUSH2 0x1B26 JUMP JUMPDEST DUP1 PUSH1 0x1F ADD PUSH1 0x20 DUP1 SWAP2 DIV MUL PUSH1 0x20 ADD PUSH1 0x40 MLOAD SWAP1 DUP2 ADD PUSH1 0x40 MSTORE DUP1 SWAP3 SWAP2 SWAP1 DUP2 DUP2 MSTORE PUSH1 0x20 ADD DUP3 DUP1 SLOAD PUSH2 0x7AC SWAP1 PUSH2 0x1B26 JUMP JUMPDEST DUP1 ISZERO PUSH2 0x7F9 JUMPI DUP1 PUSH1 0x1F LT PUSH2 0x7CE JUMPI PUSH2 0x100 DUP1 DUP4 SLOAD DIV MUL DUP4 MSTORE SWAP2 PUSH1 0x20 ADD SWAP2 PUSH2 0x7F9 JUMP JUMPDEST DUP3 ADD SWAP2 SWAP1 PUSH1 0x0 MSTORE PUSH1 0x20 PUSH1 0x0 KECCAK256 SWAP1 JUMPDEST DUP2 SLOAD DUP2 MSTORE SWAP1 PUSH1 0x1 ADD SWAP1 PUSH1 0x20 ADD DUP1 DUP4 GT PUSH2 0x7DC JUMPI DUP3 SWAP1 SUB PUSH1 0x1F AND DUP3 ADD SWAP2 JUMPDEST POP POP POP POP POP DUP2 JUMP JUMPDEST PUSH1 0x1 PUSH1 0x0 SWAP1 SLOAD SWAP1 PUSH2 0x100 EXP SWAP1 DIV PUSH1 0xFF AND PUSH2 0x847 JUMPI PUSH1 0x40 MLOAD PUSH32 0x6314FFC900000000000000000000000000000000000000000000000000000000 DUP2 MSTORE PUSH1 0x4 ADD PUSH1 0x40 MLOAD DUP1 SWAP2 SUB SWAP1 REVERT JUMPDEST PUSH1 0x4 PUSH1 0x0 DUP4 DUP2 MSTORE PUSH1 0x20 ADD SWAP1 DUP2 MSTORE PUSH1 0x20 ADD PUSH1 0x0 KECCAK256 PUSH1 0x0 ADD PUSH1 0x0 SWAP1 SLOAD SWAP1 PUSH2 0x100 EXP SWAP1 DIV PUSH1 0xFF AND ISZERO PUSH2 0x8A2 JUMPI PUSH1 0x40 MLOAD PUSH32 0x6173109400000000000000000000000000000000000000000000000000000000 DUP2 MSTORE PUSH1 0x4 ADD PUSH1 0x40 MLOAD DUP1 SWAP2 SUB SWAP1 REVERT JUMPDEST PUSH1 0x0 PUSH1 0x5 DUP3 PUSH1 0x40 MLOAD PUSH2 0x8B4 SWAP2 SWAP1 PUSH2 0x1F46 JUMP JUMPDEST SWAP1 DUP2 MSTORE PUSH1 0x20 ADD PUSH1 0x40 MLOAD DUP1 SWAP2 SUB SWAP1 KECCAK256 PUSH1 0x0 ADD DUP1 SLOAD PUSH2 0x8D0 SWAP1 PUSH2 0x1B26 JUMP JUMPDEST SWAP1 POP SUB PUSH2 0x909 JUMPI PUSH1 0x40 MLOAD PUSH32 0x6EAADB4200000000000000000000000000000000000000000000000000000000 DUP2 MSTORE PUSH1 0x4 ADD PUSH1 0x40 MLOAD DUP1 SWAP2 SUB SWAP1 REVERT JUMPDEST PUSH2 0x913 DUP3 DUP3 PUSH2 0x10DA JUMP JUMPDEST DUP2 PUSH32 0x3640EEEFFDB1307D3C0017A75ED51F76D569B685CCB7074F10A0BD92F96DDF22 PUSH1 0x40 MLOAD PUSH1 0x40 MLOAD DUP1 SWAP2 SUB SWAP1 LOG2 POP POP JUMP JUMPDEST PUSH1 0x0 SLOAD DUP2 JUMP JUMPDEST PUSH1 0x6 DUP2 DUP2 SLOAD DUP2 LT PUSH2 0x95A JUMPI PUSH1 0x0 DUP1 REVERT JUMPDEST SWAP1 PUSH1 0x0 MSTORE PUSH1 0x20 PUSH1 0x0 KECCAK256 ADD PUSH1 0x0 SWAP2 POP SWAP1 POP DUP1 SLOAD PUSH2 0x975 SWAP1 PUSH2 0x1B26 JUMP JUMPDEST DUP1 PUSH1 0x1F ADD PUSH1 0x20 DUP1 SWAP2 DIV MUL PUSH1 0x20 ADD PUSH1 0x40 MLOAD SWAP1 DUP2 ADD PUSH1 0x40 MSTORE DUP1 SWAP3 SWAP2 SWAP1 DUP2 DUP2 MSTORE PUSH1 0x20 ADD DUP3 DUP1 SLOAD PUSH2 0x9A1 SWAP1 PUSH2 0x1B26 JUMP JUMPDEST DUP1 ISZERO PUSH2 0x9EE JUMPI DUP1 PUSH1 0x1F LT PUSH2 0x9C3 JUMPI PUSH2 0x100 DUP1 DUP4 SLOAD DIV MUL DUP4 MSTORE SWAP2 PUSH1 0x20 ADD SWAP2 PUSH2 0x9EE JUMP JUMPDEST DUP3 ADD SWAP2 SWAP1 PUSH1 0x0 MSTORE PUSH1 0x20 PUSH1 0x0 KECCAK256 SWAP1 JUMPDEST DUP2 SLOAD DUP2 MSTORE SWAP1 PUSH1 0x1 ADD SWAP1 PUSH1 0x20 ADD DUP1 DUP4 GT PUSH2 0x9D1 JUMPI DUP3 SWAP1 SUB PUSH1 0x1F AND DUP3 ADD SWAP2 JUMPDEST POP POP POP POP POP DUP2 JUMP JUMPDEST PUSH1 0x5 DUP2 DUP1 MLOAD PUSH1 0x20 DUP2 ADD DUP3 ADD DUP1 MLOAD DUP5 DUP3 MSTORE PUSH1 0x20 DUP4 ADD PUSH1 0x20 DUP6 ADD KECCAK256 DUP2 DUP4 MSTORE DUP1 SWAP6 POP POP POP POP POP POP PUSH1 0x0 SWAP2 POP SWAP1 POP DUP1 PUSH1 0x0 ADD DUP1 SLOAD PUSH2 0xA2F SWAP1 PUSH2 0x1B26 JUMP JUMPDEST DUP1 PUSH1 0x1F ADD PUSH1 0x20 DUP1 SWAP2 DIV MUL PUSH1 0x20 ADD PUSH1 0x40 MLOAD SWAP1 DUP2 ADD PUSH1 0x40 MSTORE DUP1 SWAP3 SWAP2 SWAP1 DUP2 DUP2 MSTORE PUSH1 0x20 ADD DUP3 DUP1 SLOAD PUSH2 0xA5B SWAP1 PUSH2 0x1B26 JUMP JUMPDEST DUP1 ISZERO PUSH2 0xAA8 JUMPI DUP1 PUSH1 0x1F LT PUSH2 0xA7D JUMPI PUSH2 0x100 DUP1 DUP4 SLOAD DIV MUL DUP4 MSTORE SWAP2 PUSH1 0x20 ADD SWAP2 PUSH2 0xAA8 JUMP JUMPDEST DUP3 ADD SWAP2 SWAP1 PUSH1 0x0 MSTORE PUSH1 0x20 PUSH1 0x0 KECCAK256 SWAP1 JUMPDEST DUP2 SLOAD DUP2 MSTORE SWAP1 PUSH1 0x1 ADD SWAP1 PUSH1 0x20 ADD DUP1 DUP4 GT PUSH2 0xA8B JUMPI DUP3 SWAP1 SUB PUSH1 0x1F AND DUP3 ADD SWAP2 JUMPDEST POP POP POP POP POP SWAP1 DUP1 PUSH1 0x1 ADD DUP1 SLOAD PUSH2 0xABD SWAP1 PUSH2 0x1B26 JUMP JUMPDEST DUP1 PUSH1 0x1F ADD PUSH1 0x20 DUP1 SWAP2 DIV MUL PUSH1 0x20 ADD PUSH1 0x40 MLOAD SWAP1 DUP2 ADD PUSH1 0x40 MSTORE DUP1 SWAP3 SWAP2 SWAP1 DUP2 DUP2 MSTORE PUSH1 0x20 ADD DUP3 DUP1 SLOAD PUSH2 0xAE9 SWAP1 PUSH2 0x1B26 JUMP JUMPDEST DUP1 ISZERO PUSH2 0xB36 JUMPI DUP1 PUSH1 0x1F LT PUSH2 0xB0B JUMPI PUSH2 0x100 DUP1 DUP4 SLOAD DIV MUL DUP4 MSTORE SWAP2 PUSH1 0x20 ADD SWAP2 PUSH2 0xB36 JUMP JUMPDEST DUP3 ADD SWAP2 SWAP1 PUSH1 0x0 MSTORE PUSH1 0x20 PUSH1 0x0 KECCAK256 SWAP1 JUMPDEST DUP2 SLOAD DUP2 MSTORE SWAP1 PUSH1 0x1 ADD SWAP1 PUSH1 0x20 ADD DUP1 DUP4 GT PUSH2 0xB19 JUMPI DUP3 SWAP1 SUB PUSH1 0x1F AND DUP3 ADD SWAP2 JUMPDEST POP POP POP POP POP SWAP1 DUP1 PUSH1 0x2 ADD DUP1 SLOAD PUSH2 0xB4B SWAP1 PUSH2 0x1B26 JUMP JUMPDEST DUP1 PUSH1 0x1F ADD PUSH1 0x20 DUP1 SWAP2 DIV MUL PUSH1 0x20 ADD PUSH1 0x40 MLOAD SWAP1 DUP2 ADD PUSH1 0x40 MSTORE DUP1 SWAP3 SWAP2 SWAP1 DUP2 DUP2 MSTORE PUSH1 0x20 ADD DUP3 DUP1 SLOAD PUSH2 0xB77 SWAP1 PUSH2 0x1B26 JUMP JUMPDEST DUP1 ISZERO PUSH2 0xBC4 JUMPI DUP1 PUSH1 0x1F LT PUSH2 0xB99 JUMPI PUSH2 0x100 DUP1 DUP4 SLOAD DIV MUL DUP4 MSTORE SWAP2 PUSH1 0x20 ADD SWAP2 PUSH2 0xBC4 JUMP JUMPDEST DUP3 ADD SWAP2 SWAP1 PUSH1 0x0 MSTORE PUSH1 0x20 PUSH1 0x0 KECCAK256 SWAP1 JUMPDEST DUP2 SLOAD DUP2 MSTORE SWAP1 PUSH1 0x1 ADD SWAP1 PUSH1 0x20 ADD DUP1 DUP4 GT PUSH2 0xBA7 JUMPI DUP3 SWAP1 SUB PUSH1 0x1F AND DUP3 ADD SWAP2 JUMPDEST POP POP POP POP POP SWAP1 DUP1 PUSH1 0x3 ADD SLOAD SWAP1 POP DUP5 JUMP JUMPDEST PUSH1 0x0 PUSH1 0x5 DUP6 DUP6 PUSH1 0x40 MLOAD PUSH2 0xBE8 SWAP3 SWAP2 SWAP1 PUSH2 0x1F82 JUMP JUMPDEST SWAP1 DUP2 MSTORE PUSH1 0x20 ADD PUSH1 0x40 MLOAD DUP1 SWAP2 SUB SWAP1 KECCAK256 PUSH1 0x0 ADD DUP1 SLOAD PUSH2 0xC04 SWAP1 PUSH2 0x1B26 JUMP JUMPDEST SWAP1 POP EQ PUSH2 0xC3D JUMPI PUSH1 0x40 MLOAD PUSH32 0x507F223100000000000000000000000000000000000000000000000000000000 DUP2 MSTORE PUSH1 0x4 ADD PUSH1 0x40 MLOAD DUP1 SWAP2 SUB SWAP1 REVERT JUMPDEST PUSH1 0x0 PUSH1 0x40 MLOAD DUP1 PUSH1 0x80 ADD PUSH1 0x40 MSTORE DUP1 DUP9 DUP9 DUP1 DUP1 PUSH1 0x1F ADD PUSH1 0x20 DUP1 SWAP2 DIV MUL PUSH1 0x20 ADD PUSH1 0x40 MLOAD SWAP1 DUP2 ADD PUSH1 0x40 MSTORE DUP1 SWAP4 SWAP3 SWAP2 SWAP1 DUP2 DUP2 MSTORE PUSH1 0x20 ADD DUP4 DUP4 DUP1 DUP3 DUP5 CALLDATACOPY PUSH1 0x0 DUP2 DUP5 ADD MSTORE PUSH1 0x1F NOT PUSH1 0x1F DUP3 ADD AND SWAP1 POP DUP1 DUP4 ADD SWAP3 POP POP POP POP POP POP POP DUP2 MSTORE PUSH1 0x20 ADD DUP7 DUP7 DUP1 DUP1 PUSH1 0x1F ADD PUSH1 0x20 DUP1 SWAP2 DIV MUL PUSH1 0x20 ADD PUSH1 0x40 MLOAD SWAP1 DUP2 ADD PUSH1 0x40 MSTORE DUP1 SWAP4 SWAP3 SWAP2 SWAP1 DUP2 DUP2 MSTORE PUSH1 0x20 ADD DUP4 DUP4 DUP1 DUP3 DUP5 CALLDATACOPY PUSH1 0x0 DUP2 DUP5 ADD MSTORE PUSH1 0x1F NOT PUSH1 0x1F DUP3 ADD AND SWAP1 POP DUP1 DUP4 ADD SWAP3 POP POP POP POP POP POP POP DUP2 MSTORE PUSH1 0x20 ADD DUP5 DUP5 DUP1 DUP1 PUSH1 0x1F ADD PUSH1 0x20 DUP1 SWAP2 DIV MUL PUSH1 0x20 ADD PUSH1 0x40 MLOAD SWAP1 DUP2 ADD PUSH1 0x40 MSTORE DUP1 SWAP4 SWAP3 SWAP2 SWAP1 DUP2 DUP2 MSTORE PUSH1 0x20 ADD DUP4 DUP4 DUP1 DUP3 DUP5 CALLDATACOPY PUSH1 0x0 DUP2 DUP5 ADD MSTORE PUSH1 0x1F NOT PUSH1 0x1F DUP3 ADD AND SWAP1 POP DUP1 DUP4 ADD SWAP3 POP POP POP POP POP POP POP DUP2 MSTORE PUSH1 0x20 ADD PUSH1 0x0 DUP2 MSTORE POP SWAP1 POP DUP1 PUSH1 0x5 DUP7 DUP7 PUSH1 0x40 MLOAD PUSH2 0xD42 SWAP3 SWAP2 SWAP1 PUSH2 0x1F82 JUMP JUMPDEST SWAP1 DUP2 MSTORE PUSH1 0x20 ADD PUSH1 0x40 MLOAD DUP1 SWAP2 SUB SWAP1 KECCAK256 PUSH1 0x0 DUP3 ADD MLOAD DUP2 PUSH1 0x0 ADD SWAP1 DUP2 PUSH2 0xD65 SWAP2 SWAP1 PUSH2 0x1D03 JUMP JUMPDEST POP PUSH1 0x20 DUP3 ADD MLOAD DUP2 PUSH1 0x1 ADD SWAP1 DUP2 PUSH2 0xD7B SWAP2 SWAP1 PUSH2 0x1D03 JUMP JUMPDEST POP PUSH1 0x40 DUP3 ADD MLOAD DUP2 PUSH1 0x2 ADD SWAP1 DUP2 PUSH2 0xD91 SWAP2 SWAP1 PUSH2 0x1D03 JUMP JUMPDEST POP PUSH1 0x60 DUP3 ADD MLOAD DUP2 PUSH1 0x3 ADD SSTORE SWAP1 POP POP PUSH1 0x6 DUP6 DUP6 SWAP1 SWAP2 DUP1 PUSH1 0x1 DUP2 SLOAD ADD DUP1 DUP3 SSTORE DUP1 SWAP2 POP POP PUSH1 0x1 SWAP1 SUB SWAP1 PUSH1 0x0 MSTORE PUSH1 0x20 PUSH1 0x0 KECCAK256 ADD PUSH1 0x0 SWAP1 SWAP2 SWAP3 SWAP1 SWAP2 SWAP3 SWAP1 SWAP2 SWAP3 SWAP1 SWAP2 SWAP3 POP SWAP2 DUP3 PUSH2 0xDDC SWAP3 SWAP2 SWAP1 PUSH2 0x1FA6 JUMP JUMPDEST POP PUSH32 0xA620E116E8168F7281127A47AC04518B6FBD8B07CD150397E6E3E56127CE48CF DUP8 DUP8 DUP8 DUP8 DUP8 DUP8 PUSH1 0x40 MLOAD PUSH2 0xE16 SWAP7 SWAP6 SWAP5 SWAP4 SWAP3 SWAP2 SWAP1 PUSH2 0x20A3 JUMP JUMPDEST PUSH1 0x40 MLOAD DUP1 SWAP2 SUB SWAP1 LOG1 POP POP POP POP POP POP POP JUMP JUMPDEST PUSH1 0x4 PUSH1 0x0 DUP3 DUP2 MSTORE PUSH1 0x20 ADD SWAP1 DUP2 MSTORE PUSH1 0x20 ADD PUSH1 0x0 KECCAK256 PUSH1 0x0 ADD PUSH1 0x1 SWAP1 SLOAD SWAP1 PUSH2 0x100 EXP SWAP1 DIV PUSH1 0xFF AND ISZERO PUSH2 0xE8D JUMPI DUP1 PUSH1 0x40 MLOAD PUSH32 0x978F59CF00000000000000000000000000000000000000000000000000000000 DUP2 MSTORE PUSH1 0x4 ADD PUSH2 0xE84 SWAP2 SWAP1 PUSH2 0x2104 JUMP JUMPDEST PUSH1 0x40 MLOAD DUP1 SWAP2 SUB SWAP1 REVERT JUMPDEST PUSH1 0x0 PUSH1 0x40 MLOAD DUP1 PUSH1 0x40 ADD PUSH1 0x40 MSTORE DUP1 PUSH1 0x0 ISZERO ISZERO DUP2 MSTORE PUSH1 0x20 ADD PUSH1 0x1 ISZERO ISZERO DUP2 MSTORE POP SWAP1 POP DUP1 PUSH1 0x4 PUSH1 0x0 DUP5 DUP2 MSTORE PUSH1 0x20 ADD SWAP1 DUP2 MSTORE PUSH1 0x20 ADD PUSH1 0x0 KECCAK256 PUSH1 0x0 DUP3 ADD MLOAD DUP2 PUSH1 0x0 ADD PUSH1 0x0 PUSH2 0x100 EXP DUP2 SLOAD DUP2 PUSH1 0xFF MUL NOT AND SWAP1 DUP4 ISZERO ISZERO MUL OR SWAP1 SSTORE POP PUSH1 0x20 DUP3 ADD MLOAD DUP2 PUSH1 0x0 ADD PUSH1 0x1 PUSH2 0x100 EXP DUP2 SLOAD DUP2 PUSH1 0xFF MUL NOT AND SWAP1 DUP4 ISZERO ISZERO MUL OR SWAP1 SSTORE POP SWAP1 POP POP DUP2 PUSH32 0x18EDFFD1022A6C8A5C2FB84945056621AAD34F1172F8048B9F0B788BF2535628 PUSH1 0x40 MLOAD PUSH1 0x40 MLOAD DUP1 SWAP2 SUB SWAP1 LOG2 POP POP JUMP JUMPDEST PUSH1 0x2 DUP1 SLOAD PUSH2 0xF41 SWAP1 PUSH2 0x1B26 JUMP JUMPDEST DUP1 PUSH1 0x1F ADD PUSH1 0x20 DUP1 SWAP2 DIV MUL PUSH1 0x20 ADD PUSH1 0x40 MLOAD SWAP1 DUP2 ADD PUSH1 0x40 MSTORE DUP1 SWAP3 SWAP2 SWAP1 DUP2 DUP2 MSTORE PUSH1 0x20 ADD DUP3 DUP1 SLOAD PUSH2 0xF6D SWAP1 PUSH2 0x1B26 JUMP JUMPDEST DUP1 ISZERO PUSH2 0xFBA JUMPI DUP1 PUSH1 0x1F LT PUSH2 0xF8F JUMPI PUSH2 0x100 DUP1 DUP4 SLOAD DIV MUL DUP4 MSTORE SWAP2 PUSH1 0x20 ADD SWAP2 PUSH2 0xFBA JUMP JUMPDEST DUP3 ADD SWAP2 SWAP1 PUSH1 0x0 MSTORE PUSH1 0x20 PUSH1 0x0 KECCAK256 SWAP1 JUMPDEST DUP2 SLOAD DUP2 MSTORE SWAP1 PUSH1 0x1 ADD SWAP1 PUSH1 0x20 ADD DUP1 DUP4 GT PUSH2 0xF9D JUMPI DUP3 SWAP1 SUB PUSH1 0x1F AND DUP3 ADD SWAP2 JUMPDEST POP POP POP POP POP DUP2 JUMP JUMPDEST PUSH1 0x1 PUSH1 0x0 SWAP1 SLOAD SWAP1 PUSH2 0x100 EXP SWAP1 DIV PUSH1 0xFF AND PUSH2 0x1008 JUMPI PUSH1 0x40 MLOAD PUSH32 0x6314FFC900000000000000000000000000000000000000000000000000000000 DUP2 MSTORE PUSH1 0x4 ADD PUSH1 0x40 MLOAD DUP1 SWAP2 SUB SWAP1 REVERT JUMPDEST PUSH1 0x0 SLOAD TIMESTAMP LT ISZERO PUSH2 0x1044 JUMPI PUSH1 0x40 MLOAD PUSH32 0xD468151F00000000000000000000000000000000000000000000000000000000 DUP2 MSTORE PUSH1 0x4 ADD PUSH1 0x40 MLOAD DUP1 SWAP2 SUB SWAP1 REVERT JUMPDEST PUSH1 0x1 DUP1 SLOAD SWAP1 PUSH2 0x100 EXP SWAP1 DIV PUSH1 0xFF AND ISZERO PUSH2 0x1089 JUMPI PUSH1 0x40 MLOAD PUSH32 0x181FF59A00000000000000000000000000000000000000000000000000000000 DUP2 MSTORE PUSH1 0x4 ADD PUSH1 0x40 MLOAD DUP1 SWAP2 SUB SWAP1 REVERT JUMPDEST PUSH1 0x1 DUP1 PUSH1 0x1 PUSH2 0x100 EXP DUP2 SLOAD DUP2 PUSH1 0xFF MUL NOT AND SWAP1 DUP4 ISZERO ISZERO MUL OR SWAP1 SSTORE POP PUSH32 0x74E0B2978C99CA20B757F0F8B458FC435F508EA64C542132A673E898B96F535D PUSH1 0x40 MLOAD PUSH2 0x10D0 SWAP1 PUSH2 0x216B JUMP JUMPDEST PUSH1 0x40 MLOAD DUP1 SWAP2 SUB SWAP1 LOG1 JUMP JUMPDEST PUSH1 0x0 PUSH1 0x5 DUP3 PUSH1 0x40 MLOAD PUSH2 0x10EC SWAP2 SWAP1 PUSH2 0x1F46 JUMP JUMPDEST SWAP1 DUP2 MSTORE PUSH1 0x20 ADD PUSH1 0x40 MLOAD DUP1 SWAP2 SUB SWAP1 KECCAK256 PUSH1 0x0 ADD DUP1 SLOAD PUSH2 0x1108 SWAP1 PUSH2 0x1B26 JUMP JUMPDEST SWAP1 POP SUB PUSH2 0x1141 JUMPI PUSH1 0x40 MLOAD PUSH32 0x6EAADB4200000000000000000000000000000000000000000000000000000000 DUP2 MSTORE PUSH1 0x4 ADD PUSH1 0x40 MLOAD DUP1 SWAP2 SUB SWAP1 REVERT JUMPDEST PUSH1 0x4 PUSH1 0x0 DUP4 DUP2 MSTORE PUSH1 0x20 ADD SWAP1 DUP2 MSTORE PUSH1 0x20 ADD PUSH1 0x0 KECCAK256 PUSH1 0x0 ADD PUSH1 0x0 SWAP1 SLOAD SWAP1 PUSH2 0x100 EXP SWAP1 DIV PUSH1 0xFF AND ISZERO PUSH2 0x119C JUMPI PUSH1 0x40 MLOAD PUSH32 0x6173109400000000000000000000000000000000000000000000000000000000 DUP2 MSTORE PUSH1 0x4 ADD PUSH1 0x40 MLOAD DUP1 SWAP2 SUB SWAP1 REVERT JUMPDEST PUSH1 0x1 PUSH1 0x4 PUSH1 0x0 DUP5 DUP2 MSTORE PUSH1 0x20 ADD SWAP1 DUP2 MSTORE PUSH1 0x20 ADD PUSH1 0x0 KECCAK256 PUSH1 0x0 ADD PUSH1 0x0 PUSH2 0x100 EXP DUP2 SLOAD DUP2 PUSH1 0xFF MUL NOT AND SWAP1 DUP4 ISZERO ISZERO MUL OR SWAP1 SSTORE POP PUSH1 0x1 PUSH1 0x5 DUP3 PUSH1 0x40 MLOAD PUSH2 0x11DD SWAP2 SWAP1 PUSH2 0x1F46 JUMP JUMPDEST SWAP1 DUP2 MSTORE PUSH1 0x20 ADD PUSH1 0x40 MLOAD DUP1 SWAP2 SUB SWAP1 KECCAK256 PUSH1 0x3 ADD PUSH1 0x0 DUP3 DUP3 SLOAD PUSH2 0x11FD SWAP2 SWAP1 PUSH2 0x1A57 JUMP JUMPDEST SWAP3 POP POP DUP2 SWAP1 SSTORE POP POP POP JUMP JUMPDEST PUSH1 0x40 MLOAD DUP1 PUSH1 0x80 ADD PUSH1 0x40 MSTORE DUP1 PUSH1 0x60 DUP2 MSTORE PUSH1 0x20 ADD PUSH1 0x60 DUP2 MSTORE PUSH1 0x20 ADD PUSH1 0x60 DUP2 MSTORE PUSH1 0x20 ADD PUSH1 0x0 DUP2 MSTORE POP SWAP1 JUMP JUMPDEST PUSH1 0x0 DUP2 ISZERO ISZERO SWAP1 POP SWAP2 SWAP1 POP JUMP JUMPDEST PUSH2 0x1245 DUP2 PUSH2 0x1230 JUMP JUMPDEST DUP3 MSTORE POP POP JUMP JUMPDEST PUSH1 0x0 PUSH1 0x20 DUP3 ADD SWAP1 POP PUSH2 0x1260 PUSH1 0x0 DUP4 ADD DUP5 PUSH2 0x123C JUMP JUMPDEST SWAP3 SWAP2 POP POP JUMP JUMPDEST PUSH1 0x0 PUSH1 0x40 MLOAD SWAP1 POP SWAP1 JUMP JUMPDEST PUSH1 0x0 DUP1 REVERT JUMPDEST PUSH1 0x0 DUP1 REVERT JUMPDEST PUSH1 0x0 DUP2 SWAP1 POP SWAP2 SWAP1 POP JUMP JUMPDEST PUSH2 0x128D DUP2 PUSH2 0x127A JUMP JUMPDEST DUP2 EQ PUSH2 0x1298 JUMPI PUSH1 0x0 DUP1 REVERT JUMPDEST POP JUMP JUMPDEST PUSH1 0x0 DUP2 CALLDATALOAD SWAP1 POP PUSH2 0x12AA DUP2 PUSH2 0x1284 JUMP JUMPDEST SWAP3 SWAP2 POP POP JUMP JUMPDEST PUSH1 0x0 PUSH1 0x20 DUP3 DUP5 SUB SLT ISZERO PUSH2 0x12C6 JUMPI PUSH2 0x12C5 PUSH2 0x1270 JUMP JUMPDEST JUMPDEST PUSH1 0x0 PUSH2 0x12D4 DUP5 DUP3 DUP6 ADD PUSH2 0x129B JUMP JUMPDEST SWAP2 POP POP SWAP3 SWAP2 POP POP JUMP JUMPDEST PUSH1 0x0 DUP2 SWAP1 POP SWAP2 SWAP1 POP JUMP JUMPDEST PUSH2 0x12F0 DUP2 PUSH2 0x12DD JUMP JUMPDEST DUP2 EQ PUSH2 0x12FB JUMPI PUSH1 0x0 DUP1 REVERT JUMPDEST POP JUMP JUMPDEST PUSH1 0x0 DUP2 CALLDATALOAD SWAP1 POP PUSH2 0x130D DUP2 PUSH2 0x12E7 JUMP JUMPDEST SWAP3 SWAP2 POP POP JUMP JUMPDEST PUSH1 0x0 PUSH1 0x20 DUP3 DUP5 SUB SLT ISZERO PUSH2 0x1329 JUMPI PUSH2 0x1328 PUSH2 0x1270 JUMP JUMPDEST JUMPDEST PUSH1 0x0 PUSH2 0x1337 DUP5 DUP3 DUP6 ADD PUSH2 0x12FE JUMP JUMPDEST SWAP2 POP POP SWAP3 SWAP2 POP POP JUMP JUMPDEST PUSH1 0x0 PUSH20 0xFFFFFFFFFFFFFFFFFFFFFFFFFFFFFFFFFFFFFFFF DUP3 AND SWAP1 POP SWAP2 SWAP1 POP JUMP JUMPDEST PUSH1 0x0 PUSH2 0x136B DUP3 PUSH2 0x1340 JUMP JUMPDEST SWAP1 POP SWAP2 SWAP1 POP JUMP JUMPDEST PUSH2 0x137B DUP2 PUSH2 0x1360 JUMP JUMPDEST DUP3 MSTORE POP POP JUMP JUMPDEST PUSH1 0x0 PUSH1 0x20 DUP3 ADD SWAP1 POP PUSH2 0x1396 PUSH1 0x0 DUP4 ADD DUP5 PUSH2 0x1372 JUMP JUMPDEST SWAP3 SWAP2 POP POP JUMP JUMPDEST PUSH1 0x0 DUP1 REVERT JUMPDEST PUSH1 0x0 DUP1 REVERT JUMPDEST PUSH1 0x0 PUSH1 0x1F NOT PUSH1 0x1F DUP4 ADD AND SWAP1 POP SWAP2 SWAP1 POP JUMP JUMPDEST PUSH32 0x4E487B7100000000000000000000000000000000000000000000000000000000 PUSH1 0x0 MSTORE PUSH1 0x41 PUSH1 0x4 MSTORE PUSH1 0x24 PUSH1 0x0 REVERT JUMPDEST PUSH2 0x13EF DUP3 PUSH2 0x13A6 JUMP JUMPDEST DUP2 ADD DUP2 DUP2 LT PUSH8 0xFFFFFFFFFFFFFFFF DUP3 GT OR ISZERO PUSH2 0x140E JUMPI PUSH2 0x140D PUSH2 0x13B7 JUMP JUMPDEST JUMPDEST DUP1 PUSH1 0x40 MSTORE POP POP POP JUMP JUMPDEST PUSH1 0x0 PUSH2 0x1421 PUSH2 0x1266 JUMP JUMPDEST SWAP1 POP PUSH2 0x142D DUP3 DUP3 PUSH2 0x13E6 JUMP JUMPDEST SWAP2 SWAP1 POP JUMP JUMPDEST PUSH1 0x0 PUSH8 0xFFFFFFFFFFFFFFFF DUP3 GT ISZERO PUSH2 0x144D JUMPI PUSH2 0x144C PUSH2 0x13B7 JUMP JUMPDEST JUMPDEST PUSH2 0x1456 DUP3 PUSH2 0x13A6 JUMP JUMPDEST SWAP1 POP PUSH1 0x20 DUP2 ADD SWAP1 POP SWAP2 SWAP1 POP JUMP JUMPDEST DUP3 DUP2 DUP4 CALLDATACOPY PUSH1 0x0 DUP4 DUP4 ADD MSTORE POP POP POP JUMP JUMPDEST PUSH1 0x0 PUSH2 0x1485 PUSH2 0x1480 DUP5 PUSH2 0x1432 JUMP JUMPDEST PUSH2 0x1417 JUMP JUMPDEST SWAP1 POP DUP3 DUP2 MSTORE PUSH1 0x20 DUP2 ADD DUP5 DUP5 DUP5 ADD GT ISZERO PUSH2 0x14A1 JUMPI PUSH2 0x14A0 PUSH2 0x13A1 JUMP JUMPDEST JUMPDEST PUSH2 0x14AC DUP5 DUP3 DUP6 PUSH2 0x1463 JUMP JUMPDEST POP SWAP4 SWAP3 POP POP POP JUMP JUMPDEST PUSH1 0x0 DUP3 PUSH1 0x1F DUP4 ADD SLT PUSH2 0x14C9 JUMPI PUSH2 0x14C8 PUSH2 0x139C JUMP JUMPDEST JUMPDEST DUP2 CALLDATALOAD PUSH2 0x14D9 DUP5 DUP3 PUSH1 0x20 DUP7 ADD PUSH2 0x1472 JUMP JUMPDEST SWAP2 POP POP SWAP3 SWAP2 POP POP JUMP JUMPDEST PUSH1 0x0 DUP1 PUSH1 0x40 DUP4 DUP6 SUB SLT ISZERO PUSH2 0x14F9 JUMPI PUSH2 0x14F8 PUSH2 0x1270 JUMP JUMPDEST JUMPDEST PUSH1 0x0 DUP4 ADD CALLDATALOAD PUSH8 0xFFFFFFFFFFFFFFFF DUP2 GT ISZERO PUSH2 0x1517 JUMPI PUSH2 0x1516 PUSH2 0x1275 JUMP JUMPDEST JUMPDEST PUSH2 0x1523 DUP6 DUP3 DUP7 ADD PUSH2 0x14B4 JUMP JUMPDEST SWAP3 POP POP PUSH1 0x20 DUP4 ADD CALLDATALOAD PUSH8 0xFFFFFFFFFFFFFFFF DUP2 GT ISZERO PUSH2 0x1544 JUMPI PUSH2 0x1543 PUSH2 0x1275 JUMP JUMPDEST JUMPDEST PUSH2 0x1550 DUP6 DUP3 DUP7 ADD PUSH2 0x14B4 JUMP JUMPDEST SWAP2 POP POP SWAP3 POP SWAP3 SWAP1 POP JUMP JUMPDEST PUSH1 0x0 DUP2 MLOAD SWAP1 POP SWAP2 SWAP1 POP JUMP JUMPDEST PUSH1 0x0 DUP3 DUP3 MSTORE PUSH1 0x20 DUP3 ADD SWAP1 POP SWAP3 SWAP2 POP POP JUMP JUMPDEST PUSH1 0x0 DUP2 SWAP1 POP PUSH1 0x20 DUP3 ADD SWAP1 POP SWAP2 SWAP1 POP JUMP JUMPDEST PUSH1 0x0 DUP2 MLOAD SWAP1 POP SWAP2 SWAP1 POP JUMP JUMPDEST PUSH1 0x0 DUP3 DUP3 MSTORE PUSH1 0x20 DUP3 ADD SWAP1 POP SWAP3 SWAP2 POP POP JUMP JUMPDEST PUSH1 0x0 JUMPDEST DUP4 DUP2 LT ISZERO PUSH2 0x15C0 JUMPI DUP1 DUP3 ADD MLOAD DUP2 DUP5 ADD MSTORE PUSH1 0x20 DUP2 ADD SWAP1 POP PUSH2 0x15A5 JUMP JUMPDEST PUSH1 0x0 DUP5 DUP5 ADD MSTORE POP POP POP POP JUMP JUMPDEST PUSH1 0x0 PUSH2 0x15D7 DUP3 PUSH2 0x1586 JUMP JUMPDEST PUSH2 0x15E1 DUP2 DUP6 PUSH2 0x1591 JUMP JUMPDEST SWAP4 POP PUSH2 0x15F1 DUP2 DUP6 PUSH1 0x20 DUP7 ADD PUSH2 0x15A2 JUMP JUMPDEST PUSH2 0x15FA DUP2 PUSH2 0x13A6 JUMP JUMPDEST DUP5 ADD SWAP2 POP POP SWAP3 SWAP2 POP POP JUMP JUMPDEST PUSH2 0x160E DUP2 PUSH2 0x12DD JUMP JUMPDEST DUP3 MSTORE POP POP JUMP JUMPDEST PUSH1 0x0 PUSH1 0x80 DUP4 ADD PUSH1 0x0 DUP4 ADD MLOAD DUP5 DUP3 SUB PUSH1 0x0 DUP7 ADD MSTORE PUSH2 0x1631 DUP3 DUP3 PUSH2 0x15CC JUMP JUMPDEST SWAP2 POP POP PUSH1 0x20 DUP4 ADD MLOAD DUP5 DUP3 SUB PUSH1 0x20 DUP7 ADD MSTORE PUSH2 0x164B DUP3 DUP3 PUSH2 0x15CC JUMP JUMPDEST SWAP2 POP POP PUSH1 0x40 DUP4 ADD MLOAD DUP5 DUP3 SUB PUSH1 0x40 DUP7 ADD MSTORE PUSH2 0x1665 DUP3 DUP3 PUSH2 0x15CC JUMP JUMPDEST SWAP2 POP POP PUSH1 0x60 DUP4 ADD MLOAD PUSH2 0x167A PUSH1 0x60 DUP7 ADD DUP3 PUSH2 0x1605 JUMP JUMPDEST POP DUP1 SWAP2 POP POP SWAP3 SWAP2 POP POP JUMP JUMPDEST PUSH1 0x0 PUSH2 0x1691 DUP4 DUP4 PUSH2 0x1614 JUMP JUMPDEST SWAP1 POP SWAP3 SWAP2 POP POP JUMP JUMPDEST PUSH1 0x0 PUSH1 0x20 DUP3 ADD SWAP1 POP SWAP2 SWAP1 POP JUMP JUMPDEST PUSH1 0x0 PUSH2 0x16B1 DUP3 PUSH2 0x155A JUMP JUMPDEST PUSH2 0x16BB DUP2 DUP6 PUSH2 0x1565 JUMP JUMPDEST SWAP4 POP DUP4 PUSH1 0x20 DUP3 MUL DUP6 ADD PUSH2 0x16CD DUP6 PUSH2 0x1576 JUMP JUMPDEST DUP1 PUSH1 0x0 JUMPDEST DUP6 DUP2 LT ISZERO PUSH2 0x1709 JUMPI DUP5 DUP5 SUB DUP10 MSTORE DUP2 MLOAD PUSH2 0x16EA DUP6 DUP3 PUSH2 0x1685 JUMP JUMPDEST SWAP5 POP PUSH2 0x16F5 DUP4 PUSH2 0x1699 JUMP JUMPDEST SWAP3 POP PUSH1 0x20 DUP11 ADD SWAP10 POP POP PUSH1 0x1 DUP2 ADD SWAP1 POP PUSH2 0x16D1 JUMP JUMPDEST POP DUP3 SWAP8 POP DUP8 SWAP6 POP POP POP POP POP POP SWAP3 SWAP2 POP POP JUMP JUMPDEST PUSH1 0x0 PUSH1 0x20 DUP3 ADD SWAP1 POP DUP2 DUP2 SUB PUSH1 0x0 DUP4 ADD MSTORE PUSH2 0x1735 DUP2 DUP5 PUSH2 0x16A6 JUMP JUMPDEST SWAP1 POP SWAP3 SWAP2 POP POP JUMP JUMPDEST PUSH1 0x0 DUP3 DUP3 MSTORE PUSH1 0x20 DUP3 ADD SWAP1 POP SWAP3 SWAP2 POP POP JUMP JUMPDEST PUSH1 0x0 PUSH2 0x1759 DUP3 PUSH2 0x1586 JUMP JUMPDEST PUSH2 0x1763 DUP2 DUP6 PUSH2 0x173D JUMP JUMPDEST SWAP4 POP PUSH2 0x1773 DUP2 DUP6 PUSH1 0x20 DUP7 ADD PUSH2 0x15A2 JUMP JUMPDEST PUSH2 0x177C DUP2 PUSH2 0x13A6 JUMP JUMPDEST DUP5 ADD SWAP2 POP POP SWAP3 SWAP2 POP POP JUMP JUMPDEST PUSH1 0x0 PUSH1 0x20 DUP3 ADD SWAP1 POP DUP2 DUP2 SUB PUSH1 0x0 DUP4 ADD MSTORE PUSH2 0x17A1 DUP2 DUP5 PUSH2 0x174E JUMP JUMPDEST SWAP1 POP SWAP3 SWAP2 POP POP JUMP JUMPDEST PUSH1 0x0 DUP1 PUSH1 0x40 DUP4 DUP6 SUB SLT ISZERO PUSH2 0x17C0 JUMPI PUSH2 0x17BF PUSH2 0x1270 JUMP JUMPDEST JUMPDEST PUSH1 0x0 PUSH2 0x17CE DUP6 DUP3 DUP7 ADD PUSH2 0x129B JUMP JUMPDEST SWAP3 POP POP PUSH1 0x20 DUP4 ADD CALLDATALOAD PUSH8 0xFFFFFFFFFFFFFFFF DUP2 GT ISZERO PUSH2 0x17EF JUMPI PUSH2 0x17EE PUSH2 0x1275 JUMP JUMPDEST JUMPDEST PUSH2 0x17FB DUP6 DUP3 DUP7 ADD PUSH2 0x14B4 JUMP JUMPDEST SWAP2 POP POP SWAP3 POP SWAP3 SWAP1 POP JUMP JUMPDEST PUSH2 0x180E DUP2 PUSH2 0x12DD JUMP JUMPDEST DUP3 MSTORE POP POP JUMP JUMPDEST PUSH1 0x0 PUSH1 0x20 DUP3 ADD SWAP1 POP PUSH2 0x1829 PUSH1 0x0 DUP4 ADD DUP5 PUSH2 0x1805 JUMP JUMPDEST SWAP3 SWAP2 POP POP JUMP JUMPDEST PUSH1 0x0 PUSH1 0x20 DUP3 DUP5 SUB SLT ISZERO PUSH2 0x1845 JUMPI PUSH2 0x1844 PUSH2 0x1270 JUMP JUMPDEST JUMPDEST PUSH1 0x0 DUP3 ADD CALLDATALOAD PUSH8 0xFFFFFFFFFFFFFFFF DUP2 GT ISZERO PUSH2 0x1863 JUMPI PUSH2 0x1862 PUSH2 0x1275 JUMP JUMPDEST JUMPDEST PUSH2 0x186F DUP5 DUP3 DUP6 ADD PUSH2 0x14B4 JUMP JUMPDEST SWAP2 POP POP SWAP3 SWAP2 POP POP JUMP JUMPDEST PUSH1 0x0 PUSH1 0x80 DUP3 ADD SWAP1 POP DUP2 DUP2 SUB PUSH1 0x0 DUP4 ADD MSTORE PUSH2 0x1892 DUP2 DUP8 PUSH2 0x174E JUMP JUMPDEST SWAP1 POP DUP2 DUP2 SUB PUSH1 0x20 DUP4 ADD MSTORE PUSH2 0x18A6 DUP2 DUP7 PUSH2 0x174E JUMP JUMPDEST SWAP1 POP DUP2 DUP2 SUB PUSH1 0x40 DUP4 ADD MSTORE PUSH2 0x18BA DUP2 DUP6 PUSH2 0x174E JUMP JUMPDEST SWAP1 POP PUSH2 0x18C9 PUSH1 0x60 DUP4 ADD DUP5 PUSH2 0x1805 JUMP JUMPDEST SWAP6 SWAP5 POP POP POP POP POP JUMP JUMPDEST PUSH1 0x0 DUP1 REVERT JUMPDEST PUSH1 0x0 DUP1 REVERT JUMPDEST PUSH1 0x0 DUP1 DUP4 PUSH1 0x1F DUP5 ADD SLT PUSH2 0x18F2 JUMPI PUSH2 0x18F1 PUSH2 0x139C JUMP JUMPDEST JUMPDEST DUP3 CALLDATALOAD SWAP1 POP PUSH8 0xFFFFFFFFFFFFFFFF DUP2 GT ISZERO PUSH2 0x190F JUMPI PUSH2 0x190E PUSH2 0x18D2 JUMP JUMPDEST JUMPDEST PUSH1 0x20 DUP4 ADD SWAP2 POP DUP4 PUSH1 0x1 DUP3 MUL DUP4 ADD GT ISZERO PUSH2 0x192B JUMPI PUSH2 0x192A PUSH2 0x18D7 JUMP JUMPDEST JUMPDEST SWAP3 POP SWAP3 SWAP1 POP JUMP JUMPDEST PUSH1 0x0 DUP1 PUSH1 0x0 DUP1 PUSH1 0x0 DUP1 PUSH1 0x60 DUP8 DUP10 SUB SLT ISZERO PUSH2 0x194F JUMPI PUSH2 0x194E PUSH2 0x1270 JUMP JUMPDEST JUMPDEST PUSH1 0x0 DUP8 ADD CALLDATALOAD PUSH8 0xFFFFFFFFFFFFFFFF DUP2 GT ISZERO PUSH2 0x196D JUMPI PUSH2 0x196C PUSH2 0x1275 JUMP JUMPDEST JUMPDEST PUSH2 0x1979 DUP10 DUP3 DUP11 ADD PUSH2 0x18DC JUMP JUMPDEST SWAP7 POP SWAP7 POP POP PUSH1 0x20 DUP8 ADD CALLDATALOAD PUSH8 0xFFFFFFFFFFFFFFFF DUP2 GT ISZERO PUSH2 0x199C JUMPI PUSH2 0x199B PUSH2 0x1275 JUMP JUMPDEST JUMPDEST PUSH2 0x19A8 DUP10 DUP3 DUP11 ADD PUSH2 0x18DC JUMP JUMPDEST SWAP5 POP SWAP5 POP POP PUSH1 0x40 DUP8 ADD CALLDATALOAD PUSH8 0xFFFFFFFFFFFFFFFF DUP2 GT ISZERO PUSH2 0x19CB JUMPI PUSH2 0x19CA PUSH2 0x1275 JUMP JUMPDEST JUMPDEST PUSH2 0x19D7 DUP10 DUP3 DUP11 ADD PUSH2 0x18DC JUMP JUMPDEST SWAP3 POP SWAP3 POP POP SWAP3 SWAP6 POP SWAP3 SWAP6 POP SWAP3 SWAP6 JUMP JUMPDEST PUSH32 0x4E487B7100000000000000000000000000000000000000000000000000000000 PUSH1 0x0 MSTORE PUSH1 0x11 PUSH1 0x4 MSTORE PUSH1 0x24 PUSH1 0x0 REVERT JUMPDEST PUSH1 0x0 PUSH2 0x1A20 DUP3 PUSH2 0x12DD JUMP JUMPDEST SWAP2 POP PUSH2 0x1A2B DUP4 PUSH2 0x12DD JUMP JUMPDEST SWAP3 POP DUP3 DUP3 MUL PUSH2 0x1A39 DUP2 PUSH2 0x12DD JUMP JUMPDEST SWAP2 POP DUP3 DUP3 DIV DUP5 EQ DUP4 ISZERO OR PUSH2 0x1A50 JUMPI PUSH2 0x1A4F PUSH2 0x19E6 JUMP JUMPDEST JUMPDEST POP SWAP3 SWAP2 POP POP JUMP JUMPDEST PUSH1 0x0 PUSH2 0x1A62 DUP3 PUSH2 0x12DD JUMP JUMPDEST SWAP2 POP PUSH2 0x1A6D DUP4 PUSH2 0x12DD JUMP JUMPDEST SWAP3 POP DUP3 DUP3 ADD SWAP1 POP DUP1 DUP3 GT ISZERO PUSH2 0x1A85 JUMPI PUSH2 0x1A84 PUSH2 0x19E6 JUMP JUMPDEST JUMPDEST SWAP3 SWAP2 POP POP JUMP JUMPDEST PUSH32 0x566F74696E672068617320737461727465640000000000000000000000000000 PUSH1 0x0 DUP3 ADD MSTORE POP JUMP JUMPDEST PUSH1 0x0 PUSH2 0x1AC1 PUSH1 0x12 DUP4 PUSH2 0x173D JUMP JUMPDEST SWAP2 POP PUSH2 0x1ACC DUP3 PUSH2 0x1A8B JUMP JUMPDEST PUSH1 0x20 DUP3 ADD SWAP1 POP SWAP2 SWAP1 POP JUMP JUMPDEST PUSH1 0x0 PUSH1 0x20 DUP3 ADD SWAP1 POP DUP2 DUP2 SUB PUSH1 0x0 DUP4 ADD MSTORE PUSH2 0x1AF0 DUP2 PUSH2 0x1AB4 JUMP JUMPDEST SWAP1 POP SWAP2 SWAP1 POP JUMP JUMPDEST PUSH32 0x4E487B7100000000000000000000000000000000000000000000000000000000 PUSH1 0x0 MSTORE PUSH1 0x22 PUSH1 0x4 MSTORE PUSH1 0x24 PUSH1 0x0 REVERT JUMPDEST PUSH1 0x0 PUSH1 0x2 DUP3 DIV SWAP1 POP PUSH1 0x1 DUP3 AND DUP1 PUSH2 0x1B3E JUMPI PUSH1 0x7F DUP3 AND SWAP2 POP JUMPDEST PUSH1 0x20 DUP3 LT DUP2 SUB PUSH2 0x1B51 JUMPI PUSH2 0x1B50 PUSH2 0x1AF7 JUMP JUMPDEST JUMPDEST POP SWAP2 SWAP1 POP JUMP JUMPDEST PUSH1 0x0 DUP2 SWAP1 POP DUP2 PUSH1 0x0 MSTORE PUSH1 0x20 PUSH1 0x0 KECCAK256 SWAP1 POP SWAP2 SWAP1 POP JUMP JUMPDEST PUSH1 0x0 PUSH1 0x20 PUSH1 0x1F DUP4 ADD DIV SWAP1 POP SWAP2 SWAP1 POP JUMP JUMPDEST PUSH1 0x0 DUP3 DUP3 SHL SWAP1 POP SWAP3 SWAP2 POP POP JUMP JUMPDEST PUSH1 0x0 PUSH1 0x8 DUP4 MUL PUSH2 0x1BB9 PUSH32 0xFFFFFFFFFFFFFFFFFFFFFFFFFFFFFFFFFFFFFFFFFFFFFFFFFFFFFFFFFFFFFFFF DUP3 PUSH2 0x1B7C JUMP JUMPDEST PUSH2 0x1BC3 DUP7 DUP4 PUSH2 0x1B7C JUMP JUMPDEST SWAP6 POP DUP1 NOT DUP5 AND SWAP4 POP DUP1 DUP7 AND DUP5 OR SWAP3 POP POP POP SWAP4 SWAP3 POP POP POP JUMP JUMPDEST PUSH1 0x0 DUP2 SWAP1 POP SWAP2 SWAP1 POP JUMP JUMPDEST PUSH1 0x0 PUSH2 0x1C00 PUSH2 0x1BFB PUSH2 0x1BF6 DUP5 PUSH2 0x12DD JUMP JUMPDEST PUSH2 0x1BDB JUMP JUMPDEST PUSH2 0x12DD JUMP JUMPDEST SWAP1 POP SWAP2 SWAP1 POP JUMP JUMPDEST PUSH1 0x0 DUP2 SWAP1 POP SWAP2 SWAP1 POP JUMP JUMPDEST PUSH2 0x1C1A DUP4 PUSH2 0x1BE5 JUMP JUMPDEST PUSH2 0x1C2E PUSH2 0x1C26 DUP3 PUSH2 0x1C07 JUMP JUMPDEST DUP5 DUP5 SLOAD PUSH2 0x1B89 JUMP JUMPDEST DUP3 SSTORE POP POP POP POP JUMP JUMPDEST PUSH1 0x0 SWAP1 JUMP JUMPDEST PUSH2 0x1C43 PUSH2 0x1C36 JUMP JUMPDEST PUSH2 0x1C4E DUP2 DUP5 DUP5 PUSH2 0x1C11 JUMP JUMPDEST POP POP POP JUMP JUMPDEST JUMPDEST DUP2 DUP2 LT ISZERO PUSH2 0x1C72 JUMPI PUSH2 0x1C67 PUSH1 0x0 DUP3 PUSH2 0x1C3B JUMP JUMPDEST PUSH1 0x1 DUP2 ADD SWAP1 POP PUSH2 0x1C54 JUMP JUMPDEST POP POP JUMP JUMPDEST PUSH1 0x1F DUP3 GT ISZERO PUSH2 0x1CB7 JUMPI PUSH2 0x1C88 DUP2 PUSH2 0x1B57 JUMP JUMPDEST PUSH2 0x1C91 DUP5 PUSH2 0x1B6C JUMP JUMPDEST DUP2 ADD PUSH1 0x20 DUP6 LT ISZERO PUSH2 0x1CA0 JUMPI DUP2 SWAP1 POP JUMPDEST PUSH2 0x1CB4 PUSH2 0x1CAC DUP6 PUSH2 0x1B6C JUMP JUMPDEST DUP4 ADD DUP3 PUSH2 0x1C53 JUMP JUMPDEST POP POP JUMPDEST POP POP POP JUMP JUMPDEST PUSH1 0x0 DUP3 DUP3 SHR SWAP1 POP SWAP3 SWAP2 POP POP JUMP JUMPDEST PUSH1 0x0 PUSH2 0x1CDA PUSH1 0x0 NOT DUP5 PUSH1 0x8 MUL PUSH2 0x1CBC JUMP JUMPDEST NOT DUP1 DUP4 AND SWAP2 POP POP SWAP3 SWAP2 POP POP JUMP JUMPDEST PUSH1 0x0 PUSH2 0x1CF3 DUP4 DUP4 PUSH2 0x1CC9 JUMP JUMPDEST SWAP2 POP DUP3 PUSH1 0x2 MUL DUP3 OR SWAP1 POP SWAP3 SWAP2 POP POP JUMP JUMPDEST PUSH2 0x1D0C DUP3 PUSH2 0x1586 JUMP JUMPDEST PUSH8 0xFFFFFFFFFFFFFFFF DUP2 GT ISZERO PUSH2 0x1D25 JUMPI PUSH2 0x1D24 PUSH2 0x13B7 JUMP JUMPDEST JUMPDEST PUSH2 0x1D2F DUP3 SLOAD PUSH2 0x1B26 JUMP JUMPDEST PUSH2 0x1D3A DUP3 DUP3 DUP6 PUSH2 0x1C76 JUMP JUMPDEST PUSH1 0x0 PUSH1 0x20 SWAP1 POP PUSH1 0x1F DUP4 GT PUSH1 0x1 DUP2 EQ PUSH2 0x1D6D JUMPI PUSH1 0x0 DUP5 ISZERO PUSH2 0x1D5B JUMPI DUP3 DUP8 ADD MLOAD SWAP1 POP JUMPDEST PUSH2 0x1D65 DUP6 DUP3 PUSH2 0x1CE7 JUMP JUMPDEST DUP7 SSTORE POP PUSH2 0x1DCD JUMP JUMPDEST PUSH1 0x1F NOT DUP5 AND PUSH2 0x1D7B DUP7 PUSH2 0x1B57 JUMP JUMPDEST PUSH1 0x0 JUMPDEST DUP3 DUP2 LT ISZERO PUSH2 0x1DA3 JUMPI DUP5 DUP10 ADD MLOAD DUP3 SSTORE PUSH1 0x1 DUP3 ADD SWAP2 POP PUSH1 0x20 DUP6 ADD SWAP5 POP PUSH1 0x20 DUP2 ADD SWAP1 POP PUSH2 0x1D7E JUMP JUMPDEST DUP7 DUP4 LT ISZERO PUSH2 0x1DC0 JUMPI DUP5 DUP10 ADD MLOAD PUSH2 0x1DBC PUSH1 0x1F DUP10 AND DUP3 PUSH2 0x1CC9 JUMP JUMPDEST DUP4 SSTORE POP JUMPDEST PUSH1 0x1 PUSH1 0x2 DUP9 MUL ADD DUP9 SSTORE POP POP POP JUMPDEST POP POP POP POP POP POP JUMP JUMPDEST PUSH32 0x566F74696E6720686173206E6F7420656E646564000000000000000000000000 PUSH1 0x0 DUP3 ADD MSTORE POP JUMP JUMPDEST PUSH1 0x0 PUSH2 0x1E0B PUSH1 0x14 DUP4 PUSH2 0x173D JUMP JUMPDEST SWAP2 POP PUSH2 0x1E16 DUP3 PUSH2 0x1DD5 JUMP JUMPDEST PUSH1 0x20 DUP3 ADD SWAP1 POP SWAP2 SWAP1 POP JUMP JUMPDEST PUSH1 0x0 PUSH1 0x20 DUP3 ADD SWAP1 POP DUP2 DUP2 SUB PUSH1 0x0 DUP4 ADD MSTORE PUSH2 0x1E3A DUP2 PUSH2 0x1DFE JUMP JUMPDEST SWAP1 POP SWAP2 SWAP1 POP JUMP JUMPDEST PUSH32 0x4E487B7100000000000000000000000000000000000000000000000000000000 PUSH1 0x0 MSTORE PUSH1 0x32 PUSH1 0x4 MSTORE PUSH1 0x24 PUSH1 0x0 REVERT JUMPDEST PUSH1 0x0 DUP2 SWAP1 POP SWAP3 SWAP2 POP POP JUMP JUMPDEST PUSH1 0x0 DUP2 SLOAD PUSH2 0x1E88 DUP2 PUSH2 0x1B26 JUMP JUMPDEST PUSH2 0x1E92 DUP2 DUP7 PUSH2 0x1E70 JUMP JUMPDEST SWAP5 POP PUSH1 0x1 DUP3 AND PUSH1 0x0 DUP2 EQ PUSH2 0x1EAD JUMPI PUSH1 0x1 DUP2 EQ PUSH2 0x1EC2 JUMPI PUSH2 0x1EF5 JUMP JUMPDEST PUSH1 0xFF NOT DUP4 AND DUP7 MSTORE DUP2 ISZERO ISZERO DUP3 MUL DUP7 ADD SWAP4 POP PUSH2 0x1EF5 JUMP JUMPDEST PUSH2 0x1ECB DUP6 PUSH2 0x1B57 JUMP JUMPDEST PUSH1 0x0 JUMPDEST DUP4 DUP2 LT ISZERO PUSH2 0x1EED JUMPI DUP2 SLOAD DUP2 DUP10 ADD MSTORE PUSH1 0x1 DUP3 ADD SWAP2 POP PUSH1 0x20 DUP2 ADD SWAP1 POP PUSH2 0x1ECE JUMP JUMPDEST DUP4 DUP9 ADD SWAP6 POP POP POP JUMPDEST POP POP POP SWAP3 SWAP2 POP POP JUMP JUMPDEST PUSH1 0x0 PUSH2 0x1F0A DUP3 DUP5 PUSH2 0x1E7B JUMP JUMPDEST SWAP2 POP DUP2 SWAP1 POP SWAP3 SWAP2 POP POP JUMP JUMPDEST PUSH1 0x0 PUSH2 0x1F20 DUP3 PUSH2 0x1586 JUMP JUMPDEST PUSH2 0x1F2A DUP2 DUP6 PUSH2 0x1E70 JUMP JUMPDEST SWAP4 POP PUSH2 0x1F3A DUP2 DUP6 PUSH1 0x20 DUP7 ADD PUSH2 0x15A2 JUMP JUMPDEST DUP1 DUP5 ADD SWAP2 POP POP SWAP3 SWAP2 POP POP JUMP JUMPDEST PUSH1 0x0 PUSH2 0x1F52 DUP3 DUP5 PUSH2 0x1F15 JUMP JUMPDEST SWAP2 POP DUP2 SWAP1 POP SWAP3 SWAP2 POP POP JUMP JUMPDEST PUSH1 0x0 PUSH2 0x1F69 DUP4 DUP6 PUSH2 0x1E70 JUMP JUMPDEST SWAP4 POP PUSH2 0x1F76 DUP4 DUP6 DUP5 PUSH2 0x1463 JUMP JUMPDEST DUP3 DUP5 ADD SWAP1 POP SWAP4 SWAP3 POP POP POP JUMP JUMPDEST PUSH1 0x0 PUSH2 0x1F8F DUP3 DUP5 DUP7 PUSH2 0x1F5D JUMP JUMPDEST SWAP2 POP DUP2 SWAP1 POP SWAP4 SWAP3 POP POP POP JUMP JUMPDEST PUSH1 0x0 DUP3 SWAP1 POP SWAP3 SWAP2 POP POP JUMP JUMPDEST PUSH2 0x1FB0 DUP4 DUP4 PUSH2 0x1F9B JUMP JUMPDEST PUSH8 0xFFFFFFFFFFFFFFFF DUP2 GT ISZERO PUSH2 0x1FC9 JUMPI PUSH2 0x1FC8 PUSH2 0x13B7 JUMP JUMPDEST JUMPDEST PUSH2 0x1FD3 DUP3 SLOAD PUSH2 0x1B26 JUMP JUMPDEST PUSH2 0x1FDE DUP3 DUP3 DUP6 PUSH2 0x1C76 JUMP JUMPDEST PUSH1 0x0 PUSH1 0x1F DUP4 GT PUSH1 0x1 DUP2 EQ PUSH2 0x200D JUMPI PUSH1 0x0 DUP5 ISZERO PUSH2 0x1FFB JUMPI DUP3 DUP8 ADD CALLDATALOAD SWAP1 POP JUMPDEST PUSH2 0x2005 DUP6 DUP3 PUSH2 0x1CE7 JUMP JUMPDEST DUP7 SSTORE POP PUSH2 0x206D JUMP JUMPDEST PUSH1 0x1F NOT DUP5 AND PUSH2 0x201B DUP7 PUSH2 0x1B57 JUMP JUMPDEST PUSH1 0x0 JUMPDEST DUP3 DUP2 LT ISZERO PUSH2 0x2043 JUMPI DUP5 DUP10 ADD CALLDATALOAD DUP3 SSTORE PUSH1 0x1 DUP3 ADD SWAP2 POP PUSH1 0x20 DUP6 ADD SWAP5 POP PUSH1 0x20 DUP2 ADD SWAP1 POP PUSH2 0x201E JUMP JUMPDEST DUP7 DUP4 LT ISZERO PUSH2 0x2060 JUMPI DUP5 DUP10 ADD CALLDATALOAD PUSH2 0x205C PUSH1 0x1F DUP10 AND DUP3 PUSH2 0x1CC9 JUMP JUMPDEST DUP4 SSTORE POP JUMPDEST PUSH1 0x1 PUSH1 0x2 DUP9 MUL ADD DUP9 SSTORE POP POP POP JUMPDEST POP POP POP POP POP POP POP JUMP JUMPDEST PUSH1 0x0 PUSH2 0x2082 DUP4 DUP6 PUSH2 0x173D JUMP JUMPDEST SWAP4 POP PUSH2 0x208F DUP4 DUP6 DUP5 PUSH2 0x1463 JUMP JUMPDEST PUSH2 0x2098 DUP4 PUSH2 0x13A6 JUMP JUMPDEST DUP5 ADD SWAP1 POP SWAP4 SWAP3 POP POP POP JUMP JUMPDEST PUSH1 0x0 PUSH1 0x60 DUP3 ADD SWAP1 POP DUP2 DUP2 SUB PUSH1 0x0 DUP4 ADD MSTORE PUSH2 0x20BE DUP2 DUP9 DUP11 PUSH2 0x2076 JUMP JUMPDEST SWAP1 POP DUP2 DUP2 SUB PUSH1 0x20 DUP4 ADD MSTORE PUSH2 0x20D3 DUP2 DUP7 DUP9 PUSH2 0x2076 JUMP JUMPDEST SWAP1 POP DUP2 DUP2 SUB PUSH1 0x40 DUP4 ADD MSTORE PUSH2 0x20E8 DUP2 DUP5 DUP7 PUSH2 0x2076 JUMP JUMPDEST SWAP1 POP SWAP8 SWAP7 POP POP POP POP POP POP POP JUMP JUMPDEST PUSH2 0x20FE DUP2 PUSH2 0x127A JUMP JUMPDEST DUP3 MSTORE POP POP JUMP JUMPDEST PUSH1 0x0 PUSH1 0x20 DUP3 ADD SWAP1 POP PUSH2 0x2119 PUSH1 0x0 DUP4 ADD DUP5 PUSH2 0x20F5 JUMP JUMPDEST SWAP3 SWAP2 POP POP JUMP JUMPDEST PUSH32 0x566F74696E672068617320656E64656400000000000000000000000000000000 PUSH1 0x0 DUP3 ADD MSTORE POP JUMP JUMPDEST PUSH1 0x0 PUSH2 0x2155 PUSH1 0x10 DUP4 PUSH2 0x173D JUMP JUMPDEST SWAP2 POP PUSH2 0x2160 DUP3 PUSH2 0x211F JUMP JUMPDEST PUSH1 0x20 DUP3 ADD SWAP1 POP SWAP2 SWAP1 POP JUMP JUMPDEST PUSH1 0x0 PUSH1 0x20 DUP3 ADD SWAP1 POP DUP2 DUP2 SUB PUSH1 0x0 DUP4 ADD MSTORE PUSH2 0x2184 DUP2 PUSH2 0x2148 JUMP JUMPDEST SWAP1 POP SWAP2 SWAP1 POP JUMP INVALID LOG2 PUSH5 0x6970667358 0x22 SLT KECCAK256 MSTORE 0x2D 0xDE 0x1E PUSH5 0x8F7E6D992A MLOAD 0xC7 0xB8 TIMESTAMP LOG0 SELFBALANCE MULMOD SGT SHR 0xC6 0xD PUSH18 0x1366137C5176A3EC133D64736F6C63430008 XOR STOP CALLER LOG2 PUSH5 0x6970667358 0x22 SLT KECCAK256 0xDA DUP16 0xC8 0xEF 0x2B 0xF 0xC0 0xCF 0xB6 RETURNDATACOPY REVERT LOG3 PREVRANDAO CODECOPY 0xB2 NOT SWAP15 0xFB 0xDF PUSH24 0x7142AC99F62B841CD6AC232264736F6C6343000818003300 "
        },
        "methodIdentifiers": {
          "CreateNewVote()": "6b256d6c",
          "getVotingContractsByOwner(address)": "798d39b2",
          "votingContracts(address,uint256)": "07de98c4"
        }
      }
    }
  }
}