{
  "contracts/Verifier.sol": {
    "Verifier": {
      "abi": [
        {
          "inputs": [
            {
              "components": [
                {
                  "components": [
                    {
                      "internalType": "uint256",
                      "name": "X",
                      "type": "uint256"
                    },
                    {
                      "internalType": "uint256",
                      "name": "Y",
                      "type": "uint256"
                    }
                  ],
                  "internalType": "struct Pairing.G1Point",
                  "name": "a",
                  "type": "tuple"
                },
                {
                  "components": [
                    {
                      "internalType": "uint256[2]",
                      "name": "X",
                      "type": "uint256[2]"
                    },
                    {
                      "internalType": "uint256[2]",
                      "name": "Y",
                      "type": "uint256[2]"
                    }
                  ],
                  "internalType": "struct Pairing.G2Point",
                  "name": "b",
                  "type": "tuple"
                },
                {
                  "components": [
                    {
                      "internalType": "uint256",
                      "name": "X",
                      "type": "uint256"
                    },
                    {
                      "internalType": "uint256",
                      "name": "Y",
                      "type": "uint256"
                    }
                  ],
                  "internalType": "struct Pairing.G1Point",
                  "name": "c",
                  "type": "tuple"
                }
              ],
              "internalType": "struct Verifier.Proof",
              "name": "proof",
              "type": "tuple"
            },
            {
              "internalType": "uint256[6]",
              "name": "input",
              "type": "uint256[6]"
            }
          ],
          "name": "verifyTx",
          "outputs": [
            {
              "internalType": "bool",
              "name": "r",
              "type": "bool"
            }
          ],
          "stateMutability": "view",
          "type": "function"
        }
      ],
      "evm": {
        "bytecode": {
          "linkReferences": {},
          "object": "608060405234801561001057600080fd5b506116ac806100206000396000f3fe608060405234801561001057600080fd5b506004361061002b5760003560e01c806301ec146314610030575b600080fd5b61004a60048036038101906100459190611496565b610060565b60405161005791906114f3565b60405180910390f35b600080600667ffffffffffffffff81111561007e5761007d611174565b5b6040519080825280602002602001820160405280156100ac5781602001602082028036833780820191505090505b50905060005b60068110156100ff578381600681106100ce576100cd61150e565b5b60200201518282815181106100e6576100e561150e565b5b60200260200101818152505080806001019150506100b2565b50600061010c8286610127565b0361011b576001915050610121565b60009150505b92915050565b6000807f30644e72e131a029b85045b68181585d2833e84879b9709143e1f593f0000001905060006101576102b8565b90508060800151516001865161016d919061156c565b1461017757600080fd5b60006040518060400160405280600081526020016000815250905060005b865181101561022a57838782815181106101b2576101b161150e565b5b6020026020010151106101c457600080fd5b61021b8261021685608001516001856101dd919061156c565b815181106101ee576101ed61150e565b5b60200260200101518a85815181106102095761020861150e565b5b6020026020010151610914565b6109b6565b91508080600101915050610195565b506102548183608001516000815181106102475761024661150e565b5b60200260200101516109b6565b905061029a8560000151866020015161026c84610a7e565b856040015161027e8a60400151610a7e565b87606001516102908960000151610a7e565b8960200151610b23565b6102aa57600193505050506102b2565b600093505050505b92915050565b6102c0611040565b60405180604001604052807f15cd1a2013b0ec065b8c5e4bd4944e8891fbd4479aaceea93fb2c46e92b426d581526020017f1ca30177e79603543a0e44fa1184e216b815df87f2aab6bf2a233befd4092dd98152508160000181905250604051806040016040528060405180604001604052807f2003706b41ab9a64eff7019b2428fc9c715dfdbcdcf5fb0bda2b626a3951ca1f81526020017f131a92936c7cab4f39f831289e1babeb48693d747a8210f92000a139b1635084815250815260200160405180604001604052807f208cd8ac670ffcb390413b064f9934cc37659b00570209e84aea2d96b0b6674581526020017f1c4cf2f441bac7fe061755f999d1699a02881c04638d1bbf898d9244db56499d8152508152508160200181905250604051806040016040528060405180604001604052807f0c771d0aa5f68cea8784adcdc15274a25411835f731da3f7a1471799cb90a23f81526020017f13a2112b81218c3ea174c7dcfcaaa66afdaa77e04214cb4714bd74b8998d6898815250815260200160405180604001604052807f19d04869de9b014869abb9a4ddacc8b92f03344ddd51a49cd2ebf19857676ec281526020017f0fab1dbac7f5d0caf4f59f930d3d395b688b1ff3f8affb21096cf8fbf41419d18152508152508160400181905250604051806040016040528060405180604001604052807f299721dc4a868d279999740dfdc990a52e157233515af3b797373642bff1f46081526020017f0e2e0ca9f45c472d7a1746557645eb77b8093fa7fc159650d2b952982ad8291d815250815260200160405180604001604052807f07fd243a9ce450f0f4609c036ee79ddc536140ed76573ae197264f379aeb9ad781526020017f28b0e752717361414dce9dce133d50a4169e013be3408d948760b0085aff07938152508152508160600181905250600767ffffffffffffffff81111561058757610586611174565b5b6040519080825280602002602001820160405280156105c057816020015b6105ad611087565b8152602001906001900390816105a55790505b50816080018190525060405180604001604052807f1cc08e08bd7a0a1b40495db9aac1d787aff1d0182c6c8c0678bcc5eeebdcdc6481526020017f1121c9800a4da5a17ec4b304101bc3973b8c293d1f31cf59b752926295334e9d81525081608001516000815181106106365761063561150e565b5b602002602001018190525060405180604001604052807f10430b0234cfe0cc00427e9eb253ee19fdb92b5d2bf900bb8bbfa6cc6b2ed7dc81526020017f2e15b6111bb679598adde0f7c4ad623b7d820a65db507034bd7b21c74342564981525081608001516001815181106106ae576106ad61150e565b5b602002602001018190525060405180604001604052807f19d928e65f9218a6b3bf9a255a88a5fbc921c40597723126a43fa16b38e72cd581526020017f1bb42e8ca087f9766a6d7d5f504829b172422711a1961385341f464772b9d84481525081608001516002815181106107265761072561150e565b5b602002602001018190525060405180604001604052807f152bf2e76327f9875708699d5b9336bafb237bf58a1729817c79788059cc056881526020017f225a9fba2c5214de10bc9a0c167e48b926acde6d5b96696fc77443024886ac98815250816080015160038151811061079e5761079d61150e565b5b602002602001018190525060405180604001604052807f20bdee67a83870d180108071ca3768191b2b64bd3bafc852d883adda0662524c81526020017f2c9e9de6c762e9f49dff458c0f4766611b258c25723b9d0a3b3d109e88a7817381525081608001516004815181106108165761081561150e565b5b602002602001018190525060405180604001604052807f11e0e0a45ae930685ae3584779201b0b1a63f4b443a88c57e81684feb0e1232281526020017f2103eb8e265ec7ea64f0e168db5a924d932389d2d726072546797c363b02efb8815250816080015160058151811061088e5761088d61150e565b5b602002602001018190525060405180604001604052807f139ba62755b4d57950475c44183cb397aeafd8a07d730d67601a768cc7f07e6e81526020017f0d5d1e00d002345a5a86a6aa05dc7b5c9bd6ba535f2f17aebe29d24b1975421681525081608001516006815181106109065761090561150e565b5b602002602001018190525090565b61091c611087565b6109246110a1565b83600001518160006003811061093d5761093c61150e565b5b60200201818152505083602001518160016003811061095f5761095e61150e565b5b602002018181525050828160026003811061097d5761097c61150e565b5b602002018181525050600060608360808460076107d05a03fa905080600081036109a357fe5b50806109ae57600080fd5b505092915050565b6109be611087565b6109c66110c3565b8360000151816000600481106109df576109de61150e565b5b602002018181525050836020015181600160048110610a0157610a0061150e565b5b602002018181525050826000015181600260048110610a2357610a2261150e565b5b602002018181525050826020015181600360048110610a4557610a4461150e565b5b602002018181525050600060608360c08460066107d05a03fa90508060008103610a6b57fe5b5080610a7657600080fd5b505092915050565b610a86611087565b60007f30644e72e131a029b85045b68181585d97816a916871ca8d3c208c16d87cfd47905060008360000151148015610ac3575060008360200151145b15610ae7576040518060400160405280600081526020016000815250915050610b1e565b604051806040016040528084600001518152602001828560200151610b0c91906115cf565b83610b179190611600565b8152509150505b919050565b600080600467ffffffffffffffff811115610b4157610b40611174565b5b604051908082528060200260200182016040528015610b7a57816020015b610b67611087565b815260200190600190039081610b5f5790505b5090506000600467ffffffffffffffff811115610b9a57610b99611174565b5b604051908082528060200260200182016040528015610bd357816020015b610bc06110e5565b815260200190600190039081610bb85790505b5090508a82600081518110610beb57610bea61150e565b5b60200260200101819052508882600181518110610c0b57610c0a61150e565b5b60200260200101819052508682600281518110610c2b57610c2a61150e565b5b60200260200101819052508482600381518110610c4b57610c4a61150e565b5b60200260200101819052508981600081518110610c6b57610c6a61150e565b5b60200260200101819052508781600181518110610c8b57610c8a61150e565b5b60200260200101819052508581600281518110610cab57610caa61150e565b5b60200260200101819052508381600381518110610ccb57610cca61150e565b5b6020026020010181905250610ce08282610cf0565b9250505098975050505050505050565b60008151835114610d0057600080fd5b6000835190506000600682610d159190611634565b905060008167ffffffffffffffff811115610d3357610d32611174565b5b604051908082528060200260200182016040528015610d615781602001602082028036833780820191505090505b50905060005b83811015610fe057868181518110610d8257610d8161150e565b5b602002602001015160000151826000600684610d9e9190611634565b610da8919061156c565b81518110610db957610db861150e565b5b602002602001018181525050868181518110610dd857610dd761150e565b5b602002602001015160200151826001600684610df49190611634565b610dfe919061156c565b81518110610e0f57610e0e61150e565b5b602002602001018181525050858181518110610e2e57610e2d61150e565b5b602002602001015160000151600160028110610e4d57610e4c61150e565b5b6020020151826002600684610e629190611634565b610e6c919061156c565b81518110610e7d57610e7c61150e565b5b602002602001018181525050858181518110610e9c57610e9b61150e565b5b602002602001015160000151600060028110610ebb57610eba61150e565b5b6020020151826003600684610ed09190611634565b610eda919061156c565b81518110610eeb57610eea61150e565b5b602002602001018181525050858181518110610f0a57610f0961150e565b5b602002602001015160200151600160028110610f2957610f2861150e565b5b6020020151826004600684610f3e9190611634565b610f48919061156c565b81518110610f5957610f5861150e565b5b602002602001018181525050858181518110610f7857610f7761150e565b5b602002602001015160200151600060028110610f9757610f9661150e565b5b6020020151826005600684610fac9190611634565b610fb6919061156c565b81518110610fc757610fc661150e565b5b6020026020010181815250508080600101915050610d67565b50610fe961110b565b6000602082602086026020860160086107d05a03fa9050806000810361100b57fe5b508061101657600080fd5b60008260006001811061102c5761102b61150e565b5b602002015114159550505050505092915050565b6040518060a00160405280611053611087565b81526020016110606110e5565b815260200161106d6110e5565b815260200161107a6110e5565b8152602001606081525090565b604051806040016040528060008152602001600081525090565b6040518060600160405280600390602082028036833780820191505090505090565b6040518060800160405280600490602082028036833780820191505090505090565b60405180604001604052806110f861112d565b815260200161110561112d565b81525090565b6040518060200160405280600190602082028036833780820191505090505090565b6040518060400160405280600290602082028036833780820191505090505090565b6000604051905090565b600080fd5b600080fd5b6000601f19601f8301169050919050565b7f4e487b7100000000000000000000000000000000000000000000000000000000600052604160045260246000fd5b6111ac82611163565b810181811067ffffffffffffffff821117156111cb576111ca611174565b5b80604052505050565b60006111de61114f565b90506111ea82826111a3565b919050565b6000819050919050565b611202816111ef565b811461120d57600080fd5b50565b60008135905061121f816111f9565b92915050565b60006040828403121561123b5761123a61115e565b5b61124560406111d4565b9050600061125584828501611210565b600083015250602061126984828501611210565b60208301525092915050565b600080fd5b600067ffffffffffffffff82111561129557611294611174565b5b602082029050919050565b600080fd5b60006112b86112b38461127a565b6111d4565b905080602084028301858111156112d2576112d16112a0565b5b835b818110156112fb57806112e78882611210565b8452602084019350506020810190506112d4565b5050509392505050565b600082601f83011261131a57611319611275565b5b60026113278482856112a5565b91505092915050565b6000608082840312156113465761134561115e565b5b61135060406111d4565b9050600061136084828501611305565b600083015250604061137484828501611305565b60208301525092915050565b600061010082840312156113975761139661115e565b5b6113a160606111d4565b905060006113b184828501611225565b60008301525060406113c584828501611330565b60208301525060c06113d984828501611225565b60408301525092915050565b600067ffffffffffffffff821115611400576113ff611174565b5b602082029050919050565b600061141e611419846113e5565b6111d4565b90508060208402830185811115611438576114376112a0565b5b835b81811015611461578061144d8882611210565b84526020840193505060208101905061143a565b5050509392505050565b600082601f8301126114805761147f611275565b5b600661148d84828561140b565b91505092915050565b6000806101c083850312156114ae576114ad611159565b5b60006114bc85828601611380565b9250506101006114ce8582860161146b565b9150509250929050565b60008115159050919050565b6114ed816114d8565b82525050565b600060208201905061150860008301846114e4565b92915050565b7f4e487b7100000000000000000000000000000000000000000000000000000000600052603260045260246000fd5b7f4e487b7100000000000000000000000000000000000000000000000000000000600052601160045260246000fd5b6000611577826111ef565b9150611582836111ef565b925082820190508082111561159a5761159961153d565b5b92915050565b7f4e487b7100000000000000000000000000000000000000000000000000000000600052601260045260246000fd5b60006115da826111ef565b91506115e5836111ef565b9250826115f5576115f46115a0565b5b828206905092915050565b600061160b826111ef565b9150611616836111ef565b925082820390508181111561162e5761162d61153d565b5b92915050565b600061163f826111ef565b915061164a836111ef565b9250828202611658816111ef565b9150828204841483151761166f5761166e61153d565b5b509291505056fea26469706673582212209577aa7ca2821bdc0c85df549bafce1eb081d617760acc42ff1687069977b5ef64736f6c63430008180033",
          "opcodes": "PUSH1 0x80 PUSH1 0x40 MSTORE CALLVALUE DUP1 ISZERO PUSH2 0x10 JUMPI PUSH1 0x0 DUP1 REVERT JUMPDEST POP PUSH2 0x16AC DUP1 PUSH2 0x20 PUSH1 0x0 CODECOPY PUSH1 0x0 RETURN INVALID PUSH1 0x80 PUSH1 0x40 MSTORE CALLVALUE DUP1 ISZERO PUSH2 0x10 JUMPI PUSH1 0x0 DUP1 REVERT JUMPDEST POP PUSH1 0x4 CALLDATASIZE LT PUSH2 0x2B JUMPI PUSH1 0x0 CALLDATALOAD PUSH1 0xE0 SHR DUP1 PUSH4 0x1EC1463 EQ PUSH2 0x30 JUMPI JUMPDEST PUSH1 0x0 DUP1 REVERT JUMPDEST PUSH2 0x4A PUSH1 0x4 DUP1 CALLDATASIZE SUB DUP2 ADD SWAP1 PUSH2 0x45 SWAP2 SWAP1 PUSH2 0x1496 JUMP JUMPDEST PUSH2 0x60 JUMP JUMPDEST PUSH1 0x40 MLOAD PUSH2 0x57 SWAP2 SWAP1 PUSH2 0x14F3 JUMP JUMPDEST PUSH1 0x40 MLOAD DUP1 SWAP2 SUB SWAP1 RETURN JUMPDEST PUSH1 0x0 DUP1 PUSH1 0x6 PUSH8 0xFFFFFFFFFFFFFFFF DUP2 GT ISZERO PUSH2 0x7E JUMPI PUSH2 0x7D PUSH2 0x1174 JUMP JUMPDEST JUMPDEST PUSH1 0x40 MLOAD SWAP1 DUP1 DUP3 MSTORE DUP1 PUSH1 0x20 MUL PUSH1 0x20 ADD DUP3 ADD PUSH1 0x40 MSTORE DUP1 ISZERO PUSH2 0xAC JUMPI DUP2 PUSH1 0x20 ADD PUSH1 0x20 DUP3 MUL DUP1 CALLDATASIZE DUP4 CALLDATACOPY DUP1 DUP3 ADD SWAP2 POP POP SWAP1 POP JUMPDEST POP SWAP1 POP PUSH1 0x0 JUMPDEST PUSH1 0x6 DUP2 LT ISZERO PUSH2 0xFF JUMPI DUP4 DUP2 PUSH1 0x6 DUP2 LT PUSH2 0xCE JUMPI PUSH2 0xCD PUSH2 0x150E JUMP JUMPDEST JUMPDEST PUSH1 0x20 MUL ADD MLOAD DUP3 DUP3 DUP2 MLOAD DUP2 LT PUSH2 0xE6 JUMPI PUSH2 0xE5 PUSH2 0x150E JUMP JUMPDEST JUMPDEST PUSH1 0x20 MUL PUSH1 0x20 ADD ADD DUP2 DUP2 MSTORE POP POP DUP1 DUP1 PUSH1 0x1 ADD SWAP2 POP POP PUSH2 0xB2 JUMP JUMPDEST POP PUSH1 0x0 PUSH2 0x10C DUP3 DUP7 PUSH2 0x127 JUMP JUMPDEST SUB PUSH2 0x11B JUMPI PUSH1 0x1 SWAP2 POP POP PUSH2 0x121 JUMP JUMPDEST PUSH1 0x0 SWAP2 POP POP JUMPDEST SWAP3 SWAP2 POP POP JUMP JUMPDEST PUSH1 0x0 DUP1 PUSH32 0x30644E72E131A029B85045B68181585D2833E84879B9709143E1F593F0000001 SWAP1 POP PUSH1 0x0 PUSH2 0x157 PUSH2 0x2B8 JUMP JUMPDEST SWAP1 POP DUP1 PUSH1 0x80 ADD MLOAD MLOAD PUSH1 0x1 DUP7 MLOAD PUSH2 0x16D SWAP2 SWAP1 PUSH2 0x156C JUMP JUMPDEST EQ PUSH2 0x177 JUMPI PUSH1 0x0 DUP1 REVERT JUMPDEST PUSH1 0x0 PUSH1 0x40 MLOAD DUP1 PUSH1 0x40 ADD PUSH1 0x40 MSTORE DUP1 PUSH1 0x0 DUP2 MSTORE PUSH1 0x20 ADD PUSH1 0x0 DUP2 MSTORE POP SWAP1 POP PUSH1 0x0 JUMPDEST DUP7 MLOAD DUP2 LT ISZERO PUSH2 0x22A JUMPI DUP4 DUP8 DUP3 DUP2 MLOAD DUP2 LT PUSH2 0x1B2 JUMPI PUSH2 0x1B1 PUSH2 0x150E JUMP JUMPDEST JUMPDEST PUSH1 0x20 MUL PUSH1 0x20 ADD ADD MLOAD LT PUSH2 0x1C4 JUMPI PUSH1 0x0 DUP1 REVERT JUMPDEST PUSH2 0x21B DUP3 PUSH2 0x216 DUP6 PUSH1 0x80 ADD MLOAD PUSH1 0x1 DUP6 PUSH2 0x1DD SWAP2 SWAP1 PUSH2 0x156C JUMP JUMPDEST DUP2 MLOAD DUP2 LT PUSH2 0x1EE JUMPI PUSH2 0x1ED PUSH2 0x150E JUMP JUMPDEST JUMPDEST PUSH1 0x20 MUL PUSH1 0x20 ADD ADD MLOAD DUP11 DUP6 DUP2 MLOAD DUP2 LT PUSH2 0x209 JUMPI PUSH2 0x208 PUSH2 0x150E JUMP JUMPDEST JUMPDEST PUSH1 0x20 MUL PUSH1 0x20 ADD ADD MLOAD PUSH2 0x914 JUMP JUMPDEST PUSH2 0x9B6 JUMP JUMPDEST SWAP2 POP DUP1 DUP1 PUSH1 0x1 ADD SWAP2 POP POP PUSH2 0x195 JUMP JUMPDEST POP PUSH2 0x254 DUP2 DUP4 PUSH1 0x80 ADD MLOAD PUSH1 0x0 DUP2 MLOAD DUP2 LT PUSH2 0x247 JUMPI PUSH2 0x246 PUSH2 0x150E JUMP JUMPDEST JUMPDEST PUSH1 0x20 MUL PUSH1 0x20 ADD ADD MLOAD PUSH2 0x9B6 JUMP JUMPDEST SWAP1 POP PUSH2 0x29A DUP6 PUSH1 0x0 ADD MLOAD DUP7 PUSH1 0x20 ADD MLOAD PUSH2 0x26C DUP5 PUSH2 0xA7E JUMP JUMPDEST DUP6 PUSH1 0x40 ADD MLOAD PUSH2 0x27E DUP11 PUSH1 0x40 ADD MLOAD PUSH2 0xA7E JUMP JUMPDEST DUP8 PUSH1 0x60 ADD MLOAD PUSH2 0x290 DUP10 PUSH1 0x0 ADD MLOAD PUSH2 0xA7E JUMP JUMPDEST DUP10 PUSH1 0x20 ADD MLOAD PUSH2 0xB23 JUMP JUMPDEST PUSH2 0x2AA JUMPI PUSH1 0x1 SWAP4 POP POP POP POP PUSH2 0x2B2 JUMP JUMPDEST PUSH1 0x0 SWAP4 POP POP POP POP JUMPDEST SWAP3 SWAP2 POP POP JUMP JUMPDEST PUSH2 0x2C0 PUSH2 0x1040 JUMP JUMPDEST PUSH1 0x40 MLOAD DUP1 PUSH1 0x40 ADD PUSH1 0x40 MSTORE DUP1 PUSH32 0x15CD1A2013B0EC065B8C5E4BD4944E8891FBD4479AACEEA93FB2C46E92B426D5 DUP2 MSTORE PUSH1 0x20 ADD PUSH32 0x1CA30177E79603543A0E44FA1184E216B815DF87F2AAB6BF2A233BEFD4092DD9 DUP2 MSTORE POP DUP2 PUSH1 0x0 ADD DUP2 SWAP1 MSTORE POP PUSH1 0x40 MLOAD DUP1 PUSH1 0x40 ADD PUSH1 0x40 MSTORE DUP1 PUSH1 0x40 MLOAD DUP1 PUSH1 0x40 ADD PUSH1 0x40 MSTORE DUP1 PUSH32 0x2003706B41AB9A64EFF7019B2428FC9C715DFDBCDCF5FB0BDA2B626A3951CA1F DUP2 MSTORE PUSH1 0x20 ADD PUSH32 0x131A92936C7CAB4F39F831289E1BABEB48693D747A8210F92000A139B1635084 DUP2 MSTORE POP DUP2 MSTORE PUSH1 0x20 ADD PUSH1 0x40 MLOAD DUP1 PUSH1 0x40 ADD PUSH1 0x40 MSTORE DUP1 PUSH32 0x208CD8AC670FFCB390413B064F9934CC37659B00570209E84AEA2D96B0B66745 DUP2 MSTORE PUSH1 0x20 ADD PUSH32 0x1C4CF2F441BAC7FE061755F999D1699A02881C04638D1BBF898D9244DB56499D DUP2 MSTORE POP DUP2 MSTORE POP DUP2 PUSH1 0x20 ADD DUP2 SWAP1 MSTORE POP PUSH1 0x40 MLOAD DUP1 PUSH1 0x40 ADD PUSH1 0x40 MSTORE DUP1 PUSH1 0x40 MLOAD DUP1 PUSH1 0x40 ADD PUSH1 0x40 MSTORE DUP1 PUSH32 0xC771D0AA5F68CEA8784ADCDC15274A25411835F731DA3F7A1471799CB90A23F DUP2 MSTORE PUSH1 0x20 ADD PUSH32 0x13A2112B81218C3EA174C7DCFCAAA66AFDAA77E04214CB4714BD74B8998D6898 DUP2 MSTORE POP DUP2 MSTORE PUSH1 0x20 ADD PUSH1 0x40 MLOAD DUP1 PUSH1 0x40 ADD PUSH1 0x40 MSTORE DUP1 PUSH32 0x19D04869DE9B014869ABB9A4DDACC8B92F03344DDD51A49CD2EBF19857676EC2 DUP2 MSTORE PUSH1 0x20 ADD PUSH32 0xFAB1DBAC7F5D0CAF4F59F930D3D395B688B1FF3F8AFFB21096CF8FBF41419D1 DUP2 MSTORE POP DUP2 MSTORE POP DUP2 PUSH1 0x40 ADD DUP2 SWAP1 MSTORE POP PUSH1 0x40 MLOAD DUP1 PUSH1 0x40 ADD PUSH1 0x40 MSTORE DUP1 PUSH1 0x40 MLOAD DUP1 PUSH1 0x40 ADD PUSH1 0x40 MSTORE DUP1 PUSH32 0x299721DC4A868D279999740DFDC990A52E157233515AF3B797373642BFF1F460 DUP2 MSTORE PUSH1 0x20 ADD PUSH32 0xE2E0CA9F45C472D7A1746557645EB77B8093FA7FC159650D2B952982AD8291D DUP2 MSTORE POP DUP2 MSTORE PUSH1 0x20 ADD PUSH1 0x40 MLOAD DUP1 PUSH1 0x40 ADD PUSH1 0x40 MSTORE DUP1 PUSH32 0x7FD243A9CE450F0F4609C036EE79DDC536140ED76573AE197264F379AEB9AD7 DUP2 MSTORE PUSH1 0x20 ADD PUSH32 0x28B0E752717361414DCE9DCE133D50A4169E013BE3408D948760B0085AFF0793 DUP2 MSTORE POP DUP2 MSTORE POP DUP2 PUSH1 0x60 ADD DUP2 SWAP1 MSTORE POP PUSH1 0x7 PUSH8 0xFFFFFFFFFFFFFFFF DUP2 GT ISZERO PUSH2 0x587 JUMPI PUSH2 0x586 PUSH2 0x1174 JUMP JUMPDEST JUMPDEST PUSH1 0x40 MLOAD SWAP1 DUP1 DUP3 MSTORE DUP1 PUSH1 0x20 MUL PUSH1 0x20 ADD DUP3 ADD PUSH1 0x40 MSTORE DUP1 ISZERO PUSH2 0x5C0 JUMPI DUP2 PUSH1 0x20 ADD JUMPDEST PUSH2 0x5AD PUSH2 0x1087 JUMP JUMPDEST DUP2 MSTORE PUSH1 0x20 ADD SWAP1 PUSH1 0x1 SWAP1 SUB SWAP1 DUP2 PUSH2 0x5A5 JUMPI SWAP1 POP JUMPDEST POP DUP2 PUSH1 0x80 ADD DUP2 SWAP1 MSTORE POP PUSH1 0x40 MLOAD DUP1 PUSH1 0x40 ADD PUSH1 0x40 MSTORE DUP1 PUSH32 0x1CC08E08BD7A0A1B40495DB9AAC1D787AFF1D0182C6C8C0678BCC5EEEBDCDC64 DUP2 MSTORE PUSH1 0x20 ADD PUSH32 0x1121C9800A4DA5A17EC4B304101BC3973B8C293D1F31CF59B752926295334E9D DUP2 MSTORE POP DUP2 PUSH1 0x80 ADD MLOAD PUSH1 0x0 DUP2 MLOAD DUP2 LT PUSH2 0x636 JUMPI PUSH2 0x635 PUSH2 0x150E JUMP JUMPDEST JUMPDEST PUSH1 0x20 MUL PUSH1 0x20 ADD ADD DUP2 SWAP1 MSTORE POP PUSH1 0x40 MLOAD DUP1 PUSH1 0x40 ADD PUSH1 0x40 MSTORE DUP1 PUSH32 0x10430B0234CFE0CC00427E9EB253EE19FDB92B5D2BF900BB8BBFA6CC6B2ED7DC DUP2 MSTORE PUSH1 0x20 ADD PUSH32 0x2E15B6111BB679598ADDE0F7C4AD623B7D820A65DB507034BD7B21C743425649 DUP2 MSTORE POP DUP2 PUSH1 0x80 ADD MLOAD PUSH1 0x1 DUP2 MLOAD DUP2 LT PUSH2 0x6AE JUMPI PUSH2 0x6AD PUSH2 0x150E JUMP JUMPDEST JUMPDEST PUSH1 0x20 MUL PUSH1 0x20 ADD ADD DUP2 SWAP1 MSTORE POP PUSH1 0x40 MLOAD DUP1 PUSH1 0x40 ADD PUSH1 0x40 MSTORE DUP1 PUSH32 0x19D928E65F9218A6B3BF9A255A88A5FBC921C40597723126A43FA16B38E72CD5 DUP2 MSTORE PUSH1 0x20 ADD PUSH32 0x1BB42E8CA087F9766A6D7D5F504829B172422711A1961385341F464772B9D844 DUP2 MSTORE POP DUP2 PUSH1 0x80 ADD MLOAD PUSH1 0x2 DUP2 MLOAD DUP2 LT PUSH2 0x726 JUMPI PUSH2 0x725 PUSH2 0x150E JUMP JUMPDEST JUMPDEST PUSH1 0x20 MUL PUSH1 0x20 ADD ADD DUP2 SWAP1 MSTORE POP PUSH1 0x40 MLOAD DUP1 PUSH1 0x40 ADD PUSH1 0x40 MSTORE DUP1 PUSH32 0x152BF2E76327F9875708699D5B9336BAFB237BF58A1729817C79788059CC0568 DUP2 MSTORE PUSH1 0x20 ADD PUSH32 0x225A9FBA2C5214DE10BC9A0C167E48B926ACDE6D5B96696FC77443024886AC98 DUP2 MSTORE POP DUP2 PUSH1 0x80 ADD MLOAD PUSH1 0x3 DUP2 MLOAD DUP2 LT PUSH2 0x79E JUMPI PUSH2 0x79D PUSH2 0x150E JUMP JUMPDEST JUMPDEST PUSH1 0x20 MUL PUSH1 0x20 ADD ADD DUP2 SWAP1 MSTORE POP PUSH1 0x40 MLOAD DUP1 PUSH1 0x40 ADD PUSH1 0x40 MSTORE DUP1 PUSH32 0x20BDEE67A83870D180108071CA3768191B2B64BD3BAFC852D883ADDA0662524C DUP2 MSTORE PUSH1 0x20 ADD PUSH32 0x2C9E9DE6C762E9F49DFF458C0F4766611B258C25723B9D0A3B3D109E88A78173 DUP2 MSTORE POP DUP2 PUSH1 0x80 ADD MLOAD PUSH1 0x4 DUP2 MLOAD DUP2 LT PUSH2 0x816 JUMPI PUSH2 0x815 PUSH2 0x150E JUMP JUMPDEST JUMPDEST PUSH1 0x20 MUL PUSH1 0x20 ADD ADD DUP2 SWAP1 MSTORE POP PUSH1 0x40 MLOAD DUP1 PUSH1 0x40 ADD PUSH1 0x40 MSTORE DUP1 PUSH32 0x11E0E0A45AE930685AE3584779201B0B1A63F4B443A88C57E81684FEB0E12322 DUP2 MSTORE PUSH1 0x20 ADD PUSH32 0x2103EB8E265EC7EA64F0E168DB5A924D932389D2D726072546797C363B02EFB8 DUP2 MSTORE POP DUP2 PUSH1 0x80 ADD MLOAD PUSH1 0x5 DUP2 MLOAD DUP2 LT PUSH2 0x88E JUMPI PUSH2 0x88D PUSH2 0x150E JUMP JUMPDEST JUMPDEST PUSH1 0x20 MUL PUSH1 0x20 ADD ADD DUP2 SWAP1 MSTORE POP PUSH1 0x40 MLOAD DUP1 PUSH1 0x40 ADD PUSH1 0x40 MSTORE DUP1 PUSH32 0x139BA62755B4D57950475C44183CB397AEAFD8A07D730D67601A768CC7F07E6E DUP2 MSTORE PUSH1 0x20 ADD PUSH32 0xD5D1E00D002345A5A86A6AA05DC7B5C9BD6BA535F2F17AEBE29D24B19754216 DUP2 MSTORE POP DUP2 PUSH1 0x80 ADD MLOAD PUSH1 0x6 DUP2 MLOAD DUP2 LT PUSH2 0x906 JUMPI PUSH2 0x905 PUSH2 0x150E JUMP JUMPDEST JUMPDEST PUSH1 0x20 MUL PUSH1 0x20 ADD ADD DUP2 SWAP1 MSTORE POP SWAP1 JUMP JUMPDEST PUSH2 0x91C PUSH2 0x1087 JUMP JUMPDEST PUSH2 0x924 PUSH2 0x10A1 JUMP JUMPDEST DUP4 PUSH1 0x0 ADD MLOAD DUP2 PUSH1 0x0 PUSH1 0x3 DUP2 LT PUSH2 0x93D JUMPI PUSH2 0x93C PUSH2 0x150E JUMP JUMPDEST JUMPDEST PUSH1 0x20 MUL ADD DUP2 DUP2 MSTORE POP POP DUP4 PUSH1 0x20 ADD MLOAD DUP2 PUSH1 0x1 PUSH1 0x3 DUP2 LT PUSH2 0x95F JUMPI PUSH2 0x95E PUSH2 0x150E JUMP JUMPDEST JUMPDEST PUSH1 0x20 MUL ADD DUP2 DUP2 MSTORE POP POP DUP3 DUP2 PUSH1 0x2 PUSH1 0x3 DUP2 LT PUSH2 0x97D JUMPI PUSH2 0x97C PUSH2 0x150E JUMP JUMPDEST JUMPDEST PUSH1 0x20 MUL ADD DUP2 DUP2 MSTORE POP POP PUSH1 0x0 PUSH1 0x60 DUP4 PUSH1 0x80 DUP5 PUSH1 0x7 PUSH2 0x7D0 GAS SUB STATICCALL SWAP1 POP DUP1 PUSH1 0x0 DUP2 SUB PUSH2 0x9A3 JUMPI INVALID JUMPDEST POP DUP1 PUSH2 0x9AE JUMPI PUSH1 0x0 DUP1 REVERT JUMPDEST POP POP SWAP3 SWAP2 POP POP JUMP JUMPDEST PUSH2 0x9BE PUSH2 0x1087 JUMP JUMPDEST PUSH2 0x9C6 PUSH2 0x10C3 JUMP JUMPDEST DUP4 PUSH1 0x0 ADD MLOAD DUP2 PUSH1 0x0 PUSH1 0x4 DUP2 LT PUSH2 0x9DF JUMPI PUSH2 0x9DE PUSH2 0x150E JUMP JUMPDEST JUMPDEST PUSH1 0x20 MUL ADD DUP2 DUP2 MSTORE POP POP DUP4 PUSH1 0x20 ADD MLOAD DUP2 PUSH1 0x1 PUSH1 0x4 DUP2 LT PUSH2 0xA01 JUMPI PUSH2 0xA00 PUSH2 0x150E JUMP JUMPDEST JUMPDEST PUSH1 0x20 MUL ADD DUP2 DUP2 MSTORE POP POP DUP3 PUSH1 0x0 ADD MLOAD DUP2 PUSH1 0x2 PUSH1 0x4 DUP2 LT PUSH2 0xA23 JUMPI PUSH2 0xA22 PUSH2 0x150E JUMP JUMPDEST JUMPDEST PUSH1 0x20 MUL ADD DUP2 DUP2 MSTORE POP POP DUP3 PUSH1 0x20 ADD MLOAD DUP2 PUSH1 0x3 PUSH1 0x4 DUP2 LT PUSH2 0xA45 JUMPI PUSH2 0xA44 PUSH2 0x150E JUMP JUMPDEST JUMPDEST PUSH1 0x20 MUL ADD DUP2 DUP2 MSTORE POP POP PUSH1 0x0 PUSH1 0x60 DUP4 PUSH1 0xC0 DUP5 PUSH1 0x6 PUSH2 0x7D0 GAS SUB STATICCALL SWAP1 POP DUP1 PUSH1 0x0 DUP2 SUB PUSH2 0xA6B JUMPI INVALID JUMPDEST POP DUP1 PUSH2 0xA76 JUMPI PUSH1 0x0 DUP1 REVERT JUMPDEST POP POP SWAP3 SWAP2 POP POP JUMP JUMPDEST PUSH2 0xA86 PUSH2 0x1087 JUMP JUMPDEST PUSH1 0x0 PUSH32 0x30644E72E131A029B85045B68181585D97816A916871CA8D3C208C16D87CFD47 SWAP1 POP PUSH1 0x0 DUP4 PUSH1 0x0 ADD MLOAD EQ DUP1 ISZERO PUSH2 0xAC3 JUMPI POP PUSH1 0x0 DUP4 PUSH1 0x20 ADD MLOAD EQ JUMPDEST ISZERO PUSH2 0xAE7 JUMPI PUSH1 0x40 MLOAD DUP1 PUSH1 0x40 ADD PUSH1 0x40 MSTORE DUP1 PUSH1 0x0 DUP2 MSTORE PUSH1 0x20 ADD PUSH1 0x0 DUP2 MSTORE POP SWAP2 POP POP PUSH2 0xB1E JUMP JUMPDEST PUSH1 0x40 MLOAD DUP1 PUSH1 0x40 ADD PUSH1 0x40 MSTORE DUP1 DUP5 PUSH1 0x0 ADD MLOAD DUP2 MSTORE PUSH1 0x20 ADD DUP3 DUP6 PUSH1 0x20 ADD MLOAD PUSH2 0xB0C SWAP2 SWAP1 PUSH2 0x15CF JUMP JUMPDEST DUP4 PUSH2 0xB17 SWAP2 SWAP1 PUSH2 0x1600 JUMP JUMPDEST DUP2 MSTORE POP SWAP2 POP POP JUMPDEST SWAP2 SWAP1 POP JUMP JUMPDEST PUSH1 0x0 DUP1 PUSH1 0x4 PUSH8 0xFFFFFFFFFFFFFFFF DUP2 GT ISZERO PUSH2 0xB41 JUMPI PUSH2 0xB40 PUSH2 0x1174 JUMP JUMPDEST JUMPDEST PUSH1 0x40 MLOAD SWAP1 DUP1 DUP3 MSTORE DUP1 PUSH1 0x20 MUL PUSH1 0x20 ADD DUP3 ADD PUSH1 0x40 MSTORE DUP1 ISZERO PUSH2 0xB7A JUMPI DUP2 PUSH1 0x20 ADD JUMPDEST PUSH2 0xB67 PUSH2 0x1087 JUMP JUMPDEST DUP2 MSTORE PUSH1 0x20 ADD SWAP1 PUSH1 0x1 SWAP1 SUB SWAP1 DUP2 PUSH2 0xB5F JUMPI SWAP1 POP JUMPDEST POP SWAP1 POP PUSH1 0x0 PUSH1 0x4 PUSH8 0xFFFFFFFFFFFFFFFF DUP2 GT ISZERO PUSH2 0xB9A JUMPI PUSH2 0xB99 PUSH2 0x1174 JUMP JUMPDEST JUMPDEST PUSH1 0x40 MLOAD SWAP1 DUP1 DUP3 MSTORE DUP1 PUSH1 0x20 MUL PUSH1 0x20 ADD DUP3 ADD PUSH1 0x40 MSTORE DUP1 ISZERO PUSH2 0xBD3 JUMPI DUP2 PUSH1 0x20 ADD JUMPDEST PUSH2 0xBC0 PUSH2 0x10E5 JUMP JUMPDEST DUP2 MSTORE PUSH1 0x20 ADD SWAP1 PUSH1 0x1 SWAP1 SUB SWAP1 DUP2 PUSH2 0xBB8 JUMPI SWAP1 POP JUMPDEST POP SWAP1 POP DUP11 DUP3 PUSH1 0x0 DUP2 MLOAD DUP2 LT PUSH2 0xBEB JUMPI PUSH2 0xBEA PUSH2 0x150E JUMP JUMPDEST JUMPDEST PUSH1 0x20 MUL PUSH1 0x20 ADD ADD DUP2 SWAP1 MSTORE POP DUP9 DUP3 PUSH1 0x1 DUP2 MLOAD DUP2 LT PUSH2 0xC0B JUMPI PUSH2 0xC0A PUSH2 0x150E JUMP JUMPDEST JUMPDEST PUSH1 0x20 MUL PUSH1 0x20 ADD ADD DUP2 SWAP1 MSTORE POP DUP7 DUP3 PUSH1 0x2 DUP2 MLOAD DUP2 LT PUSH2 0xC2B JUMPI PUSH2 0xC2A PUSH2 0x150E JUMP JUMPDEST JUMPDEST PUSH1 0x20 MUL PUSH1 0x20 ADD ADD DUP2 SWAP1 MSTORE POP DUP5 DUP3 PUSH1 0x3 DUP2 MLOAD DUP2 LT PUSH2 0xC4B JUMPI PUSH2 0xC4A PUSH2 0x150E JUMP JUMPDEST JUMPDEST PUSH1 0x20 MUL PUSH1 0x20 ADD ADD DUP2 SWAP1 MSTORE POP DUP10 DUP2 PUSH1 0x0 DUP2 MLOAD DUP2 LT PUSH2 0xC6B JUMPI PUSH2 0xC6A PUSH2 0x150E JUMP JUMPDEST JUMPDEST PUSH1 0x20 MUL PUSH1 0x20 ADD ADD DUP2 SWAP1 MSTORE POP DUP8 DUP2 PUSH1 0x1 DUP2 MLOAD DUP2 LT PUSH2 0xC8B JUMPI PUSH2 0xC8A PUSH2 0x150E JUMP JUMPDEST JUMPDEST PUSH1 0x20 MUL PUSH1 0x20 ADD ADD DUP2 SWAP1 MSTORE POP DUP6 DUP2 PUSH1 0x2 DUP2 MLOAD DUP2 LT PUSH2 0xCAB JUMPI PUSH2 0xCAA PUSH2 0x150E JUMP JUMPDEST JUMPDEST PUSH1 0x20 MUL PUSH1 0x20 ADD ADD DUP2 SWAP1 MSTORE POP DUP4 DUP2 PUSH1 0x3 DUP2 MLOAD DUP2 LT PUSH2 0xCCB JUMPI PUSH2 0xCCA PUSH2 0x150E JUMP JUMPDEST JUMPDEST PUSH1 0x20 MUL PUSH1 0x20 ADD ADD DUP2 SWAP1 MSTORE POP PUSH2 0xCE0 DUP3 DUP3 PUSH2 0xCF0 JUMP JUMPDEST SWAP3 POP POP POP SWAP9 SWAP8 POP POP POP POP POP POP POP POP JUMP JUMPDEST PUSH1 0x0 DUP2 MLOAD DUP4 MLOAD EQ PUSH2 0xD00 JUMPI PUSH1 0x0 DUP1 REVERT JUMPDEST PUSH1 0x0 DUP4 MLOAD SWAP1 POP PUSH1 0x0 PUSH1 0x6 DUP3 PUSH2 0xD15 SWAP2 SWAP1 PUSH2 0x1634 JUMP JUMPDEST SWAP1 POP PUSH1 0x0 DUP2 PUSH8 0xFFFFFFFFFFFFFFFF DUP2 GT ISZERO PUSH2 0xD33 JUMPI PUSH2 0xD32 PUSH2 0x1174 JUMP JUMPDEST JUMPDEST PUSH1 0x40 MLOAD SWAP1 DUP1 DUP3 MSTORE DUP1 PUSH1 0x20 MUL PUSH1 0x20 ADD DUP3 ADD PUSH1 0x40 MSTORE DUP1 ISZERO PUSH2 0xD61 JUMPI DUP2 PUSH1 0x20 ADD PUSH1 0x20 DUP3 MUL DUP1 CALLDATASIZE DUP4 CALLDATACOPY DUP1 DUP3 ADD SWAP2 POP POP SWAP1 POP JUMPDEST POP SWAP1 POP PUSH1 0x0 JUMPDEST DUP4 DUP2 LT ISZERO PUSH2 0xFE0 JUMPI DUP7 DUP2 DUP2 MLOAD DUP2 LT PUSH2 0xD82 JUMPI PUSH2 0xD81 PUSH2 0x150E JUMP JUMPDEST JUMPDEST PUSH1 0x20 MUL PUSH1 0x20 ADD ADD MLOAD PUSH1 0x0 ADD MLOAD DUP3 PUSH1 0x0 PUSH1 0x6 DUP5 PUSH2 0xD9E SWAP2 SWAP1 PUSH2 0x1634 JUMP JUMPDEST PUSH2 0xDA8 SWAP2 SWAP1 PUSH2 0x156C JUMP JUMPDEST DUP2 MLOAD DUP2 LT PUSH2 0xDB9 JUMPI PUSH2 0xDB8 PUSH2 0x150E JUMP JUMPDEST JUMPDEST PUSH1 0x20 MUL PUSH1 0x20 ADD ADD DUP2 DUP2 MSTORE POP POP DUP7 DUP2 DUP2 MLOAD DUP2 LT PUSH2 0xDD8 JUMPI PUSH2 0xDD7 PUSH2 0x150E JUMP JUMPDEST JUMPDEST PUSH1 0x20 MUL PUSH1 0x20 ADD ADD MLOAD PUSH1 0x20 ADD MLOAD DUP3 PUSH1 0x1 PUSH1 0x6 DUP5 PUSH2 0xDF4 SWAP2 SWAP1 PUSH2 0x1634 JUMP JUMPDEST PUSH2 0xDFE SWAP2 SWAP1 PUSH2 0x156C JUMP JUMPDEST DUP2 MLOAD DUP2 LT PUSH2 0xE0F JUMPI PUSH2 0xE0E PUSH2 0x150E JUMP JUMPDEST JUMPDEST PUSH1 0x20 MUL PUSH1 0x20 ADD ADD DUP2 DUP2 MSTORE POP POP DUP6 DUP2 DUP2 MLOAD DUP2 LT PUSH2 0xE2E JUMPI PUSH2 0xE2D PUSH2 0x150E JUMP JUMPDEST JUMPDEST PUSH1 0x20 MUL PUSH1 0x20 ADD ADD MLOAD PUSH1 0x0 ADD MLOAD PUSH1 0x1 PUSH1 0x2 DUP2 LT PUSH2 0xE4D JUMPI PUSH2 0xE4C PUSH2 0x150E JUMP JUMPDEST JUMPDEST PUSH1 0x20 MUL ADD MLOAD DUP3 PUSH1 0x2 PUSH1 0x6 DUP5 PUSH2 0xE62 SWAP2 SWAP1 PUSH2 0x1634 JUMP JUMPDEST PUSH2 0xE6C SWAP2 SWAP1 PUSH2 0x156C JUMP JUMPDEST DUP2 MLOAD DUP2 LT PUSH2 0xE7D JUMPI PUSH2 0xE7C PUSH2 0x150E JUMP JUMPDEST JUMPDEST PUSH1 0x20 MUL PUSH1 0x20 ADD ADD DUP2 DUP2 MSTORE POP POP DUP6 DUP2 DUP2 MLOAD DUP2 LT PUSH2 0xE9C JUMPI PUSH2 0xE9B PUSH2 0x150E JUMP JUMPDEST JUMPDEST PUSH1 0x20 MUL PUSH1 0x20 ADD ADD MLOAD PUSH1 0x0 ADD MLOAD PUSH1 0x0 PUSH1 0x2 DUP2 LT PUSH2 0xEBB JUMPI PUSH2 0xEBA PUSH2 0x150E JUMP JUMPDEST JUMPDEST PUSH1 0x20 MUL ADD MLOAD DUP3 PUSH1 0x3 PUSH1 0x6 DUP5 PUSH2 0xED0 SWAP2 SWAP1 PUSH2 0x1634 JUMP JUMPDEST PUSH2 0xEDA SWAP2 SWAP1 PUSH2 0x156C JUMP JUMPDEST DUP2 MLOAD DUP2 LT PUSH2 0xEEB JUMPI PUSH2 0xEEA PUSH2 0x150E JUMP JUMPDEST JUMPDEST PUSH1 0x20 MUL PUSH1 0x20 ADD ADD DUP2 DUP2 MSTORE POP POP DUP6 DUP2 DUP2 MLOAD DUP2 LT PUSH2 0xF0A JUMPI PUSH2 0xF09 PUSH2 0x150E JUMP JUMPDEST JUMPDEST PUSH1 0x20 MUL PUSH1 0x20 ADD ADD MLOAD PUSH1 0x20 ADD MLOAD PUSH1 0x1 PUSH1 0x2 DUP2 LT PUSH2 0xF29 JUMPI PUSH2 0xF28 PUSH2 0x150E JUMP JUMPDEST JUMPDEST PUSH1 0x20 MUL ADD MLOAD DUP3 PUSH1 0x4 PUSH1 0x6 DUP5 PUSH2 0xF3E SWAP2 SWAP1 PUSH2 0x1634 JUMP JUMPDEST PUSH2 0xF48 SWAP2 SWAP1 PUSH2 0x156C JUMP JUMPDEST DUP2 MLOAD DUP2 LT PUSH2 0xF59 JUMPI PUSH2 0xF58 PUSH2 0x150E JUMP JUMPDEST JUMPDEST PUSH1 0x20 MUL PUSH1 0x20 ADD ADD DUP2 DUP2 MSTORE POP POP DUP6 DUP2 DUP2 MLOAD DUP2 LT PUSH2 0xF78 JUMPI PUSH2 0xF77 PUSH2 0x150E JUMP JUMPDEST JUMPDEST PUSH1 0x20 MUL PUSH1 0x20 ADD ADD MLOAD PUSH1 0x20 ADD MLOAD PUSH1 0x0 PUSH1 0x2 DUP2 LT PUSH2 0xF97 JUMPI PUSH2 0xF96 PUSH2 0x150E JUMP JUMPDEST JUMPDEST PUSH1 0x20 MUL ADD MLOAD DUP3 PUSH1 0x5 PUSH1 0x6 DUP5 PUSH2 0xFAC SWAP2 SWAP1 PUSH2 0x1634 JUMP JUMPDEST PUSH2 0xFB6 SWAP2 SWAP1 PUSH2 0x156C JUMP JUMPDEST DUP2 MLOAD DUP2 LT PUSH2 0xFC7 JUMPI PUSH2 0xFC6 PUSH2 0x150E JUMP JUMPDEST JUMPDEST PUSH1 0x20 MUL PUSH1 0x20 ADD ADD DUP2 DUP2 MSTORE POP POP DUP1 DUP1 PUSH1 0x1 ADD SWAP2 POP POP PUSH2 0xD67 JUMP JUMPDEST POP PUSH2 0xFE9 PUSH2 0x110B JUMP JUMPDEST PUSH1 0x0 PUSH1 0x20 DUP3 PUSH1 0x20 DUP7 MUL PUSH1 0x20 DUP7 ADD PUSH1 0x8 PUSH2 0x7D0 GAS SUB STATICCALL SWAP1 POP DUP1 PUSH1 0x0 DUP2 SUB PUSH2 0x100B JUMPI INVALID JUMPDEST POP DUP1 PUSH2 0x1016 JUMPI PUSH1 0x0 DUP1 REVERT JUMPDEST PUSH1 0x0 DUP3 PUSH1 0x0 PUSH1 0x1 DUP2 LT PUSH2 0x102C JUMPI PUSH2 0x102B PUSH2 0x150E JUMP JUMPDEST JUMPDEST PUSH1 0x20 MUL ADD MLOAD EQ ISZERO SWAP6 POP POP POP POP POP POP SWAP3 SWAP2 POP POP JUMP JUMPDEST PUSH1 0x40 MLOAD DUP1 PUSH1 0xA0 ADD PUSH1 0x40 MSTORE DUP1 PUSH2 0x1053 PUSH2 0x1087 JUMP JUMPDEST DUP2 MSTORE PUSH1 0x20 ADD PUSH2 0x1060 PUSH2 0x10E5 JUMP JUMPDEST DUP2 MSTORE PUSH1 0x20 ADD PUSH2 0x106D PUSH2 0x10E5 JUMP JUMPDEST DUP2 MSTORE PUSH1 0x20 ADD PUSH2 0x107A PUSH2 0x10E5 JUMP JUMPDEST DUP2 MSTORE PUSH1 0x20 ADD PUSH1 0x60 DUP2 MSTORE POP SWAP1 JUMP JUMPDEST PUSH1 0x40 MLOAD DUP1 PUSH1 0x40 ADD PUSH1 0x40 MSTORE DUP1 PUSH1 0x0 DUP2 MSTORE PUSH1 0x20 ADD PUSH1 0x0 DUP2 MSTORE POP SWAP1 JUMP JUMPDEST PUSH1 0x40 MLOAD DUP1 PUSH1 0x60 ADD PUSH1 0x40 MSTORE DUP1 PUSH1 0x3 SWAP1 PUSH1 0x20 DUP3 MUL DUP1 CALLDATASIZE DUP4 CALLDATACOPY DUP1 DUP3 ADD SWAP2 POP POP SWAP1 POP POP SWAP1 JUMP JUMPDEST PUSH1 0x40 MLOAD DUP1 PUSH1 0x80 ADD PUSH1 0x40 MSTORE DUP1 PUSH1 0x4 SWAP1 PUSH1 0x20 DUP3 MUL DUP1 CALLDATASIZE DUP4 CALLDATACOPY DUP1 DUP3 ADD SWAP2 POP POP SWAP1 POP POP SWAP1 JUMP JUMPDEST PUSH1 0x40 MLOAD DUP1 PUSH1 0x40 ADD PUSH1 0x40 MSTORE DUP1 PUSH2 0x10F8 PUSH2 0x112D JUMP JUMPDEST DUP2 MSTORE PUSH1 0x20 ADD PUSH2 0x1105 PUSH2 0x112D JUMP JUMPDEST DUP2 MSTORE POP SWAP1 JUMP JUMPDEST PUSH1 0x40 MLOAD DUP1 PUSH1 0x20 ADD PUSH1 0x40 MSTORE DUP1 PUSH1 0x1 SWAP1 PUSH1 0x20 DUP3 MUL DUP1 CALLDATASIZE DUP4 CALLDATACOPY DUP1 DUP3 ADD SWAP2 POP POP SWAP1 POP POP SWAP1 JUMP JUMPDEST PUSH1 0x40 MLOAD DUP1 PUSH1 0x40 ADD PUSH1 0x40 MSTORE DUP1 PUSH1 0x2 SWAP1 PUSH1 0x20 DUP3 MUL DUP1 CALLDATASIZE DUP4 CALLDATACOPY DUP1 DUP3 ADD SWAP2 POP POP SWAP1 POP POP SWAP1 JUMP JUMPDEST PUSH1 0x0 PUSH1 0x40 MLOAD SWAP1 POP SWAP1 JUMP JUMPDEST PUSH1 0x0 DUP1 REVERT JUMPDEST PUSH1 0x0 DUP1 REVERT JUMPDEST PUSH1 0x0 PUSH1 0x1F NOT PUSH1 0x1F DUP4 ADD AND SWAP1 POP SWAP2 SWAP1 POP JUMP JUMPDEST PUSH32 0x4E487B7100000000000000000000000000000000000000000000000000000000 PUSH1 0x0 MSTORE PUSH1 0x41 PUSH1 0x4 MSTORE PUSH1 0x24 PUSH1 0x0 REVERT JUMPDEST PUSH2 0x11AC DUP3 PUSH2 0x1163 JUMP JUMPDEST DUP2 ADD DUP2 DUP2 LT PUSH8 0xFFFFFFFFFFFFFFFF DUP3 GT OR ISZERO PUSH2 0x11CB JUMPI PUSH2 0x11CA PUSH2 0x1174 JUMP JUMPDEST JUMPDEST DUP1 PUSH1 0x40 MSTORE POP POP POP JUMP JUMPDEST PUSH1 0x0 PUSH2 0x11DE PUSH2 0x114F JUMP JUMPDEST SWAP1 POP PUSH2 0x11EA DUP3 DUP3 PUSH2 0x11A3 JUMP JUMPDEST SWAP2 SWAP1 POP JUMP JUMPDEST PUSH1 0x0 DUP2 SWAP1 POP SWAP2 SWAP1 POP JUMP JUMPDEST PUSH2 0x1202 DUP2 PUSH2 0x11EF JUMP JUMPDEST DUP2 EQ PUSH2 0x120D JUMPI PUSH1 0x0 DUP1 REVERT JUMPDEST POP JUMP JUMPDEST PUSH1 0x0 DUP2 CALLDATALOAD SWAP1 POP PUSH2 0x121F DUP2 PUSH2 0x11F9 JUMP JUMPDEST SWAP3 SWAP2 POP POP JUMP JUMPDEST PUSH1 0x0 PUSH1 0x40 DUP3 DUP5 SUB SLT ISZERO PUSH2 0x123B JUMPI PUSH2 0x123A PUSH2 0x115E JUMP JUMPDEST JUMPDEST PUSH2 0x1245 PUSH1 0x40 PUSH2 0x11D4 JUMP JUMPDEST SWAP1 POP PUSH1 0x0 PUSH2 0x1255 DUP5 DUP3 DUP6 ADD PUSH2 0x1210 JUMP JUMPDEST PUSH1 0x0 DUP4 ADD MSTORE POP PUSH1 0x20 PUSH2 0x1269 DUP5 DUP3 DUP6 ADD PUSH2 0x1210 JUMP JUMPDEST PUSH1 0x20 DUP4 ADD MSTORE POP SWAP3 SWAP2 POP POP JUMP JUMPDEST PUSH1 0x0 DUP1 REVERT JUMPDEST PUSH1 0x0 PUSH8 0xFFFFFFFFFFFFFFFF DUP3 GT ISZERO PUSH2 0x1295 JUMPI PUSH2 0x1294 PUSH2 0x1174 JUMP JUMPDEST JUMPDEST PUSH1 0x20 DUP3 MUL SWAP1 POP SWAP2 SWAP1 POP JUMP JUMPDEST PUSH1 0x0 DUP1 REVERT JUMPDEST PUSH1 0x0 PUSH2 0x12B8 PUSH2 0x12B3 DUP5 PUSH2 0x127A JUMP JUMPDEST PUSH2 0x11D4 JUMP JUMPDEST SWAP1 POP DUP1 PUSH1 0x20 DUP5 MUL DUP4 ADD DUP6 DUP2 GT ISZERO PUSH2 0x12D2 JUMPI PUSH2 0x12D1 PUSH2 0x12A0 JUMP JUMPDEST JUMPDEST DUP4 JUMPDEST DUP2 DUP2 LT ISZERO PUSH2 0x12FB JUMPI DUP1 PUSH2 0x12E7 DUP9 DUP3 PUSH2 0x1210 JUMP JUMPDEST DUP5 MSTORE PUSH1 0x20 DUP5 ADD SWAP4 POP POP PUSH1 0x20 DUP2 ADD SWAP1 POP PUSH2 0x12D4 JUMP JUMPDEST POP POP POP SWAP4 SWAP3 POP POP POP JUMP JUMPDEST PUSH1 0x0 DUP3 PUSH1 0x1F DUP4 ADD SLT PUSH2 0x131A JUMPI PUSH2 0x1319 PUSH2 0x1275 JUMP JUMPDEST JUMPDEST PUSH1 0x2 PUSH2 0x1327 DUP5 DUP3 DUP6 PUSH2 0x12A5 JUMP JUMPDEST SWAP2 POP POP SWAP3 SWAP2 POP POP JUMP JUMPDEST PUSH1 0x0 PUSH1 0x80 DUP3 DUP5 SUB SLT ISZERO PUSH2 0x1346 JUMPI PUSH2 0x1345 PUSH2 0x115E JUMP JUMPDEST JUMPDEST PUSH2 0x1350 PUSH1 0x40 PUSH2 0x11D4 JUMP JUMPDEST SWAP1 POP PUSH1 0x0 PUSH2 0x1360 DUP5 DUP3 DUP6 ADD PUSH2 0x1305 JUMP JUMPDEST PUSH1 0x0 DUP4 ADD MSTORE POP PUSH1 0x40 PUSH2 0x1374 DUP5 DUP3 DUP6 ADD PUSH2 0x1305 JUMP JUMPDEST PUSH1 0x20 DUP4 ADD MSTORE POP SWAP3 SWAP2 POP POP JUMP JUMPDEST PUSH1 0x0 PUSH2 0x100 DUP3 DUP5 SUB SLT ISZERO PUSH2 0x1397 JUMPI PUSH2 0x1396 PUSH2 0x115E JUMP JUMPDEST JUMPDEST PUSH2 0x13A1 PUSH1 0x60 PUSH2 0x11D4 JUMP JUMPDEST SWAP1 POP PUSH1 0x0 PUSH2 0x13B1 DUP5 DUP3 DUP6 ADD PUSH2 0x1225 JUMP JUMPDEST PUSH1 0x0 DUP4 ADD MSTORE POP PUSH1 0x40 PUSH2 0x13C5 DUP5 DUP3 DUP6 ADD PUSH2 0x1330 JUMP JUMPDEST PUSH1 0x20 DUP4 ADD MSTORE POP PUSH1 0xC0 PUSH2 0x13D9 DUP5 DUP3 DUP6 ADD PUSH2 0x1225 JUMP JUMPDEST PUSH1 0x40 DUP4 ADD MSTORE POP SWAP3 SWAP2 POP POP JUMP JUMPDEST PUSH1 0x0 PUSH8 0xFFFFFFFFFFFFFFFF DUP3 GT ISZERO PUSH2 0x1400 JUMPI PUSH2 0x13FF PUSH2 0x1174 JUMP JUMPDEST JUMPDEST PUSH1 0x20 DUP3 MUL SWAP1 POP SWAP2 SWAP1 POP JUMP JUMPDEST PUSH1 0x0 PUSH2 0x141E PUSH2 0x1419 DUP5 PUSH2 0x13E5 JUMP JUMPDEST PUSH2 0x11D4 JUMP JUMPDEST SWAP1 POP DUP1 PUSH1 0x20 DUP5 MUL DUP4 ADD DUP6 DUP2 GT ISZERO PUSH2 0x1438 JUMPI PUSH2 0x1437 PUSH2 0x12A0 JUMP JUMPDEST JUMPDEST DUP4 JUMPDEST DUP2 DUP2 LT ISZERO PUSH2 0x1461 JUMPI DUP1 PUSH2 0x144D DUP9 DUP3 PUSH2 0x1210 JUMP JUMPDEST DUP5 MSTORE PUSH1 0x20 DUP5 ADD SWAP4 POP POP PUSH1 0x20 DUP2 ADD SWAP1 POP PUSH2 0x143A JUMP JUMPDEST POP POP POP SWAP4 SWAP3 POP POP POP JUMP JUMPDEST PUSH1 0x0 DUP3 PUSH1 0x1F DUP4 ADD SLT PUSH2 0x1480 JUMPI PUSH2 0x147F PUSH2 0x1275 JUMP JUMPDEST JUMPDEST PUSH1 0x6 PUSH2 0x148D DUP5 DUP3 DUP6 PUSH2 0x140B JUMP JUMPDEST SWAP2 POP POP SWAP3 SWAP2 POP POP JUMP JUMPDEST PUSH1 0x0 DUP1 PUSH2 0x1C0 DUP4 DUP6 SUB SLT ISZERO PUSH2 0x14AE JUMPI PUSH2 0x14AD PUSH2 0x1159 JUMP JUMPDEST JUMPDEST PUSH1 0x0 PUSH2 0x14BC DUP6 DUP3 DUP7 ADD PUSH2 0x1380 JUMP JUMPDEST SWAP3 POP POP PUSH2 0x100 PUSH2 0x14CE DUP6 DUP3 DUP7 ADD PUSH2 0x146B JUMP JUMPDEST SWAP2 POP POP SWAP3 POP SWAP3 SWAP1 POP JUMP JUMPDEST PUSH1 0x0 DUP2 ISZERO ISZERO SWAP1 POP SWAP2 SWAP1 POP JUMP JUMPDEST PUSH2 0x14ED DUP2 PUSH2 0x14D8 JUMP JUMPDEST DUP3 MSTORE POP POP JUMP JUMPDEST PUSH1 0x0 PUSH1 0x20 DUP3 ADD SWAP1 POP PUSH2 0x1508 PUSH1 0x0 DUP4 ADD DUP5 PUSH2 0x14E4 JUMP JUMPDEST SWAP3 SWAP2 POP POP JUMP JUMPDEST PUSH32 0x4E487B7100000000000000000000000000000000000000000000000000000000 PUSH1 0x0 MSTORE PUSH1 0x32 PUSH1 0x4 MSTORE PUSH1 0x24 PUSH1 0x0 REVERT JUMPDEST PUSH32 0x4E487B7100000000000000000000000000000000000000000000000000000000 PUSH1 0x0 MSTORE PUSH1 0x11 PUSH1 0x4 MSTORE PUSH1 0x24 PUSH1 0x0 REVERT JUMPDEST PUSH1 0x0 PUSH2 0x1577 DUP3 PUSH2 0x11EF JUMP JUMPDEST SWAP2 POP PUSH2 0x1582 DUP4 PUSH2 0x11EF JUMP JUMPDEST SWAP3 POP DUP3 DUP3 ADD SWAP1 POP DUP1 DUP3 GT ISZERO PUSH2 0x159A JUMPI PUSH2 0x1599 PUSH2 0x153D JUMP JUMPDEST JUMPDEST SWAP3 SWAP2 POP POP JUMP JUMPDEST PUSH32 0x4E487B7100000000000000000000000000000000000000000000000000000000 PUSH1 0x0 MSTORE PUSH1 0x12 PUSH1 0x4 MSTORE PUSH1 0x24 PUSH1 0x0 REVERT JUMPDEST PUSH1 0x0 PUSH2 0x15DA DUP3 PUSH2 0x11EF JUMP JUMPDEST SWAP2 POP PUSH2 0x15E5 DUP4 PUSH2 0x11EF JUMP JUMPDEST SWAP3 POP DUP3 PUSH2 0x15F5 JUMPI PUSH2 0x15F4 PUSH2 0x15A0 JUMP JUMPDEST JUMPDEST DUP3 DUP3 MOD SWAP1 POP SWAP3 SWAP2 POP POP JUMP JUMPDEST PUSH1 0x0 PUSH2 0x160B DUP3 PUSH2 0x11EF JUMP JUMPDEST SWAP2 POP PUSH2 0x1616 DUP4 PUSH2 0x11EF JUMP JUMPDEST SWAP3 POP DUP3 DUP3 SUB SWAP1 POP DUP2 DUP2 GT ISZERO PUSH2 0x162E JUMPI PUSH2 0x162D PUSH2 0x153D JUMP JUMPDEST JUMPDEST SWAP3 SWAP2 POP POP JUMP JUMPDEST PUSH1 0x0 PUSH2 0x163F DUP3 PUSH2 0x11EF JUMP JUMPDEST SWAP2 POP PUSH2 0x164A DUP4 PUSH2 0x11EF JUMP JUMPDEST SWAP3 POP DUP3 DUP3 MUL PUSH2 0x1658 DUP2 PUSH2 0x11EF JUMP JUMPDEST SWAP2 POP DUP3 DUP3 DIV DUP5 EQ DUP4 ISZERO OR PUSH2 0x166F JUMPI PUSH2 0x166E PUSH2 0x153D JUMP JUMPDEST JUMPDEST POP SWAP3 SWAP2 POP POP JUMP INVALID LOG2 PUSH5 0x6970667358 0x22 SLT KECCAK256 SWAP6 PUSH24 0xAA7CA2821BDC0C85DF549BAFCE1EB081D617760ACC42FF16 DUP8 MOD SWAP10 PUSH24 0xB5EF64736F6C634300081800330000000000000000000000 "
        },
        "methodIdentifiers": {
          "verifyTx(((uint256,uint256),(uint256[2],uint256[2]),(uint256,uint256)),uint256[6])": "01ec1463"
        }
      }
    }
  }
}