{
  "_format": "hh-sol-artifact-1",
  "contractName": "Verifier",
  "sourceName": "contracts/Verifier.sol",
  "abi": [
    {
      "inputs": [
        {
          "components": [
            {
              "components": [
                {
                  "internalType": "uint256",
                  "name": "X",
                  "type": "uint256"
                },
                {
                  "internalType": "uint256",
                  "name": "Y",
                  "type": "uint256"
                }
              ],
              "internalType": "struct Pairing.G1Point",
              "name": "a",
              "type": "tuple"
            },
            {
              "components": [
                {
                  "internalType": "uint256[2]",
                  "name": "X",
                  "type": "uint256[2]"
                },
                {
                  "internalType": "uint256[2]",
                  "name": "Y",
                  "type": "uint256[2]"
                }
              ],
              "internalType": "struct Pairing.G2Point",
              "name": "b",
              "type": "tuple"
            },
            {
              "components": [
                {
                  "internalType": "uint256",
                  "name": "X",
                  "type": "uint256"
                },
                {
                  "internalType": "uint256",
                  "name": "Y",
                  "type": "uint256"
                }
              ],
              "internalType": "struct Pairing.G1Point",
              "name": "c",
              "type": "tuple"
            }
          ],
          "internalType": "struct Verifier.Proof",
          "name": "proof",
          "type": "tuple"
        },
        {
          "internalType": "uint256[6]",
          "name": "input",
          "type": "uint256[6]"
        }
      ],
      "name": "verifyTx",
      "outputs": [
        {
          "internalType": "bool",
          "name": "r",
          "type": "bool"
        }
      ],
      "stateMutability": "view",
      "type": "function"
    }
  ],
  "bytecode": "0x608060405234801561001057600080fd5b506116ac806100206000396000f3fe608060405234801561001057600080fd5b506004361061002b5760003560e01c806301ec146314610030575b600080fd5b61004a60048036038101906100459190611496565b610060565b60405161005791906114f3565b60405180910390f35b600080600667ffffffffffffffff81111561007e5761007d611174565b5b6040519080825280602002602001820160405280156100ac5781602001602082028036833780820191505090505b50905060005b60068110156100ff578381600681106100ce576100cd61150e565b5b60200201518282815181106100e6576100e561150e565b5b60200260200101818152505080806001019150506100b2565b50600061010c8286610127565b0361011b576001915050610121565b60009150505b92915050565b6000807f30644e72e131a029b85045b68181585d2833e84879b9709143e1f593f0000001905060006101576102b8565b90508060800151516001865161016d919061156c565b1461017757600080fd5b60006040518060400160405280600081526020016000815250905060005b865181101561022a57838782815181106101b2576101b161150e565b5b6020026020010151106101c457600080fd5b61021b8261021685608001516001856101dd919061156c565b815181106101ee576101ed61150e565b5b60200260200101518a85815181106102095761020861150e565b5b6020026020010151610914565b6109b6565b91508080600101915050610195565b506102548183608001516000815181106102475761024661150e565b5b60200260200101516109b6565b905061029a8560000151866020015161026c84610a7e565b856040015161027e8a60400151610a7e565b87606001516102908960000151610a7e565b8960200151610b23565b6102aa57600193505050506102b2565b600093505050505b92915050565b6102c0611040565b60405180604001604052807f15cd1a2013b0ec065b8c5e4bd4944e8891fbd4479aaceea93fb2c46e92b426d581526020017f1ca30177e79603543a0e44fa1184e216b815df87f2aab6bf2a233befd4092dd98152508160000181905250604051806040016040528060405180604001604052807f2003706b41ab9a64eff7019b2428fc9c715dfdbcdcf5fb0bda2b626a3951ca1f81526020017f131a92936c7cab4f39f831289e1babeb48693d747a8210f92000a139b1635084815250815260200160405180604001604052807f208cd8ac670ffcb390413b064f9934cc37659b00570209e84aea2d96b0b6674581526020017f1c4cf2f441bac7fe061755f999d1699a02881c04638d1bbf898d9244db56499d8152508152508160200181905250604051806040016040528060405180604001604052807f0c771d0aa5f68cea8784adcdc15274a25411835f731da3f7a1471799cb90a23f81526020017f13a2112b81218c3ea174c7dcfcaaa66afdaa77e04214cb4714bd74b8998d6898815250815260200160405180604001604052807f19d04869de9b014869abb9a4ddacc8b92f03344ddd51a49cd2ebf19857676ec281526020017f0fab1dbac7f5d0caf4f59f930d3d395b688b1ff3f8affb21096cf8fbf41419d18152508152508160400181905250604051806040016040528060405180604001604052807f299721dc4a868d279999740dfdc990a52e157233515af3b797373642bff1f46081526020017f0e2e0ca9f45c472d7a1746557645eb77b8093fa7fc159650d2b952982ad8291d815250815260200160405180604001604052807f07fd243a9ce450f0f4609c036ee79ddc536140ed76573ae197264f379aeb9ad781526020017f28b0e752717361414dce9dce133d50a4169e013be3408d948760b0085aff07938152508152508160600181905250600767ffffffffffffffff81111561058757610586611174565b5b6040519080825280602002602001820160405280156105c057816020015b6105ad611087565b8152602001906001900390816105a55790505b50816080018190525060405180604001604052807f1cc08e08bd7a0a1b40495db9aac1d787aff1d0182c6c8c0678bcc5eeebdcdc6481526020017f1121c9800a4da5a17ec4b304101bc3973b8c293d1f31cf59b752926295334e9d81525081608001516000815181106106365761063561150e565b5b602002602001018190525060405180604001604052807f10430b0234cfe0cc00427e9eb253ee19fdb92b5d2bf900bb8bbfa6cc6b2ed7dc81526020017f2e15b6111bb679598adde0f7c4ad623b7d820a65db507034bd7b21c74342564981525081608001516001815181106106ae576106ad61150e565b5b602002602001018190525060405180604001604052807f19d928e65f9218a6b3bf9a255a88a5fbc921c40597723126a43fa16b38e72cd581526020017f1bb42e8ca087f9766a6d7d5f504829b172422711a1961385341f464772b9d84481525081608001516002815181106107265761072561150e565b5b602002602001018190525060405180604001604052807f152bf2e76327f9875708699d5b9336bafb237bf58a1729817c79788059cc056881526020017f225a9fba2c5214de10bc9a0c167e48b926acde6d5b96696fc77443024886ac98815250816080015160038151811061079e5761079d61150e565b5b602002602001018190525060405180604001604052807f20bdee67a83870d180108071ca3768191b2b64bd3bafc852d883adda0662524c81526020017f2c9e9de6c762e9f49dff458c0f4766611b258c25723b9d0a3b3d109e88a7817381525081608001516004815181106108165761081561150e565b5b602002602001018190525060405180604001604052807f11e0e0a45ae930685ae3584779201b0b1a63f4b443a88c57e81684feb0e1232281526020017f2103eb8e265ec7ea64f0e168db5a924d932389d2d726072546797c363b02efb8815250816080015160058151811061088e5761088d61150e565b5b602002602001018190525060405180604001604052807f139ba62755b4d57950475c44183cb397aeafd8a07d730d67601a768cc7f07e6e81526020017f0d5d1e00d002345a5a86a6aa05dc7b5c9bd6ba535f2f17aebe29d24b1975421681525081608001516006815181106109065761090561150e565b5b602002602001018190525090565b61091c611087565b6109246110a1565b83600001518160006003811061093d5761093c61150e565b5b60200201818152505083602001518160016003811061095f5761095e61150e565b5b602002018181525050828160026003811061097d5761097c61150e565b5b602002018181525050600060608360808460076107d05a03fa905080600081036109a357fe5b50806109ae57600080fd5b505092915050565b6109be611087565b6109c66110c3565b8360000151816000600481106109df576109de61150e565b5b602002018181525050836020015181600160048110610a0157610a0061150e565b5b602002018181525050826000015181600260048110610a2357610a2261150e565b5b602002018181525050826020015181600360048110610a4557610a4461150e565b5b602002018181525050600060608360c08460066107d05a03fa90508060008103610a6b57fe5b5080610a7657600080fd5b505092915050565b610a86611087565b60007f30644e72e131a029b85045b68181585d97816a916871ca8d3c208c16d87cfd47905060008360000151148015610ac3575060008360200151145b15610ae7576040518060400160405280600081526020016000815250915050610b1e565b604051806040016040528084600001518152602001828560200151610b0c91906115cf565b83610b179190611600565b8152509150505b919050565b600080600467ffffffffffffffff811115610b4157610b40611174565b5b604051908082528060200260200182016040528015610b7a57816020015b610b67611087565b815260200190600190039081610b5f5790505b5090506000600467ffffffffffffffff811115610b9a57610b99611174565b5b604051908082528060200260200182016040528015610bd357816020015b610bc06110e5565b815260200190600190039081610bb85790505b5090508a82600081518110610beb57610bea61150e565b5b60200260200101819052508882600181518110610c0b57610c0a61150e565b5b60200260200101819052508682600281518110610c2b57610c2a61150e565b5b60200260200101819052508482600381518110610c4b57610c4a61150e565b5b60200260200101819052508981600081518110610c6b57610c6a61150e565b5b60200260200101819052508781600181518110610c8b57610c8a61150e565b5b60200260200101819052508581600281518110610cab57610caa61150e565b5b60200260200101819052508381600381518110610ccb57610cca61150e565b5b6020026020010181905250610ce08282610cf0565b9250505098975050505050505050565b60008151835114610d0057600080fd5b6000835190506000600682610d159190611634565b905060008167ffffffffffffffff811115610d3357610d32611174565b5b604051908082528060200260200182016040528015610d615781602001602082028036833780820191505090505b50905060005b83811015610fe057868181518110610d8257610d8161150e565b5b602002602001015160000151826000600684610d9e9190611634565b610da8919061156c565b81518110610db957610db861150e565b5b602002602001018181525050868181518110610dd857610dd761150e565b5b602002602001015160200151826001600684610df49190611634565b610dfe919061156c565b81518110610e0f57610e0e61150e565b5b602002602001018181525050858181518110610e2e57610e2d61150e565b5b602002602001015160000151600160028110610e4d57610e4c61150e565b5b6020020151826002600684610e629190611634565b610e6c919061156c565b81518110610e7d57610e7c61150e565b5b602002602001018181525050858181518110610e9c57610e9b61150e565b5b602002602001015160000151600060028110610ebb57610eba61150e565b5b6020020151826003600684610ed09190611634565b610eda919061156c565b81518110610eeb57610eea61150e565b5b602002602001018181525050858181518110610f0a57610f0961150e565b5b602002602001015160200151600160028110610f2957610f2861150e565b5b6020020151826004600684610f3e9190611634565b610f48919061156c565b81518110610f5957610f5861150e565b5b602002602001018181525050858181518110610f7857610f7761150e565b5b602002602001015160200151600060028110610f9757610f9661150e565b5b6020020151826005600684610fac9190611634565b610fb6919061156c565b81518110610fc757610fc661150e565b5b6020026020010181815250508080600101915050610d67565b50610fe961110b565b6000602082602086026020860160086107d05a03fa9050806000810361100b57fe5b508061101657600080fd5b60008260006001811061102c5761102b61150e565b5b602002015114159550505050505092915050565b6040518060a00160405280611053611087565b81526020016110606110e5565b815260200161106d6110e5565b815260200161107a6110e5565b8152602001606081525090565b604051806040016040528060008152602001600081525090565b6040518060600160405280600390602082028036833780820191505090505090565b6040518060800160405280600490602082028036833780820191505090505090565b60405180604001604052806110f861112d565b815260200161110561112d565b81525090565b6040518060200160405280600190602082028036833780820191505090505090565b6040518060400160405280600290602082028036833780820191505090505090565b6000604051905090565b600080fd5b600080fd5b6000601f19601f8301169050919050565b7f4e487b7100000000000000000000000000000000000000000000000000000000600052604160045260246000fd5b6111ac82611163565b810181811067ffffffffffffffff821117156111cb576111ca611174565b5b80604052505050565b60006111de61114f565b90506111ea82826111a3565b919050565b6000819050919050565b611202816111ef565b811461120d57600080fd5b50565b60008135905061121f816111f9565b92915050565b60006040828403121561123b5761123a61115e565b5b61124560406111d4565b9050600061125584828501611210565b600083015250602061126984828501611210565b60208301525092915050565b600080fd5b600067ffffffffffffffff82111561129557611294611174565b5b602082029050919050565b600080fd5b60006112b86112b38461127a565b6111d4565b905080602084028301858111156112d2576112d16112a0565b5b835b818110156112fb57806112e78882611210565b8452602084019350506020810190506112d4565b5050509392505050565b600082601f83011261131a57611319611275565b5b60026113278482856112a5565b91505092915050565b6000608082840312156113465761134561115e565b5b61135060406111d4565b9050600061136084828501611305565b600083015250604061137484828501611305565b60208301525092915050565b600061010082840312156113975761139661115e565b5b6113a160606111d4565b905060006113b184828501611225565b60008301525060406113c584828501611330565b60208301525060c06113d984828501611225565b60408301525092915050565b600067ffffffffffffffff821115611400576113ff611174565b5b602082029050919050565b600061141e611419846113e5565b6111d4565b90508060208402830185811115611438576114376112a0565b5b835b81811015611461578061144d8882611210565b84526020840193505060208101905061143a565b5050509392505050565b600082601f8301126114805761147f611275565b5b600661148d84828561140b565b91505092915050565b6000806101c083850312156114ae576114ad611159565b5b60006114bc85828601611380565b9250506101006114ce8582860161146b565b9150509250929050565b60008115159050919050565b6114ed816114d8565b82525050565b600060208201905061150860008301846114e4565b92915050565b7f4e487b7100000000000000000000000000000000000000000000000000000000600052603260045260246000fd5b7f4e487b7100000000000000000000000000000000000000000000000000000000600052601160045260246000fd5b6000611577826111ef565b9150611582836111ef565b925082820190508082111561159a5761159961153d565b5b92915050565b7f4e487b7100000000000000000000000000000000000000000000000000000000600052601260045260246000fd5b60006115da826111ef565b91506115e5836111ef565b9250826115f5576115f46115a0565b5b828206905092915050565b600061160b826111ef565b9150611616836111ef565b925082820390508181111561162e5761162d61153d565b5b92915050565b600061163f826111ef565b915061164a836111ef565b9250828202611658816111ef565b9150828204841483151761166f5761166e61153d565b5b509291505056fea26469706673582212209577aa7ca2821bdc0c85df549bafce1eb081d617760acc42ff1687069977b5ef64736f6c63430008180033",
  "linkReferences": {},
  "deployedLinkReferences": {}
}