{
  "_format": "hh-sol-artifact-1",
  "contractName": "VotingFactory",
  "sourceName": "contracts/VoteFactory.sol",
  "abi": [
    {
      "inputs": [
        {
          "internalType": "address",
          "name": "_voteContractAddress",
          "type": "address"
        }
      ],
      "stateMutability": "nonpayable",
      "type": "constructor"
    },
    {
      "anonymous": false,
      "inputs": [
        {
          "indexed": true,
          "internalType": "address",
          "name": "owner",
          "type": "address"
        },
        {
          "indexed": false,
          "internalType": "address",
          "name": "voteContractAddress",
          "type": "address"
        }
      ],
      "name": "VoteContractCreated",
      "type": "event"
    },
    {
      "inputs": [],
      "name": "createVote",
      "outputs": [],
      "stateMutability": "nonpayable",
      "type": "function"
    },
    {
      "inputs": [
        {
          "internalType": "address",
          "name": "owner",
          "type": "address"
        }
      ],
      "name": "getVotingContractsByOwner",
      "outputs": [
        {
          "internalType": "address[]",
          "name": "",
          "type": "address[]"
        }
      ],
      "stateMutability": "view",
      "type": "function"
    },
    {
      "inputs": [
        {
          "internalType": "address",
          "name": "",
          "type": "address"
        },
        {
          "internalType": "uint256",
          "name": "",
          "type": "uint256"
        }
      ],
      "name": "votingContracts",
      "outputs": [
        {
          "internalType": "address",
          "name": "",
          "type": "address"
        }
      ],
      "stateMutability": "view",
      "type": "function"
    }
  ],
  "bytecode": "0x608060405234801561001057600080fd5b5060405161068a38038061068a833981810160405281019061003291906100dc565b80600160006101000a81548173ffffffffffffffffffffffffffffffffffffffff021916908373ffffffffffffffffffffffffffffffffffffffff16021790555050610109565b600080fd5b600073ffffffffffffffffffffffffffffffffffffffff82169050919050565b60006100a98261007e565b9050919050565b6100b98161009e565b81146100c457600080fd5b50565b6000815190506100d6816100b0565b92915050565b6000602082840312156100f2576100f1610079565b5b6000610100848285016100c7565b91505092915050565b610572806101186000396000f3fe608060405234801561001057600080fd5b50600436106100415760003560e01c806307de98c414610046578063694ff0f214610076578063798d39b214610080575b600080fd5b610060600480360381019061005b91906103c5565b6100b0565b60405161006d9190610414565b60405180910390f35b61007e6100fe565b005b61009a6004803603810190610095919061042f565b61021d565b6040516100a7919061051a565b60405180910390f35b600060205281600052604060002081815481106100cc57600080fd5b906000526020600020016000915091509054906101000a900473ffffffffffffffffffffffffffffffffffffffff1681565b600061012b600160009054906101000a900473ffffffffffffffffffffffffffffffffffffffff166102e9565b90506000803373ffffffffffffffffffffffffffffffffffffffff1673ffffffffffffffffffffffffffffffffffffffff168152602001908152602001600020819080600181540180825580915050600190039060005260206000200160009091909190916101000a81548173ffffffffffffffffffffffffffffffffffffffff021916908373ffffffffffffffffffffffffffffffffffffffff1602179055503373ffffffffffffffffffffffffffffffffffffffff167fac623816d8a99041787f6c3a6bbe17e0c6c49487ec9966ab684df350f972ab56826040516102129190610414565b60405180910390a250565b60606000808373ffffffffffffffffffffffffffffffffffffffff1673ffffffffffffffffffffffffffffffffffffffff1681526020019081526020016000208054806020026020016040519081016040528092919081815260200182805480156102dd57602002820191906000526020600020905b8160009054906101000a900473ffffffffffffffffffffffffffffffffffffffff1673ffffffffffffffffffffffffffffffffffffffff1681526020019060010190808311610293575b50505050509050919050565b6000808260601b9050604051693d602d80600a3d3981f381528160148201526e5af43d82803e903d91602b57fd5bf360288201526037816000f092505050919050565b600080fd5b600073ffffffffffffffffffffffffffffffffffffffff82169050919050565b600061035c82610331565b9050919050565b61036c81610351565b811461037757600080fd5b50565b60008135905061038981610363565b92915050565b6000819050919050565b6103a28161038f565b81146103ad57600080fd5b50565b6000813590506103bf81610399565b92915050565b600080604083850312156103dc576103db61032c565b5b60006103ea8582860161037a565b92505060206103fb858286016103b0565b9150509250929050565b61040e81610351565b82525050565b60006020820190506104296000830184610405565b92915050565b6000602082840312156104455761044461032c565b5b60006104538482850161037a565b91505092915050565b600081519050919050565b600082825260208201905092915050565b6000819050602082019050919050565b61049181610351565b82525050565b60006104a38383610488565b60208301905092915050565b6000602082019050919050565b60006104c78261045c565b6104d18185610467565b93506104dc83610478565b8060005b8381101561050d5781516104f48882610497565b97506104ff836104af565b9250506001810190506104e0565b5085935050505092915050565b6000602082019050818103600083015261053481846104bc565b90509291505056fea264697066735822122042dbb154b4417c384984e2202207e28fc9ad50f8232b7386908be5b8571055be64736f6c63430008180033",
  "linkReferences": {},
  "deployedLinkReferences": {}
}