{
  "_format": "hh-sol-artifact-1",
  "contractName": "VotingFactory",
  "sourceName": "contracts/VoteFactory.sol",
  "abi": [
    {
      "inputs": [
        {
          "internalType": "address",
          "name": "_voteContractAddress",
          "type": "address"
        }
      ],
      "stateMutability": "nonpayable",
      "type": "constructor"
    },
    {
      "anonymous": false,
      "inputs": [
        {
          "indexed": true,
          "internalType": "address",
          "name": "owner",
          "type": "address"
        },
        {
          "indexed": false,
          "internalType": "address",
          "name": "voteContractAddress",
          "type": "address"
        }
      ],
      "name": "VoteContractCreated",
      "type": "event"
    },
    {
      "inputs": [],
      "name": "CreateNewVote",
      "outputs": [],
      "stateMutability": "nonpayable",
      "type": "function"
    },
    {
      "inputs": [
        {
          "internalType": "address",
          "name": "owner",
          "type": "address"
        }
      ],
      "name": "getVotingContractsByOwner",
      "outputs": [
        {
          "internalType": "address[]",
          "name": "",
          "type": "address[]"
        }
      ],
      "stateMutability": "view",
      "type": "function"
    },
    {
      "inputs": [
        {
          "internalType": "address",
          "name": "",
          "type": "address"
        },
        {
          "internalType": "uint256",
          "name": "",
          "type": "uint256"
        }
      ],
      "name": "votingContracts",
      "outputs": [
        {
          "internalType": "address",
          "name": "",
          "type": "address"
        }
      ],
      "stateMutability": "view",
      "type": "function"
    }
  ],
  "bytecode": "0x608060405234801561001057600080fd5b50604051612839380380612839833981810160405281019061003291906100dc565b80600160006101000a81548173ffffffffffffffffffffffffffffffffffffffff021916908373ffffffffffffffffffffffffffffffffffffffff16021790555050610109565b600080fd5b600073ffffffffffffffffffffffffffffffffffffffff82169050919050565b60006100a98261007e565b9050919050565b6100b98161009e565b81146100c457600080fd5b50565b6000815190506100d6816100b0565b92915050565b6000602082840312156100f2576100f1610079565b5b6000610100848285016100c7565b91505092915050565b612721806101186000396000f3fe608060405234801561001057600080fd5b50600436106100415760003560e01c806307de98c4146100465780636b256d6c14610076578063798d39b214610080575b600080fd5b610060600480360381019061005b9190610393565b6100b0565b60405161006d91906103e2565b60405180910390f35b61007e6100fe565b005b61009a600480360381019061009591906103fd565b610221565b6040516100a791906104e8565b60405180910390f35b600060205281600052604060002081815481106100cc57600080fd5b906000526020600020016000915091509054906101000a900473ffffffffffffffffffffffffffffffffffffffff1681565b600060405161010c906102ed565b604051809103906000f080158015610128573d6000803e3d6000fd5b50905060008190506000803373ffffffffffffffffffffffffffffffffffffffff1673ffffffffffffffffffffffffffffffffffffffff168152602001908152602001600020819080600181540180825580915050600190039060005260206000200160009091909190916101000a81548173ffffffffffffffffffffffffffffffffffffffff021916908373ffffffffffffffffffffffffffffffffffffffff1602179055503373ffffffffffffffffffffffffffffffffffffffff167fac623816d8a99041787f6c3a6bbe17e0c6c49487ec9966ab684df350f972ab568260405161021591906103e2565b60405180910390a25050565b60606000808373ffffffffffffffffffffffffffffffffffffffff1673ffffffffffffffffffffffffffffffffffffffff1681526020019081526020016000208054806020026020016040519081016040528092919081815260200182805480156102e157602002820191906000526020600020905b8160009054906101000a900473ffffffffffffffffffffffffffffffffffffffff1673ffffffffffffffffffffffffffffffffffffffff1681526020019060010190808311610297575b50505050509050919050565b6121e18061050b83390190565b600080fd5b600073ffffffffffffffffffffffffffffffffffffffff82169050919050565b600061032a826102ff565b9050919050565b61033a8161031f565b811461034557600080fd5b50565b60008135905061035781610331565b92915050565b6000819050919050565b6103708161035d565b811461037b57600080fd5b50565b60008135905061038d81610367565b92915050565b600080604083850312156103aa576103a96102fa565b5b60006103b885828601610348565b92505060206103c98582860161037e565b9150509250929050565b6103dc8161031f565b82525050565b60006020820190506103f760008301846103d3565b92915050565b600060208284031215610413576104126102fa565b5b600061042184828501610348565b91505092915050565b600081519050919050565b600082825260208201905092915050565b6000819050602082019050919050565b61045f8161031f565b82525050565b60006104718383610456565b60208301905092915050565b6000602082019050919050565b60006104958261042a565b61049f8185610435565b93506104aa83610446565b8060005b838110156104db5781516104c28882610465565b97506104cd8361047d565b9250506001810190506104ae565b5085935050505092915050565b60006020820190508181036000830152610502818461048a565b90509291505056fe608060405234801561001057600080fd5b506121c1806100206000396000f3fe608060405234801561001057600080fd5b50600436106101005760003560e01c80637469b4a711610097578063d45b311c11610066578063d45b311c146102a0578063ee8ebc81146102bc578063ef430aa6146102d8578063f1dceef2146102f657610100565b80637469b4a7146102035780638622a6891461021f578063b13c744b1461023d578063c5539cc21461026d57610100565b80632b7ac3f3116100d35780632b7ac3f31461018d57806330be07af146101ab5780635bcc58ea146101c75780637284e416146101e557610100565b806312fa6feb1461010557806313ee4051146101235780631f2698ab146101535780632142bdd014610171575b600080fd5b61010d610300565b60405161011a919061124b565b60405180910390f35b61013d600480360381019061013891906112b0565b610311565b60405161014a919061124b565b60405180910390f35b61015b61033e565b604051610168919061124b565b60405180910390f35b61018b60048036038101906101869190611313565b610351565b005b610195610408565b6040516101a29190611381565b60405180910390f35b6101c560048036038101906101c091906114e2565b61042e565b005b6101cf61047e565b6040516101dc919061171b565b60405180910390f35b6101ed610773565b6040516101fa9190611787565b60405180910390f35b61021d600480360381019061021891906117a9565b610801565b005b610227610944565b6040516102349190611814565b60405180910390f35b61025760048036038101906102529190611313565b61094a565b6040516102649190611787565b60405180910390f35b6102876004803603810190610282919061182f565b6109f6565b6040516102979493929190611878565b60405180910390f35b6102ba60048036038101906102b59190611932565b610bd4565b005b6102d660048036038101906102d191906112b0565b610e27565b005b6102e0610f34565b6040516102ed9190611787565b60405180910390f35b6102fe610fc2565b005b60018054906101000a900460ff1681565b60006004600083815260200190815260200160002060000160019054906101000a900460ff169050919050565b600160009054906101000a900460ff1681565b600160009054906101000a900460ff1615610398576040517f3b51a3e000000000000000000000000000000000000000000000000000000000815260040160405180910390fd5b603c816103a59190611a15565b426103b09190611a57565b60008190555060018060006101000a81548160ff0219169083151502179055507f18c6a608f6baf3a1b3d83912d37e7441a6219e6770604851fe47c24cc2d0115a6040516103fd90611ad7565b60405180910390a150565b600160029054906101000a900473ffffffffffffffffffffffffffffffffffffffff1681565b816002908161043d9190611d03565b50806003908161044d9190611d03565b507f79b3ff2be1c88ef95d27abdd511f598fdf951e5db4a3240626deff68d46fd10460405160405180910390a15050565b606060018054906101000a900460ff166104cd576040517f1c8975cf0000000000000000000000000000000000000000000000000000000081526004016104c490611e21565b60405180910390fd5b600060068054905067ffffffffffffffff8111156104ee576104ed6113b7565b5b60405190808252806020026020018201604052801561052757816020015b610514611208565b81526020019060019003908161050c5790505b50905060005b60068054905081101561076b576005600682815481106105505761054f611e41565b5b906000526020600020016040516105679190611efe565b908152602001604051809103902060405180608001604052908160008201805461059090611b26565b80601f01602080910402602001604051908101604052809291908181526020018280546105bc90611b26565b80156106095780601f106105de57610100808354040283529160200191610609565b820191906000526020600020905b8154815290600101906020018083116105ec57829003601f168201915b5050505050815260200160018201805461062290611b26565b80601f016020809104026020016040519081016040528092919081815260200182805461064e90611b26565b801561069b5780601f106106705761010080835404028352916020019161069b565b820191906000526020600020905b81548152906001019060200180831161067e57829003601f168201915b505050505081526020016002820180546106b490611b26565b80601f01602080910402602001604051908101604052809291908181526020018280546106e090611b26565b801561072d5780601f106107025761010080835404028352916020019161072d565b820191906000526020600020905b81548152906001019060200180831161071057829003601f168201915b5050505050815260200160038201548152505082828151811061075357610752611e41565b5b6020026020010181905250808060010191505061052d565b508091505090565b6003805461078090611b26565b80601f01602080910402602001604051908101604052809291908181526020018280546107ac90611b26565b80156107f95780601f106107ce576101008083540402835291602001916107f9565b820191906000526020600020905b8154815290600101906020018083116107dc57829003601f168201915b505050505081565b600160009054906101000a900460ff16610847576040517f6314ffc900000000000000000000000000000000000000000000000000000000815260040160405180910390fd5b6004600083815260200190815260200160002060000160009054906101000a900460ff16156108a2576040517f6173109400000000000000000000000000000000000000000000000000000000815260040160405180910390fd5b60006005826040516108b49190611f46565b908152602001604051809103902060000180546108d090611b26565b905003610909576040517f6eaadb4200000000000000000000000000000000000000000000000000000000815260040160405180910390fd5b61091382826110da565b817f3640eeeffdb1307d3c0017a75ed51f76d569b685ccb7074f10a0bd92f96ddf2260405160405180910390a25050565b60005481565b6006818154811061095a57600080fd5b90600052602060002001600091509050805461097590611b26565b80601f01602080910402602001604051908101604052809291908181526020018280546109a190611b26565b80156109ee5780601f106109c3576101008083540402835291602001916109ee565b820191906000526020600020905b8154815290600101906020018083116109d157829003601f168201915b505050505081565b600581805160208101820180518482526020830160208501208183528095505050505050600091509050806000018054610a2f90611b26565b80601f0160208091040260200160405190810160405280929190818152602001828054610a5b90611b26565b8015610aa85780601f10610a7d57610100808354040283529160200191610aa8565b820191906000526020600020905b815481529060010190602001808311610a8b57829003601f168201915b505050505090806001018054610abd90611b26565b80601f0160208091040260200160405190810160405280929190818152602001828054610ae990611b26565b8015610b365780601f10610b0b57610100808354040283529160200191610b36565b820191906000526020600020905b815481529060010190602001808311610b1957829003601f168201915b505050505090806002018054610b4b90611b26565b80601f0160208091040260200160405190810160405280929190818152602001828054610b7790611b26565b8015610bc45780601f10610b9957610100808354040283529160200191610bc4565b820191906000526020600020905b815481529060010190602001808311610ba757829003601f168201915b5050505050908060030154905084565b600060058585604051610be8929190611f82565b90815260200160405180910390206000018054610c0490611b26565b905014610c3d576040517f507f223100000000000000000000000000000000000000000000000000000000815260040160405180910390fd5b6000604051806080016040528088888080601f016020809104026020016040519081016040528093929190818152602001838380828437600081840152601f19601f82011690508083019250505050505050815260200186868080601f016020809104026020016040519081016040528093929190818152602001838380828437600081840152601f19601f82011690508083019250505050505050815260200184848080601f016020809104026020016040519081016040528093929190818152602001838380828437600081840152601f19601f820116905080830192505050505050508152602001600081525090508060058686604051610d42929190611f82565b90815260200160405180910390206000820151816000019081610d659190611d03565b506020820151816001019081610d7b9190611d03565b506040820151816002019081610d919190611d03565b50606082015181600301559050506006858590918060018154018082558091505060019003906000526020600020016000909192909192909192909192509182610ddc929190611fa6565b507fa620e116e8168f7281127a47ac04518b6fbd8b07cd150397e6e3e56127ce48cf878787878787604051610e16969594939291906120a3565b60405180910390a150505050505050565b6004600082815260200190815260200160002060000160019054906101000a900460ff1615610e8d57806040517f978f59cf000000000000000000000000000000000000000000000000000000008152600401610e849190612104565b60405180910390fd5b60006040518060400160405280600015158152602001600115158152509050806004600084815260200190815260200160002060008201518160000160006101000a81548160ff02191690831515021790555060208201518160000160016101000a81548160ff021916908315150217905550905050817f18edffd1022a6c8a5c2fb84945056621aad34f1172f8048b9f0b788bf253562860405160405180910390a25050565b60028054610f4190611b26565b80601f0160208091040260200160405190810160405280929190818152602001828054610f6d90611b26565b8015610fba5780601f10610f8f57610100808354040283529160200191610fba565b820191906000526020600020905b815481529060010190602001808311610f9d57829003601f168201915b505050505081565b600160009054906101000a900460ff16611008576040517f6314ffc900000000000000000000000000000000000000000000000000000000815260040160405180910390fd5b600054421015611044576040517fd468151f00000000000000000000000000000000000000000000000000000000815260040160405180910390fd5b60018054906101000a900460ff1615611089576040517f181ff59a00000000000000000000000000000000000000000000000000000000815260040160405180910390fd5b60018060016101000a81548160ff0219169083151502179055507f74e0b2978c99ca20b757f0f8b458fc435f508ea64c542132a673e898b96f535d6040516110d09061216b565b60405180910390a1565b60006005826040516110ec9190611f46565b9081526020016040518091039020600001805461110890611b26565b905003611141576040517f6eaadb4200000000000000000000000000000000000000000000000000000000815260040160405180910390fd5b6004600083815260200190815260200160002060000160009054906101000a900460ff161561119c576040517f6173109400000000000000000000000000000000000000000000000000000000815260040160405180910390fd5b60016004600084815260200190815260200160002060000160006101000a81548160ff02191690831515021790555060016005826040516111dd9190611f46565b908152602001604051809103902060030160008282546111fd9190611a57565b925050819055505050565b6040518060800160405280606081526020016060815260200160608152602001600081525090565b60008115159050919050565b61124581611230565b82525050565b6000602082019050611260600083018461123c565b92915050565b6000604051905090565b600080fd5b600080fd5b6000819050919050565b61128d8161127a565b811461129857600080fd5b50565b6000813590506112aa81611284565b92915050565b6000602082840312156112c6576112c5611270565b5b60006112d48482850161129b565b91505092915050565b6000819050919050565b6112f0816112dd565b81146112fb57600080fd5b50565b60008135905061130d816112e7565b92915050565b60006020828403121561132957611328611270565b5b6000611337848285016112fe565b91505092915050565b600073ffffffffffffffffffffffffffffffffffffffff82169050919050565b600061136b82611340565b9050919050565b61137b81611360565b82525050565b60006020820190506113966000830184611372565b92915050565b600080fd5b600080fd5b6000601f19601f8301169050919050565b7f4e487b7100000000000000000000000000000000000000000000000000000000600052604160045260246000fd5b6113ef826113a6565b810181811067ffffffffffffffff8211171561140e5761140d6113b7565b5b80604052505050565b6000611421611266565b905061142d82826113e6565b919050565b600067ffffffffffffffff82111561144d5761144c6113b7565b5b611456826113a6565b9050602081019050919050565b82818337600083830152505050565b600061148561148084611432565b611417565b9050828152602081018484840111156114a1576114a06113a1565b5b6114ac848285611463565b509392505050565b600082601f8301126114c9576114c861139c565b5b81356114d9848260208601611472565b91505092915050565b600080604083850312156114f9576114f8611270565b5b600083013567ffffffffffffffff81111561151757611516611275565b5b611523858286016114b4565b925050602083013567ffffffffffffffff81111561154457611543611275565b5b611550858286016114b4565b9150509250929050565b600081519050919050565b600082825260208201905092915050565b6000819050602082019050919050565b600081519050919050565b600082825260208201905092915050565b60005b838110156115c05780820151818401526020810190506115a5565b60008484015250505050565b60006115d782611586565b6115e18185611591565b93506115f18185602086016115a2565b6115fa816113a6565b840191505092915050565b61160e816112dd565b82525050565b6000608083016000830151848203600086015261163182826115cc565b9150506020830151848203602086015261164b82826115cc565b9150506040830151848203604086015261166582826115cc565b915050606083015161167a6060860182611605565b508091505092915050565b60006116918383611614565b905092915050565b6000602082019050919050565b60006116b18261155a565b6116bb8185611565565b9350836020820285016116cd85611576565b8060005b8581101561170957848403895281516116ea8582611685565b94506116f583611699565b925060208a019950506001810190506116d1565b50829750879550505050505092915050565b6000602082019050818103600083015261173581846116a6565b905092915050565b600082825260208201905092915050565b600061175982611586565b611763818561173d565b93506117738185602086016115a2565b61177c816113a6565b840191505092915050565b600060208201905081810360008301526117a1818461174e565b905092915050565b600080604083850312156117c0576117bf611270565b5b60006117ce8582860161129b565b925050602083013567ffffffffffffffff8111156117ef576117ee611275565b5b6117fb858286016114b4565b9150509250929050565b61180e816112dd565b82525050565b60006020820190506118296000830184611805565b92915050565b60006020828403121561184557611844611270565b5b600082013567ffffffffffffffff81111561186357611862611275565b5b61186f848285016114b4565b91505092915050565b60006080820190508181036000830152611892818761174e565b905081810360208301526118a6818661174e565b905081810360408301526118ba818561174e565b90506118c96060830184611805565b95945050505050565b600080fd5b600080fd5b60008083601f8401126118f2576118f161139c565b5b8235905067ffffffffffffffff81111561190f5761190e6118d2565b5b60208301915083600182028301111561192b5761192a6118d7565b5b9250929050565b6000806000806000806060878903121561194f5761194e611270565b5b600087013567ffffffffffffffff81111561196d5761196c611275565b5b61197989828a016118dc565b9650965050602087013567ffffffffffffffff81111561199c5761199b611275565b5b6119a889828a016118dc565b9450945050604087013567ffffffffffffffff8111156119cb576119ca611275565b5b6119d789828a016118dc565b92509250509295509295509295565b7f4e487b7100000000000000000000000000000000000000000000000000000000600052601160045260246000fd5b6000611a20826112dd565b9150611a2b836112dd565b9250828202611a39816112dd565b91508282048414831517611a5057611a4f6119e6565b5b5092915050565b6000611a62826112dd565b9150611a6d836112dd565b9250828201905080821115611a8557611a846119e6565b5b92915050565b7f566f74696e672068617320737461727465640000000000000000000000000000600082015250565b6000611ac160128361173d565b9150611acc82611a8b565b602082019050919050565b60006020820190508181036000830152611af081611ab4565b9050919050565b7f4e487b7100000000000000000000000000000000000000000000000000000000600052602260045260246000fd5b60006002820490506001821680611b3e57607f821691505b602082108103611b5157611b50611af7565b5b50919050565b60008190508160005260206000209050919050565b60006020601f8301049050919050565b600082821b905092915050565b600060088302611bb97fffffffffffffffffffffffffffffffffffffffffffffffffffffffffffffffff82611b7c565b611bc38683611b7c565b95508019841693508086168417925050509392505050565b6000819050919050565b6000611c00611bfb611bf6846112dd565b611bdb565b6112dd565b9050919050565b6000819050919050565b611c1a83611be5565b611c2e611c2682611c07565b848454611b89565b825550505050565b600090565b611c43611c36565b611c4e818484611c11565b505050565b5b81811015611c7257611c67600082611c3b565b600181019050611c54565b5050565b601f821115611cb757611c8881611b57565b611c9184611b6c565b81016020851015611ca0578190505b611cb4611cac85611b6c565b830182611c53565b50505b505050565b600082821c905092915050565b6000611cda60001984600802611cbc565b1980831691505092915050565b6000611cf38383611cc9565b9150826002028217905092915050565b611d0c82611586565b67ffffffffffffffff811115611d2557611d246113b7565b5b611d2f8254611b26565b611d3a828285611c76565b600060209050601f831160018114611d6d5760008415611d5b578287015190505b611d658582611ce7565b865550611dcd565b601f198416611d7b86611b57565b60005b82811015611da357848901518255600182019150602085019450602081019050611d7e565b86831015611dc05784890151611dbc601f891682611cc9565b8355505b6001600288020188555050505b505050505050565b7f566f74696e6720686173206e6f7420656e646564000000000000000000000000600082015250565b6000611e0b60148361173d565b9150611e1682611dd5565b602082019050919050565b60006020820190508181036000830152611e3a81611dfe565b9050919050565b7f4e487b7100000000000000000000000000000000000000000000000000000000600052603260045260246000fd5b600081905092915050565b60008154611e8881611b26565b611e928186611e70565b94506001821660008114611ead5760018114611ec257611ef5565b60ff1983168652811515820286019350611ef5565b611ecb85611b57565b60005b83811015611eed57815481890152600182019150602081019050611ece565b838801955050505b50505092915050565b6000611f0a8284611e7b565b915081905092915050565b6000611f2082611586565b611f2a8185611e70565b9350611f3a8185602086016115a2565b80840191505092915050565b6000611f528284611f15565b915081905092915050565b6000611f698385611e70565b9350611f76838584611463565b82840190509392505050565b6000611f8f828486611f5d565b91508190509392505050565b600082905092915050565b611fb08383611f9b565b67ffffffffffffffff811115611fc957611fc86113b7565b5b611fd38254611b26565b611fde828285611c76565b6000601f83116001811461200d5760008415611ffb578287013590505b6120058582611ce7565b86555061206d565b601f19841661201b86611b57565b60005b828110156120435784890135825560018201915060208501945060208101905061201e565b86831015612060578489013561205c601f891682611cc9565b8355505b6001600288020188555050505b50505050505050565b6000612082838561173d565b935061208f838584611463565b612098836113a6565b840190509392505050565b600060608201905081810360008301526120be81888a612076565b905081810360208301526120d3818688612076565b905081810360408301526120e8818486612076565b9050979650505050505050565b6120fe8161127a565b82525050565b600060208201905061211960008301846120f5565b92915050565b7f566f74696e672068617320656e64656400000000000000000000000000000000600082015250565b600061215560108361173d565b91506121608261211f565b602082019050919050565b6000602082019050818103600083015261218481612148565b905091905056fea2646970667358221220522dde1e648f7e6d992a51c7b842a04709131cc60d711366137c5176a3ec133d64736f6c63430008180033a2646970667358221220da8fc8ef2b0fc0cfb63efda34439b2199efbdf777142ac99f62b841cd6ac232264736f6c63430008180033",
  "linkReferences": {},
  "deployedLinkReferences": {}
}