{
  "_format": "hh-sol-artifact-1",
  "contractName": "VotingFactory",
  "sourceName": "contracts/VoteFactory.sol",
  "abi": [
    {
      "inputs": [
        {
          "internalType": "address",
          "name": "_voteContractAddress",
          "type": "address"
        }
      ],
      "stateMutability": "nonpayable",
      "type": "constructor"
    },
    {
      "anonymous": false,
      "inputs": [
        {
          "indexed": true,
          "internalType": "address",
          "name": "owner",
          "type": "address"
        },
        {
          "indexed": false,
          "internalType": "address",
          "name": "voteContractAddress",
          "type": "address"
        }
      ],
      "name": "VoteContractCreated",
      "type": "event"
    },
    {
      "inputs": [],
      "name": "CreateNewVote",
      "outputs": [],
      "stateMutability": "nonpayable",
      "type": "function"
    },
    {
      "inputs": [
        {
          "internalType": "address",
          "name": "owner",
          "type": "address"
        }
      ],
      "name": "getVotingContractsByOwner",
      "outputs": [
        {
          "internalType": "address[]",
          "name": "",
          "type": "address[]"
        }
      ],
      "stateMutability": "view",
      "type": "function"
    },
    {
      "inputs": [
        {
          "internalType": "address",
          "name": "",
          "type": "address"
        },
        {
          "internalType": "uint256",
          "name": "",
          "type": "uint256"
        }
      ],
      "name": "votingContracts",
      "outputs": [
        {
          "internalType": "address",
          "name": "",
          "type": "address"
        }
      ],
      "stateMutability": "view",
      "type": "function"
    }
  ],
  "bytecode": "0x608060405234801561001057600080fd5b50604051611f6b380380611f6b833981810160405281019061003291906100dc565b80600160006101000a81548173ffffffffffffffffffffffffffffffffffffffff021916908373ffffffffffffffffffffffffffffffffffffffff16021790555050610109565b600080fd5b600073ffffffffffffffffffffffffffffffffffffffff82169050919050565b60006100a98261007e565b9050919050565b6100b98161009e565b81146100c457600080fd5b50565b6000815190506100d6816100b0565b92915050565b6000602082840312156100f2576100f1610079565b5b6000610100848285016100c7565b91505092915050565b611e53806101186000396000f3fe608060405234801561001057600080fd5b50600436106100415760003560e01c806307de98c4146100465780636b256d6c14610076578063798d39b214610080575b600080fd5b610060600480360381019061005b9190610393565b6100b0565b60405161006d91906103e2565b60405180910390f35b61007e6100fe565b005b61009a600480360381019061009591906103fd565b610221565b6040516100a791906104e8565b60405180910390f35b600060205281600052604060002081815481106100cc57600080fd5b906000526020600020016000915091509054906101000a900473ffffffffffffffffffffffffffffffffffffffff1681565b600060405161010c906102ed565b604051809103906000f080158015610128573d6000803e3d6000fd5b50905060008190506000803373ffffffffffffffffffffffffffffffffffffffff1673ffffffffffffffffffffffffffffffffffffffff168152602001908152602001600020819080600181540180825580915050600190039060005260206000200160009091909190916101000a81548173ffffffffffffffffffffffffffffffffffffffff021916908373ffffffffffffffffffffffffffffffffffffffff1602179055503373ffffffffffffffffffffffffffffffffffffffff167fac623816d8a99041787f6c3a6bbe17e0c6c49487ec9966ab684df350f972ab568260405161021591906103e2565b60405180910390a25050565b60606000808373ffffffffffffffffffffffffffffffffffffffff1673ffffffffffffffffffffffffffffffffffffffff1681526020019081526020016000208054806020026020016040519081016040528092919081815260200182805480156102e157602002820191906000526020600020905b8160009054906101000a900473ffffffffffffffffffffffffffffffffffffffff1673ffffffffffffffffffffffffffffffffffffffff1681526020019060010190808311610297575b50505050509050919050565b6119138061050b83390190565b600080fd5b600073ffffffffffffffffffffffffffffffffffffffff82169050919050565b600061032a826102ff565b9050919050565b61033a8161031f565b811461034557600080fd5b50565b60008135905061035781610331565b92915050565b6000819050919050565b6103708161035d565b811461037b57600080fd5b50565b60008135905061038d81610367565b92915050565b600080604083850312156103aa576103a96102fa565b5b60006103b885828601610348565b92505060206103c98582860161037e565b9150509250929050565b6103dc8161031f565b82525050565b60006020820190506103f760008301846103d3565b92915050565b600060208284031215610413576104126102fa565b5b600061042184828501610348565b91505092915050565b600081519050919050565b600082825260208201905092915050565b6000819050602082019050919050565b61045f8161031f565b82525050565b60006104718383610456565b60208301905092915050565b6000602082019050919050565b60006104958261042a565b61049f8185610435565b93506104aa83610446565b8060005b838110156104db5781516104c28882610465565b97506104cd8361047d565b9250506001810190506104ae565b5085935050505092915050565b60006020820190508181036000830152610502818461048a565b90509291505056fe608060405234801561001057600080fd5b506118f3806100206000396000f3fe608060405234801561001057600080fd5b50600436106100cf5760003560e01c80633404d7f61161008c578063c5539cc211610066578063c5539cc214610200578063d45b311c14610233578063ee8ebc811461024f578063f1dceef21461026b576100cf565b80633404d7f6146101965780637469b4a7146101c65780638622a689146101e2576100cf565b806312fa6feb146100d457806313ee4051146100f25780631f2698ab146101225780632142bdd0146101405780632b7ac3f31461015c57806333de15ae1461017a575b600080fd5b6100dc610275565b6040516100e99190610db3565b60405180910390f35b61010c60048036038101906101079190610e18565b610286565b6040516101199190610db3565b60405180910390f35b61012a6102b3565b6040516101379190610db3565b60405180910390f35b61015a60048036038101906101559190610e7b565b6102c6565b005b61016461037d565b6040516101719190610ee9565b60405180910390f35b610194600480360381019061018f919061104a565b6103a3565b005b6101b060048036038101906101ab9190610e18565b610400565b6040516101bd9190611125565b60405180910390f35b6101e060048036038101906101db919061104a565b6104a5565b005b6101ea6105e8565b6040516101f79190611156565b60405180910390f35b61021a60048036038101906102159190611171565b6105ee565b60405161022a94939291906111ba565b60405180910390f35b61024d60048036038101906102489190611274565b6107cc565b005b61026960048036038101906102649190610e18565b6109e1565b005b610273610b52565b005b60018054906101000a900460ff1681565b60006003600083815260200190815260200160002060000160019054906101000a900460ff169050919050565b600160009054906101000a900460ff1681565b600160009054906101000a900460ff161561030d576040517f3b51a3e000000000000000000000000000000000000000000000000000000000815260040160405180910390fd5b603c8161031a9190611357565b426103259190611399565b60008190555060018060006101000a81548160ff0219169083151502179055507f18c6a608f6baf3a1b3d83912d37e7441a6219e6770604851fe47c24cc2d0115a60405161037290611419565b60405180910390a150565b600160029054906101000a900473ffffffffffffffffffffffffffffffffffffffff1681565b806002600084815260200190815260200160002090816103c39190611645565b50817f081f252b249a9285097c23203f47cfe16bc6ee1709810676b26eea187a30f11c826040516103f49190611125565b60405180910390a25050565b606060026000838152602001908152602001600020805461042090611468565b80601f016020809104026020016040519081016040528092919081815260200182805461044c90611468565b80156104995780601f1061046e57610100808354040283529160200191610499565b820191906000526020600020905b81548152906001019060200180831161047c57829003601f168201915b50505050509050919050565b600160009054906101000a900460ff166104eb576040517f6314ffc900000000000000000000000000000000000000000000000000000000815260040160405180910390fd5b6003600083815260200190815260200160002060000160009054906101000a900460ff1615610546576040517f6173109400000000000000000000000000000000000000000000000000000000815260040160405180910390fd5b60006004826040516105589190611753565b9081526020016040518091039020600001805461057490611468565b9050036105ad576040517f6eaadb4200000000000000000000000000000000000000000000000000000000815260040160405180910390fd5b6105b78282610c6a565b817f3640eeeffdb1307d3c0017a75ed51f76d569b685ccb7074f10a0bd92f96ddf2260405160405180910390a25050565b60005481565b60048180516020810182018051848252602083016020850120818352809550505050505060009150905080600001805461062790611468565b80601f016020809104026020016040519081016040528092919081815260200182805461065390611468565b80156106a05780601f10610675576101008083540402835291602001916106a0565b820191906000526020600020905b81548152906001019060200180831161068357829003601f168201915b5050505050908060010180546106b590611468565b80601f01602080910402602001604051908101604052809291908181526020018280546106e190611468565b801561072e5780601f106107035761010080835404028352916020019161072e565b820191906000526020600020905b81548152906001019060200180831161071157829003601f168201915b50505050509080600201805461074390611468565b80601f016020809104026020016040519081016040528092919081815260200182805461076f90611468565b80156107bc5780601f10610791576101008083540402835291602001916107bc565b820191906000526020600020905b81548152906001019060200180831161079f57829003601f168201915b5050505050908060030154905084565b6000600485856040516107e092919061178f565b908152602001604051809103902060000180546107fc90611468565b905014610835576040517f507f223100000000000000000000000000000000000000000000000000000000815260040160405180910390fd5b6000604051806080016040528088888080601f016020809104026020016040519081016040528093929190818152602001838380828437600081840152601f19601f82011690508083019250505050505050815260200186868080601f016020809104026020016040519081016040528093929190818152602001838380828437600081840152601f19601f82011690508083019250505050505050815260200184848080601f016020809104026020016040519081016040528093929190818152602001838380828437600081840152601f19601f82011690508083019250505050505050815260200160008152509050806004868660405161093a92919061178f565b9081526020016040518091039020600082015181600001908161095d9190611645565b5060208201518160010190816109739190611645565b5060408201518160020190816109899190611645565b50606082015181600301559050507fa620e116e8168f7281127a47ac04518b6fbd8b07cd150397e6e3e56127ce48cf8787878787876040516109d0969594939291906117d5565b60405180910390a150505050505050565b6003600082815260200190815260200160002060000160019054906101000a900460ff1615610a4757806040517f978f59cf000000000000000000000000000000000000000000000000000000008152600401610a3e9190611836565b60405180910390fd5b6000600260008381526020019081526020016000208054610a6790611468565b905003610aab57806040517f94f67b0e000000000000000000000000000000000000000000000000000000008152600401610aa29190611836565b60405180910390fd5b60006040518060400160405280600015158152602001600115158152509050806003600084815260200190815260200160002060008201518160000160006101000a81548160ff02191690831515021790555060208201518160000160016101000a81548160ff021916908315150217905550905050817f18edffd1022a6c8a5c2fb84945056621aad34f1172f8048b9f0b788bf253562860405160405180910390a25050565b600160009054906101000a900460ff16610b98576040517f6314ffc900000000000000000000000000000000000000000000000000000000815260040160405180910390fd5b600054421015610bd4576040517fd468151f00000000000000000000000000000000000000000000000000000000815260040160405180910390fd5b60018054906101000a900460ff1615610c19576040517f181ff59a00000000000000000000000000000000000000000000000000000000815260040160405180910390fd5b60018060016101000a81548160ff0219169083151502179055507f74e0b2978c99ca20b757f0f8b458fc435f508ea64c542132a673e898b96f535d604051610c609061189d565b60405180910390a1565b6000600482604051610c7c9190611753565b90815260200160405180910390206000018054610c9890611468565b905003610cd1576040517f6eaadb4200000000000000000000000000000000000000000000000000000000815260040160405180910390fd5b6003600083815260200190815260200160002060000160009054906101000a900460ff1615610d2c576040517f6173109400000000000000000000000000000000000000000000000000000000815260040160405180910390fd5b60016003600084815260200190815260200160002060000160006101000a81548160ff0219169083151502179055506001600482604051610d6d9190611753565b90815260200160405180910390206003016000828254610d8d9190611399565b925050819055505050565b60008115159050919050565b610dad81610d98565b82525050565b6000602082019050610dc86000830184610da4565b92915050565b6000604051905090565b600080fd5b600080fd5b6000819050919050565b610df581610de2565b8114610e0057600080fd5b50565b600081359050610e1281610dec565b92915050565b600060208284031215610e2e57610e2d610dd8565b5b6000610e3c84828501610e03565b91505092915050565b6000819050919050565b610e5881610e45565b8114610e6357600080fd5b50565b600081359050610e7581610e4f565b92915050565b600060208284031215610e9157610e90610dd8565b5b6000610e9f84828501610e66565b91505092915050565b600073ffffffffffffffffffffffffffffffffffffffff82169050919050565b6000610ed382610ea8565b9050919050565b610ee381610ec8565b82525050565b6000602082019050610efe6000830184610eda565b92915050565b600080fd5b600080fd5b6000601f19601f8301169050919050565b7f4e487b7100000000000000000000000000000000000000000000000000000000600052604160045260246000fd5b610f5782610f0e565b810181811067ffffffffffffffff82111715610f7657610f75610f1f565b5b80604052505050565b6000610f89610dce565b9050610f958282610f4e565b919050565b600067ffffffffffffffff821115610fb557610fb4610f1f565b5b610fbe82610f0e565b9050602081019050919050565b82818337600083830152505050565b6000610fed610fe884610f9a565b610f7f565b90508281526020810184848401111561100957611008610f09565b5b611014848285610fcb565b509392505050565b600082601f83011261103157611030610f04565b5b8135611041848260208601610fda565b91505092915050565b6000806040838503121561106157611060610dd8565b5b600061106f85828601610e03565b925050602083013567ffffffffffffffff8111156110905761108f610ddd565b5b61109c8582860161101c565b9150509250929050565b600081519050919050565b600082825260208201905092915050565b60005b838110156110e05780820151818401526020810190506110c5565b60008484015250505050565b60006110f7826110a6565b61110181856110b1565b93506111118185602086016110c2565b61111a81610f0e565b840191505092915050565b6000602082019050818103600083015261113f81846110ec565b905092915050565b61115081610e45565b82525050565b600060208201905061116b6000830184611147565b92915050565b60006020828403121561118757611186610dd8565b5b600082013567ffffffffffffffff8111156111a5576111a4610ddd565b5b6111b18482850161101c565b91505092915050565b600060808201905081810360008301526111d481876110ec565b905081810360208301526111e881866110ec565b905081810360408301526111fc81856110ec565b905061120b6060830184611147565b95945050505050565b600080fd5b600080fd5b60008083601f84011261123457611233610f04565b5b8235905067ffffffffffffffff81111561125157611250611214565b5b60208301915083600182028301111561126d5761126c611219565b5b9250929050565b6000806000806000806060878903121561129157611290610dd8565b5b600087013567ffffffffffffffff8111156112af576112ae610ddd565b5b6112bb89828a0161121e565b9650965050602087013567ffffffffffffffff8111156112de576112dd610ddd565b5b6112ea89828a0161121e565b9450945050604087013567ffffffffffffffff81111561130d5761130c610ddd565b5b61131989828a0161121e565b92509250509295509295509295565b7f4e487b7100000000000000000000000000000000000000000000000000000000600052601160045260246000fd5b600061136282610e45565b915061136d83610e45565b925082820261137b81610e45565b9150828204841483151761139257611391611328565b5b5092915050565b60006113a482610e45565b91506113af83610e45565b92508282019050808211156113c7576113c6611328565b5b92915050565b7f566f74696e672068617320737461727465640000000000000000000000000000600082015250565b60006114036012836110b1565b915061140e826113cd565b602082019050919050565b60006020820190508181036000830152611432816113f6565b9050919050565b7f4e487b7100000000000000000000000000000000000000000000000000000000600052602260045260246000fd5b6000600282049050600182168061148057607f821691505b60208210810361149357611492611439565b5b50919050565b60008190508160005260206000209050919050565b60006020601f8301049050919050565b600082821b905092915050565b6000600883026114fb7fffffffffffffffffffffffffffffffffffffffffffffffffffffffffffffffff826114be565b61150586836114be565b95508019841693508086168417925050509392505050565b6000819050919050565b600061154261153d61153884610e45565b61151d565b610e45565b9050919050565b6000819050919050565b61155c83611527565b61157061156882611549565b8484546114cb565b825550505050565b600090565b611585611578565b611590818484611553565b505050565b5b818110156115b4576115a960008261157d565b600181019050611596565b5050565b601f8211156115f9576115ca81611499565b6115d3846114ae565b810160208510156115e2578190505b6115f66115ee856114ae565b830182611595565b50505b505050565b600082821c905092915050565b600061161c600019846008026115fe565b1980831691505092915050565b6000611635838361160b565b9150826002028217905092915050565b61164e826110a6565b67ffffffffffffffff81111561166757611666610f1f565b5b6116718254611468565b61167c8282856115b8565b600060209050601f8311600181146116af576000841561169d578287015190505b6116a78582611629565b86555061170f565b601f1984166116bd86611499565b60005b828110156116e5578489015182556001820191506020850194506020810190506116c0565b8683101561170257848901516116fe601f89168261160b565b8355505b6001600288020188555050505b505050505050565b600081905092915050565b600061172d826110a6565b6117378185611717565b93506117478185602086016110c2565b80840191505092915050565b600061175f8284611722565b915081905092915050565b60006117768385611717565b9350611783838584610fcb565b82840190509392505050565b600061179c82848661176a565b91508190509392505050565b60006117b483856110b1565b93506117c1838584610fcb565b6117ca83610f0e565b840190509392505050565b600060608201905081810360008301526117f081888a6117a8565b905081810360208301526118058186886117a8565b9050818103604083015261181a8184866117a8565b9050979650505050505050565b61183081610de2565b82525050565b600060208201905061184b6000830184611827565b92915050565b7f566f74696e672068617320656e64656400000000000000000000000000000000600082015250565b60006118876010836110b1565b915061189282611851565b602082019050919050565b600060208201905081810360008301526118b68161187a565b905091905056fea26469706673582212201b2e31df75a397b5ae5e0b38716fd733ce1140e38bab1aa9cf59126c918a5bf564736f6c63430008180033a2646970667358221220193aa1ce0d27393cb490f0f483278933f5c844b7cb63ed5d9e81bfd9bdf81a7964736f6c63430008180033",
  "linkReferences": {},
  "deployedLinkReferences": {}
}